S00F00004F7353696D706C652E733139B9
S3150800000000300020E5040008FD0C00087D0D0008FE
S31508000010950D0008A90D0008BD0D00080000000098
S31508000020000000000000000000000000590500085C
S315080000305905000800000000491700088D17000838
S315080000408D1700088D1700088D1700088D170008F2
S315080000508D1700088D1700088D1700088D170008E2
S315080000608D1700088D1700088D1700088D170008D2
S315080000708D1700088D1700088D1700088D170008C2
S315080000808D1700088D1700088D1700088D170008B2
S315080000908D1700088D1700088D1700088D170008A2
S315080000A08D1700088D1700088D1700088D17000892
S315080000B08D1700088D1700088D1700088D17000882
S315080000C08D1700088D1700088D1700088D17000872
S315080000D08D1700088D1700088D1700088D17000862
S315080000E08D1700088D1700088D1700088D17000852
S315080000F08D1700088D1700088D1700088D17000842
S315080001008D1700088D1700088D1700088D17000831
S315080001108D1700088D1700088D1700088D17000821
S315080001208D1700088D1700088D1700088D17000811
S315080001308D1700088D1700088D1700088D17000801
S315080001408D1700088D1700088D1700088D170008F1
S315080001508D1700088D1700088D1700088D170008E1
S315080001608D1700088D1700088D1700088D170008D1
S315080001708D1700088D1700088D1700088D170008C1
S311080001808D1700088D1700088D17000861
S3150800018C80B500AF014803F077FF80BDD85500084D
S3150800019C80B588B000AF03F0C1F803461548194678
S315080001AC03F06AFF144B1B680133134A1360BB1D1B
S315080001BC184602F08FFAFA8807F108031046194612
S315080001CC02F0DEF93A69FB681946BB69CB1A134487
S315080001DC642202FB03F23B69B2FBF3F307481946A8
S315080001EC03F04AFF03F09AF802F04AFB2037BD46A3
S315080001FC80BD00BFE85500083006002000560008F0
S3150800020C80B588B000AF224B1B685B68214819463D
S3150800021C03F01AFF03204FF001024FF0000300F021
S3150800022C25FF4FF001004FF0000100F08FFE4FF054
S3150800023C01004FF0000100F0CFFF174B1B6801338C
S3150800024C154A1360BB1D184602F044FAFA8807F1E2
S3150800025C08031046194602F093F93A69FB681946E1
S3150800026CBB69CB1A1344642202FB03F23B69B2FB4B
S3150800027CF3F30A48194603F0FFFE074B1B68032BDA
S3150800028C05D9074B1B68002B01D0FFF779FFC1E78F
S3150800029CD40100201C560008340600202C560008F1
S315080002AC3006002080B588B000AF194B1B685B6818
S315080002BC1848194603F0C8FE4FF001004FF000012C
S315080002CC00F044FE4FF001004FF0000100F084FFEF
S315080002DC012002F035FABB1D184602F0FBF9FA8824
S315080002EC07F108031046194602F04AF93A69FB6801
S315080002FC1946BB69CB1A1344642202FB03F23B6909
S3150800030CB2FBF3F30448194603F0B6FED4E700BF74
S3150800031CD4010020485600085856000880B400AF8F
S3150800032CFEE700BF80B400AF034B1B781846BD46EA
S3150800033C5DF8047B704700BFEC20002080B400AF4A
S3150800034CBD465DF8047B704780B582B000AF0346A6
S3150800035CFB71044B1B685B680348194603F074FE73
S3150800036CFEE700BFD40100207456000880B586B09D
S3150800037C00AF0346FB7107F10A03184602F0AAF907
S3150800038CFFF7D0FF0346FB75FB7D0D2B00D009E06C
S3150800039C254B5B68BB82244B9B683B61224BDB6815
S315080003ACFB6000BF214803F067FE214B1B781846FB
S315080003BC1D4B5A681F4903010B441A601C4B1B78CA
S315080003CC1846194B9A681B4903010B445A60184B7B
S315080003DC1B781846144BDA68164903010B44083384
S315080003EC1A60134B1B78134A1B0113440833FA7D06
S315080003FC9A710F4B1B7879890E4A1B0113440833E3
S3150800040C0A469A800A4B1B780A4A1B01134408337E
S3150800041CFA79DA71064B1B780133DAB2044B1A7087
S3150800042C1837BD4680BD00BFEC2000208856000852
S3150800043C380600203C06002080B582B000AF3B1D74
S3150800044C184602F047F90346FB71FB79002B00D0DE
S3150800045CFEE7BB880B48194603F00EFEBA88FB1C50
S3150800046C1046194602F0C8F80346FB71FB79002BB7
S3150800047C00D0FEE7FB78032B00D0FEE70837BD4615
S3150800048C80BD00BF9C56000880B582B000AF3B1DEE
S3150800049C184602F01FF90346FB71FB79002B00D0B6
S315080004ACFEE7BB880B48194603F0E6FDBA88FB1C29
S315080004BC1046194602F0A0F80346FB71FB79002B8F
S315080004CC00D0FEE7FB78032B00D0FEE70837BD46C5
S315080004DC80BD00BFB8560008134880F3098802206F
S315080004EC80F31488BFF36F8F104880F30888104880
S315080004FC104B114D002102E06C584450043142183F
S3150800050C9A42F9D30D4A02E0002342F8043B0C4BFD
S3150800051C9A42F9D30B4A054C0B4B42F8043BA242C0
S3150800052CFBD300F0F9FF7047003000200040002094
S3150800053C000000202C060020946B000830060020D2
S3150800054C642E00200030002042424242FEE70000A2
S3150800055C80B48BB000AF786000237B6200233B62CB
S3150800056C0023FB610023BB6100237B6100233B61F5
S3150800057C624B5B6803F00C03FB60FB68042B07D02B
S3150800058C082B09D0002B5ED17B685D4A1A605EE0A9
S3150800059C7B685C4A1A605AE0584B5B6803F4701324
S315080005AC7B62564B5B6803F480333B627B6A9B0C1D
S315080005BC7B627B6A0D2B03D07B6A02337B6201E07C
S315080005CC06237B623B6A002B06D17B6A4E4A02FBEA
S315080005DC03F27B681A6035E0484BDB6A03F4803318
S315080005ECFB61464BDB6A03F00F030133BB61FB6906
S315080005FC002B09D1434ABB69B2FBF3F37A6A02FBB7
S3150800060C03F27B681A601DE03C4BDB6A03F0F003CF
S3150800061C1B0901337B61394BDB6A03F470631B0AD4
S3150800062C02333B61374A7B69B2FBF3F33A6902FB47
S3150800063C03F2BB69B2FBF3F37A6A02FB03F27B683B
S3150800064C1A6004E003E07B682D4A1A6000BF2B4B46
S3150800065C5B6803F0F003FB60FB681B09FB602B4A25
S3150800066CFB6813441B78DBB2BB607B681A68BB68F3
S3150800067CDA407B685A60214B5B6803F4E063FB60E5
S3150800068CFB681B0AFB60214AFB6813441B78DBB228
S3150800069CBB607B685A68BB68DA407B689A60174B04
S315080006AC5B6803F46053FB60FB68DB0AFB60174A64
S315080006BCFB6813441B78DBB2BB607B685A68BB6863
S315080006CCDA407B68DA600D4B5B6803F44043FB60E9
S315080006DCFB689B0BFB600E4AFB6813441B78DBB26A
S315080006ECBB607B68DA68BB68B2FBF3F27B681A619D
S315080006FC2C37BD465DF8047B704700BF00100240DE
S3150800070C00127A0040787D0100093D0000000020A7
S3150800071C1000002080B483B000AF78600B46FB70E5
S3150800072CFB78002B06D00949084B9A697B6813435A
S3150800073C8B6106E00549054B9A697B68DB431340D8
S3150800074C8B610C37BD465DF8047B70470010024080
S3150800075C80B584B000AFF860B9607A60252000F0E7
S3150800076CFFFE1037BD4680BD80B582B000AF0123B1
S3150800077CFB71112000F044FA00F07AFA00F0CAFD79
S3150800078C03F006F800F064FA0246274B5A60FB7928
S3150800079C012B46D1244B5B68184600F071FA04F01D
S315080007AC53FA0346BB71BB79032B17D801A252F82F
S315080007BC23F000BFD1070008E1070008D907000895
S315080007CCD9070008012000F053F80CE0022000F0CD
S315080007DC4FF808E0082000F04BF804E0BB791846FF
S315080007EC00F07AFA00BF104B01221A700E4B5B68A8
S315080007FC1A7E0D4B5B685B7E1046194600F016F8A0
S3150800080C03467B717B79002B0BD1074B00225A616F
S3150800081C054B00229A61044B5B68DB69184600F0AD
S3150800082C83FE0837BD4680BDB820002080B582B04F
S3150800083C00AF03460A46FB711346BB71FB79184693
S3150800084C00F054F80246BB79074811461A4603F0DD
S3150800085C13FC064AFB791372044ABB799377002377
S3150800086C18460837BD4680BD48580008B8200020F1
S3150800087C80B483B000AF7860054B9A6A7B681343E3
S3150800088C034A93620C37BD465DF8047B704700BF7C
S3150800089CB820002080B400AF72B6064B1B78DBB2CA
S315080008ACDBB20133DBB2DAB2024B1A70BD465DF825
S315080008BC047B7047FC20002080B400AF0A4B1B78E1
S315080008CC002B0DD0084B1B78DBB2DBB2013BDBB23D
S315080008DCDAB2054B1A70044B1B78002B00D162B6A2
S315080008ECBD465DF8047B7047FC20002080B584B0BB
S315080008FC00AF0346FB710023FB60FB79103B802B92
S3150800090C00F2458101A252F823F000BF410B000802
S3150800091C6B0B0008530B00089B0B00089B0B00087D
S3150800092C9B0B00089B0B00089B0B00089B0B0008F5
S3150800093C9B0B00089B0B00089B0B00089B0B0008E5
S3150800094C9B0B00089B0B00089B0B0008290B000847
S3150800095C350B00085F0B00087D0B0008710B0008AF
S3150800096C2F0B0008590B00089B0B00089B0B000863
S3150800097C9B0B00089B0B00089B0B00089B0B0008A5
S3150800098C9B0B00089B0B00089B0B00084D0B0008E3
S3150800099C9B0B00081D0B0008830B00089B0B00081B
S315080009AC9B0B00089B0B00089B0B00089B0B000875
S315080009BC9B0B00089B0B00089B0B00089B0B000865
S315080009CC9B0B00089B0B00089B0B0008230B0008CD
S315080009DC9B0B00089B0B00089B0B0008470B000899
S315080009EC9B0B00089B0B00089B0B00089B0B000835
S315080009FC650B00089B0B00089B0B00089B0B00085B
S31508000A0C950B0008890B00089B0B0008770B000850
S31508000A1C9B0B00089B0B00089B0B00089B0B000804
S31508000A2C9B0B00089B0B00089B0B00089B0B0008F4
S31508000A3C9B0B00089B0B00089B0B00089B0B0008E4
S31508000A4C9B0B00089B0B00089B0B00089B0B0008D4
S31508000A5C9B0B00089B0B00089B0B00089B0B0008C4
S31508000A6C9B0B00089B0B00089B0B00089B0B0008B4
S31508000A7C9B0B00089B0B00089B0B00089B0B0008A4
S31508000A8C9B0B00089B0B00089B0B00089B0B000894
S31508000A9C9B0B00089B0B00089B0B00089B0B000884
S31508000AAC9B0B00089B0B00089B0B00089B0B000874
S31508000ABC9B0B00089B0B00089B0B00089B0B000864
S31508000ACC9B0B00089B0B00089B0B00083B0B0008B4
S31508000ADC9B0B00089B0B00089B0B00089B0B000844
S31508000AEC9B0B00089B0B00089B0B00089B0B000834
S31508000AFC9B0B00089B0B00089B0B00089B0B000824
S31508000B0C9B0B00089B0B00089B0B00088F0B00081F
S31508000B1C244BFB6040E0244BFB603DE0234BFB6021
S31508000B2C3AE0234BFB6037E0224BFB6034E0224B68
S31508000B3CFB6031E0214BFB602EE0214BFB602BE088
S31508000B4C204BFB6028E0204BFB6025E01F4BFB602D
S31508000B5C22E01F4BFB601FE01E4BFB601CE01E4B8C
S31508000B6CFB6019E01D4BFB6016E01D4BFB6013E0A8
S31508000B7C1C4BFB6010E01C4BFB600DE01B4BFB6039
S31508000B8C0AE01B4BFB6007E01A4BFB6004E01A48B3
S31508000B9C1A49A422FFF7DCFDFB6818461037BD4638
S31508000BAC80BD00BFB0580008C4580008D8580008C3
S31508000BBCEC58000808590008205900083059000854
S31508000BCC44590008605900087059000888590008EB
S31508000BDCA0590008C0590008D4590008EC59000857
S31508000BEC045A0008185A0008345A00084C5A0008C7
S31508000BFC645A0008785A0008905A0008945A000853
S31508000C0C80B582B000AF0346FB710B4AFB791374AF
S31508000C1CFB79322B0CD1FFF73DFE074B5B681B6A41
S31508000C2C064AA2FB03239B09054A1360FFF744FEF9
S31508000C3C0837BD4680BD00BFB82000201F85EB5184
S31508000C4CB020002080B400AFBD465DF8047B704729
S31508000C5C80B500AF044B1B78002B01D1FFF7F2FFD0
S31508000C6C024B184680BD00BFE8200020685E0008CD
S31508000C7C80B500AF03F06AF803F006F980BD00BF33
S31508000C8C80B582B000AF78607B689B6B184603F022
S31508000C9C45FF7B689B6BDB78184603F063FF00BF48
S31508000CAC03F0AEFF0346002BFAD103F095FF7B68E1
S31508000CBCDB6B184604F044F87B68DB6B184604F0CB
S31508000CCC3FF87B681B6C184604F0C6FA04F094F8D7
S31508000CDC0837BD4680BD00BF80B582B000AF7860CE
S31508000CEC0220FFF7C5FD00BF0837BD4680BD00BF13
S31508000CFC80B500AF6FF00D00002102F0D5FE80BD67
S31508000D0C80B48DB000AF78607B681B68FB627B682B
S31508000D1C5B68BB627B689B687B627B68DB683B6253
S31508000D2C7B681B69FB617B685B69BB617B689B693C
S31508000D3C7B617B68DB693B610C4B9B6A03F4802304
S31508000D4C002B00D0FEE7094B9B6A03F40033002BFB
S31508000D5C00D0FEE7054B9B6A03F40043002B03D037
S31508000D6C024B9B6BFB60FEE7FEE700BF00ED00E065
S31508000D7C72B61EF0040F0CBFEFF30880EFF3098070
S31508000D8C004908470D0D000880B500AF6FF00B0041
S31508000D9C014902F089FE80BD00ED00E080B500AF88
S31508000DAC6FF00A00014902F07FFE80BD00ED00E0FD
S31508000DBC80B500AF6FF00900014902F075FE80BDE1
S31508000DCC00ED00E080B483B000AF7860FF231846CE
S31508000DDC0C37BD465DF8047B704700BF00F0C2FCBB
S31508000DEC0C480D49016062B6BFF34F8FBFF36F8F86
S31508000DFCFEE74FEA000D4FEA010E70472DE9F04F5A
S31508000E0C4FEA0D0404600C684FEA040D034D296083
S31508000E1CBDE8F08F04ED00E0000000100021002072
S31508000E2C80B483B000AFEFF310833B603B687B6004
S31508000E3C72B67B6818460C37BD465DF8047B70475E
S31508000E4C80B485B000AF78607B68FB60FB6883F381
S31508000E5C10881437BD465DF8047B704780B400AF24
S31508000E6C034B1B681846BD465DF8047B704700BFEC
S31508000E7C0021002080B400AF084B1A78084B1B7869
S31508000E8C1343DBB25BB2002B14BF01230023DBB286
S31508000E9C1846BD465DF8047B704700BFFD20002050
S31508000EACFC20002080B400AF074B5B6D9B8B4FF684
S31508000EBCFF7293420CBF01230023DBB21846BD46D2
S31508000ECC5DF8047B704700BF0021002080B483B016
S31508000EDC00AF0346FB80FA881346DB0013441B015C
S31508000EEC034A134418460C37BD465DF8047B704715
S31508000EFC6821002080B483B000AF78607B689B6B58
S31508000F0C002B14BF01230023DBB218460C37BD4651
S31508000F1C5DF8047B704700BF80B582B000AF03460E
S31508000F2CFB71094B5B6A002B0AD0074B5B6ADB68C3
S31508000F3C002B05D0044B5B6ADB68FA791046984798
S31508000F4C0837BD4680BD00BF0021002080B586B09D
S31508000F5C00AFC7E90001FFF781FF78610023FB7436
S31508000F6CFFF788FF0346002B0DD00D23FB743B4B74
S31508000F7C0A221A703B68394A5360FB7C1846FFF7FD
S31508000F8CCBFFFB7C66E0364B5B69002B0DD002234E
S31508000F9CFB74324B0A221A703B68304A5360FB7C4E
S31508000FAC1846FFF7B9FFFB7C54E07B691B6C1B7B6F
S31508000FBC032B0DD00123FB74284B0A221A703B68AD
S31508000FCC264A5360FB7C1846FFF7A6FFFB7C41E0DC
S31508000FDC7869FFF78FFF0346002B0DD00623FB74A9
S31508000FEC1E4B0A221A703B681C4A5360FB7C184637
S31508000FFCFFF792FFFB7C2DE0FFF712FFF8607B6989
S3150800100CD3E90601D7E9002302EA000203EA010341
S3150800101C13431BD17969D7E90023C1E90423FFF7E8
S3150800102C41FF0346002B0ED0022001F081F87B69A4
S3150800103C9B8903F00803002B08D10A480A49492260
S3150800104CFFF786FB02E0786900F01CFFF868FFF7EB
S3150800105CF7FEFB7C18461837BD4680BDEC200020F1
S3150800106C00210020CC5E0008F05E000880B588B030
S3150800107C00AF0146C7E900230B46FB810023FB772B
S3150800108CFB89032B10D90323FB774F4B07221A70C6
S3150800109CFB894D4A53603B684B4A9360FB7F184665
S315080010ACFFF73AFFFB7F8AE0FB891846FFF70EFF2E
S315080010BCB861FFF7D3FE7861BB691B6C1B7B032BEE
S315080010CC10D00123FB77404B07221A70FB893E4A46
S315080010DC53603B683C4A9360FB7F1846FFF71CFF3E
S315080010ECFB7F6CE0BB699B8903F00403002B10D0D3
S315080010FC0723FB77344B07221A70FB89324A536055
S3150800110C3B68314A9360FB7F1846FFF705FFFB7F68
S3150800111C55E0FFF785FE3861BB69D3E90601D7E9C7
S3150800112C002342EA000243EA0103B969C1E906232E
S3150800113CBB69D3E90401D7E9002302EA000203EAF2
S3150800114C0103134337D0BB699B8903F00203002BB9
S3150800115C26D0B86900F082FEFFF780FE78611B4B3B
S3150800116C5B69002B27D17B691B6C93F82830002B05
S3150800117C21D1BB69DA6A7B69DB6A9A421BD9FFF70C
S3150800118C79FE034683F00103DBB2002B13D0FFF77D
S3150800119C89FE0346002B0ED0012000F0C9FF0AE099
S315080011ACBB699B8903F06903002B04D108480949DC
S315080011BCB722FFF7CDFA3869FFF742FEFB7F1846D0
S315080011CC2037BD4680BD00BFEC2000200021002042
S315080011DC545F0008F05E000880B586B000AFC7E91A
S315080011EC00010023FB75FFF739FE3861FFF742FE55
S315080011FC0346002B0DD00D23FB75264B08221A70BF
S3150800120C3B68244A5360FB7D1846FFF785FEFB7D39
S3150800121C3BE0214B5B69002B0DD00223FB751D4B64
S3150800122C08221A703B681B4A5360FB7D1846FFF769
S3150800123C73FEFB7D29E03B691B6C1B7B032B0DD0D6
S3150800124C0123FB75134B08221A703B68114A53602D
S3150800125CFB7D1846FFF760FEFB7D16E0FFF7E0FD09
S3150800126CF8603B69D3E90601D7E900236FEA020265
S3150800127C6FEA030302EA000203EA01033969C1E9CA
S3150800128C0623F868FFF7DCFDFB7D18461837BD46C4
S3150800129C80BD00BFEC2000200021002080B400AFE8
S315080012AC044B00221A70044B00221A70BD465DF8D6
S315080012BC047B7047FD200020FC20002080B483B0FE
S315080012CC00AF0346FB80FA881346DB0013441B0168
S315080012DC034A134418460C37BD465DF8047B704721
S315080012EC6821002090B482B000AF786039603B6802
S315080012FC5A687B68DA627A683B681446103393E856
S3150800130C070084E807007B683A681A640837BD4604
S3150800131C90BC704780B588B000AF314800215C227C
S3150800132C03F0B2FF2E4B012283F85A202C4B2D4A80
S3150800133C5A652D4B64221A702C4B64221A7000F0D5
S3150800134C3BFB274B00229A64254B294ADA60244B2F
S3150800135C0022DA64224B274A1A653B1D184602F00E
S3150800136C79FABB681A46FB681344103B1A461C4BA1
S3150800137C1A62BB68BB61BB6942221A70BA68FB6801
S3150800138C13447B617B69013B42221A7001F0D2FF40
S3150800139C0023FB611BE0FB699BB21846FFF78EFF27
S315080013AC3861FB699B01144A134438691946FFF7DF
S315080013BC99FF386900F0FEFD3B6900229A633B6988
S315080013CC03F138023B69DA63FB690133FB61FB699C
S315080013DC032BE0D901F058FB2037BD4680BD00BF72
S315080013EC00210020A8230020FC200020FD2000203E
S315080013FC682100204C2100203057000880B586B0A3
S3150800140C00AF00233B6172B63B4B93F85A30002B66
S3150800141C04D13A483A49BD22FFF79AF9364B394A6C
S3150800142C5A62354B5B6A5B68002B03D0324B5B6A9E
S3150800143C5B68984702F0FAFA01F0F0FD01F0EEFF4E
S3150800144C03F038FCB860304B1B68BA68B2FBF3F390
S3150800145C184601F0EBFF0023FB600023FB8219E022
S3150800146CFB8A1846FFF72AFF78607B681B6C5B7B48
S3150800147C002B0CD03B69002B04D07B68DA6AFB681E
S3150800148C9A4204D97B683B617B68DB6AFB60FB8A02
S3150800149C0133FB82FB8A032BE2D93B69002B05D16E
S315080014AC1A48174940F20712FFF752F9124A3B69D4
S315080014BC13603B691B6CDB690F4A1364FFF7EEFE7E
S315080014CC3B6993F830203B691B6C93F83C309A4285
S315080014DC05D90F480A4940F21312FFF739F90020CB
S315080014EC396900F0FFFF0B48054940F21712FFF760
S315080014FC2FF91837BD4680BD00210020585F00081B
S3150800150C7C5F000830580008D8560008E05F0008D1
S3150800151CFC5F00083C60000880B500AFFFF724F9B3
S3150800152C0123184680BD00BF80B582B000AF786035
S3150800153C084B012283F85920064A7B689363FFF708
S3150800154C5DFF054805494FF49D72FFF701F9083709
S3150800155CBD4680BD002100203C6000087C5F000869
S3150800156C80B582B000AF0346FB7172B6074B5B6A57
S3150800157C002B0AD0054B5B6A9B68002B05D0034BE6
S3150800158C5B6A9B68FA7910469847FEE700210020AB
S3150800159C80B483B000AF7860034A7B6813600C375D
S315080015ACBD465DF8047B70470021002080B400AF6F
S315080015BC084B1A78084B1B781343DBB25BB2002B2B
S315080015CC14BF01230023DBB21846BD465DF8047B25
S315080015DC704700BFFD200020FC20002080B483B09B
S315080015EC00AF0346FB7197F90730002B0ADA0D4A50
S315080015FCFB7903F00F03043B13441B7EDBB21B0978
S3150800160CDBB208E0084A97F90730134493F800331D
S3150800161CDBB21B09DBB218460C37BD465DF8047BFA
S3150800162C704700BF00ED00E000E100E080B400AFB9
S3150800163C074B5B6D9B8B4FF6FF7293420CBF0123D6
S3150800164C0023DBB21846BD465DF8047B704700BF25
S3150800165C0021002080B483B000AF78607B68082234
S3150800166C9A810C37BD465DF8047B704780B485B00B
S3150800167C00AF78600023FB737B685B68BB60BB6854
S3150800168C1B78422B0CBF01230023DBB2FB73FB7BBD
S3150800169C18461437BD465DF8047B704780B485B090
S315080016AC00AF78600023FB737B685A687B689B687D
S315080016BC1344BB60BB68013B1B78422B0CBF012350
S315080016CC0023DBB2FB73FB7B18461437BD465DF86B
S315080016DC047B704780B582B000AF78607868FFF7F6
S315080016ECC5FF0346002B05D07868FFF7D7FF0346DE
S315080016FC002B02D10E20FFF733FF0837BD4680BDFD
S3150800170C80B500AF62B6034B1B681B6C9B68984789
S3150800171C80BD00BF0021002090B400AFEFF3098311
S3150800172C1C4623461846BD4690BC704780B400AF8D
S3150800173C30231846BD465DF8047B704790B482B0DA
S3150800174C00AFEFF309831C4623467B607B68203386
S3150800175C7B607B683B603B6883F309880837BD462A
S3150800176C90BC704780B500AF044B5A68034B1B6896
S3150800177C10461946FFF742FB80BD00BF002100202A
S3150800178C90B587B000AF6F4B5B68C3F308037B61FA
S3150800179C7B69DBB2103BDBB2DBB25BB21846FFF7F8
S315080017AC1DFF0346042B10D8674A7B6952F8233071
S315080017BC002B04D1654866497A22FEF7C9FF624AAE
S315080017CC7B6952F823309847B8E0EFF309831C4637
S315080017DC23463B6172B6FFF7E9FE0346002B04D09D
S315080017EC5C485B498522FEF7B3FF7B699BB2386977
S315080017FC194602F041F8584B1B78422B02D00E20A2
S3150800180CFFF7AEFE4F4B5B6803F40063002B00F04A
S3150800181C9180524B00221A60EFF309831C4623462B
S3150800182CFB60FB68203BFB60FB684FF08072DA615B
S3150800183CFB687B607B6883F3098800F0DFFBB86084
S3150800184CB868FFF747FF464B1A68BB689A420ED032
S3150800185C434B1B681B6C93F82830012B07D0FFF7FA
S3150800186CE5FE034683F00103DBB2002B2AD03C4B82
S3150800187C1B6808229A813A4B1B689B8903F008035C
S3150800188C002B04D137483249B522FEF761FF344B99
S3150800189C1B689B6A002B04D033482D49B522FEF7EA
S315080018AC57FF2F4B1B6801229A622D4B5B6A1B69EB
S315080018BC002B03D02A4B5B6A1B6998472B4AFB689B
S315080018CC9A613BE0264B1B68254A5360B868FFF7BC
S315080018DC5FFEBB681B6CDB69214A136401F0ACF82C
S315080018ECB868FFF7B7FE1E4B1B689B8903F0080305
S315080018FC002B04D11B481649C522FEF729FF184BA5
S3150800190C1B689B6A002B04D017481149C522FEF7A1
S3150800191C1FFF134B1B6801229A62114B5B6A1B69EA
S3150800192C002B03D00E4B5B6A1B699847104AFB6861
S3150800193C9A6103E0094B01221A6062B61C37BD4650
S3150800194C90BD00BF00ED00E0FC2C002040600008B4
S3150800195C68600008D860000800300020602100206C
S3150800196C00210020F86000082C610008EC0D000826
S3150800197CE80D000880B485B000AF78607B681B68FA
S3150800198CFB607B681B6C1B7B032B03D1084AFB682B
S3150800199C1A6207E07B681B6C1B7B012B02D1054A7C
S315080019ACFB681A621437BD465DF8047B704700BFA6
S315080019BC111F0008551F000880B400AFBD465DF81E
S315080019CC047B704780B483B000AFEFF310833B60A1
S315080019DC3B687B6072B67B6818460C37BD465DF86B
S315080019EC047B704780B485B000AF78607B68FB6079
S315080019FCFB6883F310881437BD465DF8047B704783
S31508001A0C80B483B000AF7860034A7B6813600C37E8
S31508001A1CBD465DF8047B70470021002080B400AFFA
S31508001A2C034B1B681846BD465DF8047B704700BF20
S31508001A3C0021002080B400AF084B1A78084B1B789D
S31508001A4C1343DBB25BB2002B14BF01230023DBB2BA
S31508001A5C1846BD465DF8047B704700BFFD20002084
S31508001A6CFC20002080B400AF044B00221A70044BF3
S31508001A7C00221A70BD465DF8047B7047FD200020D5
S31508001A8CFC20002080B400AF074B5B6D9B8B4FF698
S31508001A9CFF7293420CBF01230023DBB21846BD46E6
S31508001AAC5DF8047B704700BF0021002080B483B02A
S31508001ABC00AF78607B6808229A810C37BD465DF8C2
S31508001ACC047B704780B483B000AF0346FB80FA886A
S31508001ADC1346DB0013441B01034A134418460C3700
S31508001AECBD465DF8047B70476821002080B582B03E
S31508001AFC00AF786039607B689A8B3B681B6C1B88D7
S31508001B0C9A4205D01F48204940F20312FEF720FEE0
S31508001B1C7B684FF6FF729A837B689A693B68DA6230
S31508001B2C7B689B7F022B29D03B689B6B002B05D1CE
S31508001B3C1648154940F20912FEF70AFE3B68DB6B9C
S31508001B4C5B681A687B689A4205D011480E494FF4AF
S31508001B5C8672FEF7FDFD7B689B6A002B05D07B68B9
S31508001B6C9B6A7A68D26ADA6203E07B68DA6A3B684F
S31508001B7CDA637B68DB6A7A68926A1A600837BD464C
S31508001B8C80BD00BF546100087C610008E061000854
S31508001B9C1862000880B584B000AF78607B689B6BD0
S31508001BACFB6006E0F8687968FFF7A0FFFB689B6A9C
S31508001BBCFB60FB68002BF5D11037BD4680BD00BF16
S31508001BCC80B485B000AF78607B681B68BB607B68A7
S31508001BDC5B68FB6002E0FB680133FB60FB681B7803
S31508001BEC422B03D1FA68BB689A42F4D3FB681846B1
S31508001BFC1437BD465DF8047B704700BF80B485B0CA
S31508001C0C00AF78607B685A687B689B681344FB60F6
S31508001C1CFB68013B42221A701437BD465DF8047BFB
S31508001C2C704700BF80B485B000AF78607B685B688E
S31508001C3CFB60FB6842221A701437BD465DF8047BBC
S31508001C4C704700BF80B485B000AF78600023FB7383
S31508001C5C7B685B68BB60BB681B78422B0CBF012397
S31508001C6C0023DBB2FB73FB7B18461437BD465DF8C5
S31508001C7C047B704780B485B000AF78600023FB7393
S31508001C8C7B685A687B689B681344BB60BB68013BDE
S31508001C9C1B78422B0CBF01230023DBB2FB73FB7BA7
S31508001CAC18461437BD465DF8047B704780B582B07C
S31508001CBC00AF78607868FFF7C5FF0346002B05D0A0
S31508001CCC7868FFF7D7FF0346002B02D10E20FFF7E3
S31508001CDC47FC0837BD4680BD80B483B000AF78603A
S31508001CEC7B689B6B002B14BF01230023DBB21846C1
S31508001CFC0C37BD465DF8047B704700BF80B582B0D3
S31508001D0C00AF0346FB71094B5B6A002B0AD0074BE5
S31508001D1C5B6ADB68002B05D0044B5B6ADB68FA79D7
S31508001D2C104698470837BD4680BD00BF00210020E5
S31508001D3C80B582B000AF78607B689B89082B04D08D
S31508001D4C054806492522FEF703FD7B6801229A8180
S31508001D5C0837BD4680BD00BF646200088C62000867
S31508001D6C80B483B000AF78607B68D3F88430002BDE
S31508001D7C08D07B68D3F884307A68D2F88820C3F800
S31508001D8C882004E07B68D3F88830074A13657B689B
S31508001D9CD3F888307A68D2F884201A600C37BD4696
S31508001DAC5DF8047B704700BF0021002080B483B027
S31508001DBC00AF78607B680022C3F88420084B1A6D44
S31508001DCC7B68C3F88820064B1B6D7A681A607B689B
S31508001DDC8433034A13650C37BD465DF8047B70479C
S31508001DEC0021002080B582B000AF78607B689B89A3
S31508001DFC03F00903002B04D1064807496322FEF7B2
S31508001E0CA7FC7B6804229A817868FFF7A9FF083734
S31508001E1CBD4680BDF06200088C62000880B582B0B1
S31508001E2C00AF78607B681B6C1B7B032B0DD1796824
S31508001E3C4FF000024FF00003C1E9062379684FF012
S31508001E4C00024FF00003C1E90423786800F082F819
S31508001E5C7868FFF78FFD0837BD4680BD80B582B020
S31508001E6C00AF78607B689B8903F00903002B05D1CA
S31508001E7C7B6801229A817868FFF798FF0837BD4678
S31508001E8C80BD00BF80B582B000AF78607B689B8947
S31508001E9C03F00903002B04D1064807499622FEF7DE
S31508001EAC57FC7B6802229A817868FFF759FF083736
S31508001EBCBD4680BDF06200088C62000880B584B00F
S31508001ECC00AF78607B681B68FB607B681A687B6868
S31508001EDC5B689A4204D809480949A622FEF738FCD9
S31508001EEC7B685968FB687A6852689B1A08464221CF
S31508001EFC1A4603F0C9F91037BD4680BD1C630008A5
S31508001F0C8C62000880B582B000AFFFF787FD786059
S31508001F1CFFF7F6FB72B6FFF78DFD0346002B01D0D3
S31508001F2CFFF7A0FD7868FFF7D7FE0346002B02D013
S31508001F3C7868FFF72FFE0C20FFF7E0FE00F0A0FCF8
S31508001F4C0837BD4680BD00BF80B500AFFFF7DAFF86
S31508001F5C80BD00BF80B584B000AF78607B685A68D6
S31508001F6C7B689B681344FB60FB6803F00703002B34
S31508001F7C05D00E480E494FF49372FEF7E9FB7B68C1
S31508001F8CFA681A607868FFF739FEFB68103BFB6045
S31508001F9CFFF7CCFB03465B42FA681A447B681A6067
S31508001FAC7868FFF73FFE1037BD4680BD44630008CE
S31508001FBC8C62000880B582B000AF78607B681B6CB9
S31508001FCC5B7B012B0BD17B6893F830300133DAB28B
S31508001FDC7B6883F830207868FFF740FF02E07B685F
S31508001FEC04229A817868FFF7B5FF7868FFF766FFD1
S31508001FFC7868FFF7BFFC0837BD4680BD80B584B04E
S3150800200C00AF0023BB6000237B600023FB701D4BD5
S3150800201CDB6CFB6025E0FB689B8903F00903002B4E
S3150800202C15D0FB78012B0AD1FB68DA6A7B689A42D1
S3150800203C13D9FB68DB6A7B60FB68BB600DE0012388
S3150800204CFB70FB68DB6A7B60FB68BB6005E00E48CF
S3150800205C0E494FF4B372FEF77BFBFB68D3F884305A
S3150800206CFB60FB68002BD6D1BB68002B05D1084852
S3150800207C064940F26B12FEF76BFBBB681846103725
S3150800208CBD4680BD00210020646300088C620008F0
S3150800209C6863000880B582B000AF78607868FFF78F
S315080020AC59FF7868FFF702FD7868FFF7A9FC1A4B09
S315080020BC1B689B8903F00803002B05D117481849A0
S315080020CC4FF41672FEF744FB134B1B689B6A002BE6
S315080020DC05D0144812494FF41672FEF739FB0E4B0D
S315080020EC1B6801229A620C4B5B6A1B69002B03D096
S315080020FC094B5B6A1B6998477B681B6818460A4933
S3150800210CFEF777FE0948064940F25D22FEF720FBEA
S3150800211C0837BD4680BD00BF002100208463000837
S3150800212C8C620008B8630008551F00086463000831
S3150800213C80B584B000AF0346FB80FFF76FFCF860F0
S3150800214CB84B5B69002B05D0B748B84940F27122E9
S3150800215CFEF7FEFAFFF796FC034683F00103DBB2A3
S3150800216C002B05D0B248B14940F27222FEF7F0FABC
S3150800217CFB689B8903F00803002B05D1AD48AB49D6
S3150800218C40F27522FEF7E4FAA64B1B689B8903F00E
S3150800219C0803002B05D1A848A44940F27622FEF77D
S315080021ACD7FAA04B1B689B6A012B05D0A3489F49FD
S315080021BC40F27622FEF7CCFA9A4B1B6800229A62FA
S315080021CC984B5B6A5B69002B03D0964B5B6A5B6921
S315080021DC9847FB88013B3F2B00F2E18001A252F89D
S315080021EC23F000BFF1220008F9220008AB230008EF
S315080021FC01230008AB230008AB230008AB23000817
S3150800220C71230008AB230008AB230008AB23000896
S3150800221CAB230008AB230008AB230008AB2300084C
S3150800222CF1220008AB230008AB230008AB230008F7
S3150800223CAB230008AB230008AB230008AB2300082C
S3150800224CAB230008AB230008AB230008AB2300081C
S3150800225CAB230008AB230008AB230008AB2300080C
S3150800226C09230008AB230008AB230008AB2300089E
S3150800227CAB230008AB230008AB230008AB230008EC
S3150800228CAB230008AB230008AB230008AB230008DC
S3150800229CAB230008AB230008AB230008AB230008CC
S315080022ACAB230008AB230008AB230008AB230008BC
S315080022BCAB230008AB230008AB230008AB230008AC
S315080022CCAB230008AB230008AB230008AB2300089C
S315080022DCAB230008AB230008AB230008AB2300088C
S315080022ECF1220008F868FFF723FD5FE0F868FFF7AE
S315080022FCC9FD5BE0F868FFF7B1FD57E0494B1B6970
S3150800230C002B05D14E48494940F29122FEF720FA96
S3150800231C444B1A69FB689A4223D0FB6893F8303011
S3150800232C002B05D1474841494FF42872FEF710FA9D
S3150800233CFB6893F83030013BDAB2FB6883F830203F
S3150800234CFB6893F83030002B03D1F868FFF74AFD89
S3150800235C07E0F868FFF7ECFCFB68012283F83120EC
S3150800236C24E023E0FB6893F83030002B05D1354880
S3150800237C2E4940F2B522FEF7EBF9FB6893F830309C
S3150800238C013BDAB2FB6883F83020FB6893F83030EF
S3150800239C002B03D1F868FFF725FD07E006E02A486D
S315080023AC224940F2BD22FEF7D3F900BFFFF726FEFD
S315080023BCB860BA68FB689A422DD0FB88202B0AD1E4
S315080023CC184B1A69FB689A4205D1164B00221A61FA
S315080023DCF868FFF7ADFCBB68002B05D11B48134901
S315080023EC40F2CD22FEF7B4F900F03AFBF868FFF795
S315080023FC5DFCBB6893F83130012B07D1BB68002212
S3150800240C83F83120B868FFF745FE07E0F868B96825
S3150800241C00F01EF802E0B868FFF73CFE1037BD4620
S3150800242C80BD00BF00210020E06300088C62000814
S3150800243C00640008206400088463000848640008E7
S3150800244C706400089C64000864630008B86400089B
S3150800245C80B582B000AF786039603B68002B35D008
S3150800246C3868FFF7CDFA3B681B6CDB69194A1364AD
S3150800247C00F0E2FA3868FFF719FB164B1B689B89C4
S3150800248C03F00803002B05D11348144940F20B320C
S3150800249CFEF75EF90F4B1B689B6A002B05D010489C
S315080024AC0E4940F20B32FEF753F90A4B1B68012210
S315080024BC9A62084B5B6A1B69002B03D0054B5B6A57
S315080024CC1B69984778683968FEF798FC0837BD4643
S315080024DC80BD00BF00210020846300088C620008C0
S315080024ECB863000880B582B000AF78603960386888
S315080024FCFFF786FA3B681B6CDB691C4A136400F011
S3150800250C9BFA3868FFF7D2FA184B1B689B8903F0BD
S3150800251C0803002B05D11648164940F21F32FEF760
S3150800252C17F9124B1B689B6A002B05D012481149E8
S3150800253C40F21F32FEF70CF90C4B1B6801229A620B
S3150800254C0A4B5B6A1B69002B03D0084B5B6A1B6939
S3150800255C984778683968FEF756FC084805494FF4D9
S3150800256C4972FEF7F5F80837BD4680BD00210020F4
S3150800257C846300088C620008B8630008646300086A
S3150800258C80B584B000AF03463960FB80FB881846DB
S3150800259CFFF798FAF8603B68002B29D0FFF7BCF8D0
S315080025AC02463B68DA60FB685A683B685A60FB6807
S315080025BC1A683B681A60FB689A683B689A60F86800
S315080025CCFFF7FEFA02463B681A613B689A683B6855
S315080025DC5B6819463B681B69CB1A1344642202FBD9
S315080025EC03F23B689B68B2FBF3F3DAB23B681A75E5
S315080025FC1037BD4680BD00BF80B586B000AF034618
S3150800260C3960FB800023FB753B68002B10D118231F
S3150800261CFB752D4B17221A70FB882B4A53603B68A7
S3150800262C294A9360FB7D1846FFF768FBFB7D46E05D
S3150800263CFB88032B10D90323FB75234B17221A701F
S3150800264CFB88214A53603B681F4A9360FB7D1846FA
S3150800265CFFF754FBFB7D32E0FB881846FFF732FA8E
S3150800266C38613B699B89FB81FB89042B17D0042BAA
S3150800267C04DC012B17D0022B09D018E0082B02D04A
S3150800268C402B08D013E03B6803221A7016E03B680F
S3150800269C00221A7012E03B6804221A700EE03B689E
S315080026AC02221A700AE03B6801221A7006E00748F3
S315080026BC074940F27132FEF74BF800BFFB7D18460E
S315080026CC1837BD4680BD00BFEC20002064630008A7
S315080026DC8C62000880B584B000AF78600023FB7369
S315080026EC7B68002B0DD11823FB73134B04221A702D
S315080026FC7B68114A5360FB7B1846FFF7FFFAFB7B96
S3150800270C15E07B684DF6AD621A800C4B5B69002BA5
S3150800271C0CD10A4B1B689B8903F00803002B05D0C8
S3150800272C064B1B681B6C1A887B681A80FB7B184641
S3150800273C1037BD4680BD00BFEC20002000210020CC
S3150800274C90B587B000AF0346FB80FFF767F9786151
S3150800275C0023FB74FB88032B0DD90323FB74444B12
S3150800276C00221A70FB88424A5360FB7C1846FFF716
S3150800277CC5FAFB7C77E0FB881846FFF7A3F9F860E7
S3150800278CFFF758F90346002B0DD00D23FB74384B75
S3150800279C00221A70FB88364A5360FB7C1846FFF7F2
S315080027ACADFAFB7C5FE0FFF70DF9B860FB6893F8B0
S315080027BC30300133DAB2FB6883F83020FB689B892A
S315080027CC042B21D0FB6893F83020FB681B6C93F81C
S315080027DC3C309A4229D90423FB74B868FFF702F9EE
S315080027ECFB6893F83030013BDAB2FB6883F830208B
S315080027FC1F4B00221A70FB881D4A5360FB7C184637
S3150800280CFFF77CFAFB7C2EE0FB6893F83030012B43
S3150800281C05D01848184940F2FE32FDF799FFF868BA
S3150800282CFFF7FCFAF868FFF719FB144B5B69002BEA
S3150800283C15D17B691B6C93F82830002B0FD1FB68DC
S3150800284CDC6AFFF7EBF80346DB6A9C4207D9FFF70D
S3150800285C19F90346002B02D00420FFF769FCB86867
S3150800286CFFF7C0F8FB7C18461C37BD4690BD00BF69
S3150800287CEC200020CC6400088C62000800210020A3
S3150800288C80B582B000AF0023FB71FFF7C7F838603C
S3150800289CFFF7D0F80346002B0AD00D23FB711C4B0F
S315080028AC01221A70FB791846FFF728FAFB792AE0F9
S315080028BC184B5B69002B0AD00223FB71144B0122BF
S315080028CC1A70FB791846FFF719FAFB791BE038687A
S315080028DCFFF702FA0346002B0AD00623FB710C4BB2
S315080028EC01221A70FB791846FFF708FAFB790AE0F9
S315080028FC72B60820FFF71CFC0748084940F241420B
S3150800290CFDF726FFFB7918460837BD4680BD00BF84
S3150800291CEC20002000210020646300088C6200086B
S3150800292C80B400AF034B1B681846BD465DF8047BA4
S3150800293C704700BF0021002080B483B000AF7860D8
S3150800294C39603B681B6C1A887B689A833B68DA6A21
S3150800295C7B689A617B685A693B68DA627B689B7FFD
S3150800296C022B0FD07B6800229A623B68DA6B7B6875
S3150800297CDA623B68DB6B7A681A607B6803F12802BB
S3150800298C3B68DA630C37BD465DF8047B704700BFBD
S3150800299C80B582B000AF786039607B689A8B3B68EB
S315080029AC1B6C1B889A4205D01F48204940F203121B
S315080029BCFDF7CEFE7B684FF6FF729A837B689A69A1
S315080029CC3B68DA627B689B7F022B29D03B689B6B42
S315080029DC002B05D11648154940F20912FDF7B8FE29
S315080029EC3B68DB6B5B681A687B689A4205D01148B2
S315080029FC0E494FF48672FDF7ABFE7B689B6A002B7B
S31508002A0C05D07B689B6A7A68D26ADA6203E07B68CF
S31508002A1CDA6A3B68DA637B68DB6A7A68926A1A60F8
S31508002A2C0837BD4680BD00BF3C65000864650008D4
S31508002A3CC86500080066000880B582B000AFFFF7CD
S31508002A4C6FFF78607B681B6C9B6B3B603B68002B4D
S31508002A5C03D038687968FFF76FFF0837BD4680BD25
S31508002A6C80B582B000AFFFF75BFF78607B681B6CA4
S31508002A7C9B6B3B603B68002B03D038687968FFF783
S31508002A8C87FF0837BD4680BD80B500AF0A4B5B6D26
S31508002A9C4FF0FF325A61084B5B6D1846074902F036
S31508002AAC41FC054B5B6D00221A61034B5B6D4FF6BF
S31508002ABCFF729A8380BD00BF002100204C66000877
S31508002ACC80B483B000AFEFF310833B603B687B6048
S31508002ADC72B67B6818460C37BD465DF8047B7047A2
S31508002AEC80B485B000AF78607B68FB60FB6883F3C5
S31508002AFC10881437BD465DF8047B704780B400AF68
S31508002B0C084B1A78084B1B781343DBB25BB2002BC5
S31508002B1C14BF01230023DBB21846BD465DF8047BBF
S31508002B2C704700BFFD200020FC20002080B483B035
S31508002B3C00AF78607B681B6A18460C37BD465DF893
S31508002B4C047B704780B483B000AF78607B685B69A0
S31508002B5C18460C37BD465DF8047B704780B487B0C1
S31508002B6C00AFF860B9607A60BA68FB68D31A3B6143
S31508002B7C7A683B699A4204D8FA687B6813447B6185
S31508002B8C06E0FA68BB68D21A7B681344013B7B6182
S31508002B9C7B6918461C37BD465DF8047B704700BF39
S31508002BAC80B483B000AF0346FB80FA881346DB007B
S31508002BBC1344DB00034A134418460C37BD465DF82C
S31508002BCC047B70475000002080B582B000AF0346E6
S31508002BDCFB71094B5B6A002B0AD0074B5B6ADB68F7
S31508002BEC002B05D0044B5B6ADB68FA7910469847CC
S31508002BFC0837BD4680BD00BF0021002080B485B0D3
S31508002C0C00AF786039600023FB737B68002B0DD00E
S31508002C1C3B685B689A6A7B689A4205D83B685B682E
S31508002C2C1A6A7B689A4201D20823FB73FB7B184607
S31508002C3C1437BD465DF8047B704700BF90B583B06A
S31508002C4C00AF78607B689B69002B04D17B680022F7
S31508002C5C83F8242015E07B685B681846FFF772FF3B
S31508002C6C04467B685B681846FFF760FF02467B687C
S31508002C7C9B69204611461A46FFF770FF02467B6889
S31508002C8C1A620C37BD4690BD80B588B000AFB960E6
S31508002C9C7A601A460346FB8113467B730023FB773F
S31508002CAC7B7B002B18D1FFF729FF0346002B13D08B
S31508002CBC0D23FB77524B0D221A70FB89504A536031
S31508002CCC4F4ABB6893604E4A7B68D360FB7F1846B5
S31508002CDCFFF77AFFFB7F8EE0FB89002B13D00323CB
S31508002CECFB77474B0D221A70FB89454A5360444AB9
S31508002CFCBB689360424A7B68D360FB7F1846FFF734
S31508002D0C63FFFB7F77E0FB891846FFF749FFB8613D
S31508002D1CBB68002B05D0BB695B681A6ABB689A420C
S31508002D2C13D20823FB77364B0D221A70FB89344ACB
S31508002D3C5360334ABB689360314A7B68D360FB7F28
S31508002D4C1846FFF741FFFB7F55E07868B969FFF72E
S31508002D5C55FF0346082B13D10823FB77284B0D2266
S31508002D6C1A70FB89264A5360254ABB689360244A25
S31508002D7C7B68D360FB7F1846FFF726FFFB7F3AE09C
S31508002D8CFFF79EFE7861BB6993F82430002B16D0AA
S31508002D9C7869FFF7A5FE0723FB77194B0D221A70E6
S31508002DACFB89174A5360164ABB689360144A7B68BA
S31508002DBCD360FB7F1846FFF707FFFB7F1BE0BB6959
S31508002DCC012283F82420BB695B681846FFF7BAFE14
S31508002DDC0246BB695B681B6A10461946BA68FFF758
S31508002DECBDFE0246BB691A62BB697A689A61786944
S31508002DFCFFF776FEFB7F18462037BD4680BD00BF21
S31508002E0CEC20002080B588B000AFB9607A601A460D
S31508002E1C0346FB8113467B730023FB777B7B002BD6
S31508002E2C18D1FFF76BFE0346002B13D00D23FB7747
S31508002E3C494B0E221A70FB89474A5360464ABB68AF
S31508002E4C9360454A7B68D360FB7F1846FFF7BCFE48
S31508002E5CFB7F7DE0FB89002B13D00323FB773E4BCE
S31508002E6C0E221A70FB893C4A53603B4ABB68936036
S31508002E7C394A7B68D360FB7F1846FFF7A5FEFB7FB4
S31508002E8C66E0FB891846FFF78BFEB861BB695B6881
S31508002E9C1A6ABB689A4213D20823FB772E4B0E226A
S31508002EAC1A70FB892C4A53602B4ABB6893602A4AD2
S31508002EBC7B68D360FB7F1846FFF786FEFB7F47E0EF
S31508002ECC7868B969FFF79AFE0346082B13D10823CD
S31508002EDCFB77214B0E221A70FB891F4A53601E4A38
S31508002EECBB6893601C4A7B68D360FB7F1846FFF768
S31508002EFC6BFEFB7F2CE0FFF7E3FD7861BB6993F86B
S31508002F0C2430002B16D00723FB777869FFF7E8FDEA
S31508002F1C114B0E221A70FB890F4A53600E4ABB6876
S31508002F2C93600D4A7B68D360FB7F1846FFF74CFE0F
S31508002F3CFB7F0DE0BB69012283F82420BB69BA68C4
S31508002F4C1A62BB697A689A617869FFF7C9FDFB7FD3
S31508002F5C18462037BD4680BDEC20002080B584B0CD
S31508002F6C00AF78607B681B6BFB604DE0FB6893F8E1
S31508002F7C2430002B45D07B685A69FB681B6A9A4239
S31508002F8C3FD1FB6893F82830032B32D801A252F8AC
S31508002F9C23F000BFB12F0008C32F00080D3000081E
S31508002FACED2F0008FB685B8D1846FFF7C9FBF86820
S31508002FBCFFF744FE25E0FB68598DFB68D3E90C2323
S31508002FCC0846FEF753F80346FB72FB7A002B03D030
S31508002FDCFB7A1846FFF7F8FDF868FFF72FFE10E0A6
S31508002FECFB689B6B184600F00FF9F868FFF726FE8E
S31508002FFC07E0084808494FF40072FDF7A9FB00E002
S3150800300C00BFFB685B6CFB60FB68002BAED110370E
S3150800301CBD4680BD5C6600086066000880B584B055
S3150800302C00AF0023FB8130E0FB891846FFF7B8FD9B
S3150800303CB860BB681B6C002B24D0BB681B6C7B6010
S3150800304C154B9A6B7B68DB681340002B1AD07B6890
S3150800305C1B79002B0BD17B681A687B689B68F989EE
S3150800306C084611461A460123FFF7CCFE0AE07B6890
S3150800307C1A687B689B68F989084611461A46012323
S3150800308CFFF702FEFB890133FB81FB89002BCBD0B2
S3150800309C1037BD4680BD00BF0021002080B483B028
S315080030AC00AFEFF310833B603B687B6072B67B68BE
S315080030BC18460C37BD465DF8047B704780B485B05E
S315080030CC00AF78607B68FB60FB6883F31088143765
S315080030DCBD465DF8047B704780B400AF084B1A7880
S315080030EC084B1B781343DBB25BB2002B14BF0123CE
S315080030FC0023DBB21846BD465DF8047B704700BF5B
S3150800310CFD200020FC20002080B483B000AF78603E
S3150800311C7B681B6A18460C37BD465DF8047B7047FE
S3150800312C80B483B000AF78607A681346DB009B1ACC
S3150800313CDB00044A134418460C37BD465DF8047B7D
S3150800314C704700BF1800002080B487B000AFF86045
S3150800315CB9607A60BA68FB68D31A3B617A683B69CE
S3150800316C9A4204D8FA687B6813447B6106E0FA68CD
S3150800317CBB68D21A7B681344013B7B617B69184692
S3150800318C1C37BD465DF8047B704700BF80B483B01E
S3150800319C00AF0346FB80FA881346DB001344DB00BA
S315080031AC034A134418460C37BD465DF8047B704732
S315080031BC5000002080B582B000AF0346FB71094B66
S315080031CC5B6A002B0AD0074B5B6ADB68002B05D0C1
S315080031DC044B5B6ADB68FA79104698470837BD4694
S315080031EC80BD00BF0021002080B483B000AF78609A
S315080031FC7B68002B0CBF01230023DBB218460C3767
S3150800320CBD465DF8047B704790B587B000AF786013
S3150800321C0023FB75FFF760FF0346002B0DD00D232B
S3150800322CFB752A4B27221A70284A7B685360FB7D4C
S3150800323C1846FFF7BFFFFB7D44E07868FFF7D4FF1D
S3150800324C0346002B0DD10323FB75204B27221A703E
S3150800325C1E4A7B685360FB7D1846FFF7ABFFFB7D68
S3150800326C30E07868FFF75CFF38613B691B7C83F0BC
S3150800327C0103DBB2002B0DD00323FB75134B27225E
S3150800328C1A70124A7B685360FB7D1846FFF792FF4B
S3150800329CFB7D17E0FFF702FFF8603B695C6938694C
S315080032ACFFF732FF0346204619460122FFF74CFF6B
S315080032BC02463B695A613869FFF750FEF868FFF712
S315080032CCFDFEFB7D18461C37BD4690BDEC20002044
S315080032DC90B583B000AF0F4B1B681846FFF720FF5D
S315080032EC78600D4B9B6901330B4A93617B685C696B
S315080032FC7868FFF709FF0346204619460122FFF7AF
S3150800330C23FF02467B685A617868FFF727FE0C375D
S3150800331CBD4690BD500600200021002080B400AFA9
S3150800332C034B9B691846BD465DF8047B704700BF86
S3150800333C0021002080B584B000AF0020FFF726FFDF
S3150800334CB860BB685B687B607B6800221A630023E5
S3150800335CFB8111E0FB891846FFF718FFB860BB68BC
S3150800336C5B687B607B681A6BBB685A647B68BA6857
S3150800337C1A63FB890133FB81FB89002BEAD01037D2
S3150800338CBD4680BD80B483B000AF03463960FB717F
S3150800339C97F90730002B0BDA0D49FB7903F00F036D
S315080033AC043B3A68D2B21201D2B20B441A7609E03F
S315080033BC084997F907303A68D2B21201D2B20B44CF
S315080033CC83F800230C37BD465DF8047B704700BFB5
S315080033DC00ED00E000E100E080B582B000AF786057
S315080033EC7B68013BB3F1807F01D301230FE00A4AC6
S315080033FC7B68013B53604FF0FF300F21FFF7C2FF8C
S3150800340C054B00229A60044B07221A6000231846C3
S3150800341C0837BD4680BD00BF10E000E080B500AFA0
S3150800342C014800F0C7F980BDCC66000880B582B0AB
S3150800343C00AF78607868FFF7CFFF0837BD4680BDC8
S3150800344C80B400AF034B1B681846BD465DF8047B79
S3150800345C704700BF0021002080B400AF084B1A78D3
S3150800346C084B1B781343DBB25BB2002B14BF01234A
S3150800347C0023DBB21846BD465DF8047B704700BFD7
S3150800348CFD200020FC20002080B400AF044B002255
S3150800349C1A70044B00221A70BD465DF8047B7047FF
S315080034ACFD200020FC20002080B483B000AF78609B
S315080034BC07497A6813465B0013449B000B44083390
S315080034CC5B7818460C37BD465DF8047B704700BF21
S315080034DCEC56000880B485B000AF78600023FB7307
S315080034EC7B685B68BB60BB681B78422B0CBF0123EF
S315080034FC0023DBB2FB73FB7B18461437BD465DF81D
S3150800350C047B704780B485B000AF78600023FB73EA
S3150800351C7B685A687B689B681344BB60BB68013B35
S3150800352C1B78422B0CBF01230023DBB2FB73FB7BFE
S3150800353C18461437BD465DF8047B704780B582B0D3
S3150800354C00AF78607868FFF7C5FF0346002B05D0F7
S3150800355C7868FFF7D7FF0346002B02D10E20FDF73C
S3150800356CFFFF0837BD4680BD80B582B000AF034665
S3150800357CFB71094B5B6A002B0AD0074B5B6ADB684D
S3150800358C002B05D0044B5B6ADB68FA791046984722
S3150800359C0837BD4680BD00BF0021002080B584B029
S315080035AC00AF78607B68DB68FB6006E0F8687968D2
S315080035BC00F05AF8FB689B6AFB60FB68002BF5D198
S315080035CC1037BD4680BD00BF80B483B000AF7860AD
S315080035DC7B68DB68002B14BF01230023DBB218467B
S315080035EC0C37BD465DF8047B704700BF80B485B0C8
S315080035FC00AF78607B68DB881BB21033054AD35C56
S3150800360CFB81FB891BB218461437BD465DF8047B53
S3150800361C704700BF5406002080B485B000AF03463F
S3150800362C3960FB800023FB60FB880D4AD35C7B81E9
S3150800363C3B68FA881A807B89FF2B0AD07B89092B71
S3150800364C07D87A8913469B0013449B00054A1344F2
S3150800365CFB60FB6818461437BD465DF8047B70475B
S3150800366C54060020E023002080B582B000AF7860B5
S3150800367C39607B689B8B1A463B681B881BB29A423F
S3150800368C04D01C481C49B222FDF762F87B684FF639
S3150800369CFF729A837B689B7F022B27D03B68DB687B
S315080036AC002B04D115481449B722FDF751F83B688D
S315080036BC1B695B681A687B689A4204D010480E49E5
S315080036CCBC22FDF745F87B689B6A002B05D07B6806
S315080036DC9B6A7A68D26ADA6203E07B68DA6A3B68C4
S315080036EC1A617B68DB6A7A68926A1A600837BD4683
S315080036FC80BD00BFE4660008006700086467000820
S3150800370C9C6700082DE9F04184B002AF78600B463F
S3150800371C7B80B7F902201C4913469B0013449B0077
S3150800372C0B4408337A681A60B7F90220164913460F
S3150800373C9B0013449B000B447A881A807B68DB88B1
S3150800374C1BB210337A88D1B2104AD1547B68DE6822
S3150800375C7B68B3F806807B681B899DB27B685C79AD
S3150800376C7B681B691846FFF79FFE03461A460FFA35
S3150800377C88F30092304619462A46234600F06EFA1C
S3150800378C0837BD46BDE8F081E0230020540600202A
S3150800379C80B500AF00F040FA044B00221A800448AA
S315080037ACFF21542201F070FD80BD00BFD8230020F4
S315080037BC5406002080B584B000AF78607B68002B77
S315080037CC04D11F481F49F922FCF7C2FF7B68DB8826
S315080037DC1BB21033532B04D91B481A49FA22FCF78F
S315080037ECB7FF7868FFF702FF0346BB81B7F90C30C1
S315080037FCFF2B02D0BB89FB811BE0144B1B88FB817A
S3150800380C124B1B889BB29BB201339BB29AB20F4BDD
S3150800381C1A80B7F90E30092B05DD0D4809494FF406
S3150800382C8772FCF795FFB7F90E3078681946FFF7DB
S3150800383C69FFFB891BB218461037BD4680BD00BF11
S3150800384CE86700080067000800680008D82300200D
S3150800385C3868000880B483B000AF78607B68054A86
S3150800386C5A607B684FF400629A600C37BD465DF867
S3150800387C047B7047B024002080B586B000AF786012
S3150800388C0B467B8000237B6100233B610023FB6096
S3150800389C00237B817A8807F10A0310461946FFF73D
S315080038ACBBFE78617B69002B05D15948594940F212
S315080038BC9F12FCF74DFF7B699B681B89002B20D157
S315080038CC554B9B68FB60544A7B699360524B5B690A
S315080038DC0133514A536162B67B699B68DB6898472A
S315080038EC72B64D4B5B69013B4B4A53614A4AFB68BE
S315080038FC93607B899BB21BB2184600F0A5F97B68CE
S3150800390C81E07B699B681B891BB2012B05D0434858
S3150800391C404940F2AF12FCF71BFF3F4B5A69404B2C
S3150800392C1B681344002B2ED13B4B1B689B8903F059
S3150800393C0803002B05D13B48364940F2B912FCF76F
S3150800394C07FF354B1B689B6A012B05D03648314956
S3150800395C40F2B912FCF7FCFE2F4B1B6800229A6248
S3150800396C2D4B5B6A5B69002B03D02B4B5B6A5B693F
S3150800397C9847FFF765FD38613B6901229A813869DA
S3150800398CFFF7DCFD06E0264B1B68012B02D0224B09
S3150800399C9B68FB60204B5B6901331F4A53617B694B
S315080039AC01225A601C4A7B69936062B67B699B68E4
S315080039BCDB68984772B6FFF74FFD0346002B04D019
S315080039CCFFF762FD0D20FFF7CFFD7869FFF7FCFDC9
S315080039DC0346012B05D17869FFF7E0FD0620FFF7B2
S315080039ECC3FD7B6902225A600B4A7B6993607B890B
S315080039FC9BB21BB2184600F027F9074B5B69013BD3
S31508003A0C054A5361002318461837BD4680BD00BFCA
S31508003A1CE8670008006700080021002048680008CD
S31508003A2C60210020646800089868000880B483B098
S31508003A3C00AF0023FB802BE0FB88194A4C2101FBC5
S31508003A4C03F31344083300221A70F988FA881548C8
S31508003A5C13465B0013449B00034408331878104A3A
S31508003A6C4C2303FB01F3134402461A70F988FA88AF
S31508003A7C0C4813465B0013449B0003441A68084819
S31508003A8C4C2303FB01F303445A60FB880133FB8088
S31508003A9CFB88002BD0D00C37BD465DF8047B7047ED
S31508003AACB02C0020EC56000880B584B000AF7860C6
S31508003ABC39600423FB73114B5B6A002B15D00F4B33
S31508003ACC5B6A1B68002B10D07868FDF77BF90346F8
S31508003ADCBB73BB7BFF2B08D0084B5B6A1B68BA7B96
S31508003AEC104698470346FB73FFE7FB7B002B02D077
S31508003AFC1F20FDF735FD1037BD4680BD002100207F
S31508003B0C80B485B000AF78607B6803F00703FB6070
S31508003B1C0C4BDB68BB60BA684FF6FF031340BB60FF
S31508003B2CFB681A02BB68134343F0BF6343F40033C4
S31508003B3CBB60044ABB68D3601437BD465DF8047B8A
S31508003B4C704700BF00ED00E080B483B000AF0346B9
S31508003B5C3960FB7197F90730002B0BDA0D49FB79A5
S31508003B6C03F00F03043B3A68D2B21201D2B20B44EB
S31508003B7C1A7609E0084997F907303A68D2B2120161
S31508003B8CD2B20B4483F800230C37BD465DF8047B90
S31508003B9C704700BF00ED00E000E100E080B582B0A0
S31508003BAC00AF0346FB71FB791F2B04D9074808495C
S31508003BBC2922FCF7CDFDFB795B08DBB2C3F10F03B9
S31508003BCCDBB218460837BD4680BD00BFC068000882
S31508003BDCC868000880B582B000AF03463960FB712F
S31508003BEC97F9073018463968FFF7AEFF97F907308B
S31508003BFC002B0CDB074AFB795B09DBB21846FB7911
S31508003C0C03F01F03012101FA03F342F820300837A9
S31508003C1CBD4680BD00E100E080B500AF0020FFF78F
S31508003C2C6FFF1420FFF7BAFF03466FF00100194621
S31508003C3CFFF78AFF034A034B5B6863F0FF03536085
S31508003C4C80BD00BF002004E080B483B000AF0346FB
S31508003C5CFB800C37BD465DF8047B704790B585B084
S31508003C6C00AFF860084611461A4603467B810B4698
S31508003C7C3B811346FB71B7F90A30532B28DC3B8979
S31508003C8C002B0FD1FB79152B04D8154815497C2226
S31508003C9CFCF75EFDB7F90A3010331349FA6841F898
S31508003CAC232007E0FB79132B04D910480D497F22F2
S31508003CBCFCF74EFD7B89DCB2FB791846FFF76EFFE5
S31508003CCC03461A4663B218461146FFF783FF04E00B
S31508003CDC074804498622FCF73BFD1437BD4690BDC0
S31508003CEC38690008C8680008FC2C00204C690008D4
S31508003CFC5C69000880B400AF72B6064B1B78DBB261
S31508003D0CDBB20133DBB2DAB2024B1A70BD465DF890
S31508003D1C047B7047FC20002080B400AF0A4B1B784C
S31508003D2C002B0DD0084B1B78DBB2DBB2013BDBB2A8
S31508003D3CDAB2054B1A70044B1B78002B00D162B60D
S31508003D4CBD465DF8047B7047FC20002080B483B028
S31508003D5C00AF00237B6026E01A497A6813465B009D
S31508003D6C13445B000B4400221A8016497A681346E2
S31508003D7C5B0013445B000B4400229A7011497A6865
S31508003D8C13465B0013445B000B440022DA700D49A2
S31508003D9C7A6813465B0013445B000B4400221A71C5
S31508003DAC7B6801337B607B680F2BD5D9064B0022C9
S31508003DBC1A60064B01221A700C37BD465DF8047B57
S31508003DCC704700BF04400020004000204C2E002005
S31508003DDC90B585B000AF0446084611461A462346E8
S31508003DECFB8003467B710B463B711346FB70002325
S31508003DFCFB73224B1B78022B3BD1FFF77BFF204B27
S31508003E0C1B680F2B33D81E4B1A681E4913465B00CA
S31508003E1C13445B000B44FA881A80194B1A68194923
S31508003E2C13465B0013445B000B447A799A70144B67
S31508003E3C1A68144913465B0013445B000B443A7921
S31508003E4CDA700F4B1A680F4913465B0013445B0074
S31508003E5C0B44FA781A710A4B1B680133084A13602B
S31508003E6C074B1B68102B02D1054B00221A60FFF773
S31508003E7C53FFFB7B18461437BD4690BD4C2E0020CD
S31508003E8C004000200440002080B400AF034B0222FF
S31508003E9C1A70BD465DF8047B704700BF4C2E002097
S31508003EAC80B582B000AF0346FB71FB79184601F06A
S31508003EBC03F80837BD4680BD80B584B000AF78607E
S31508003ECC39600023FB6009E07B685A1C7A601B7812
S31508003EDC1846FFF7E5FFFB680133FB60FA683B6899
S31508003EEC9A42F1D33B6818461037BD4680BD00BFD1
S31508003EFC80B485B000AFF860B9607A6000231846C4
S31508003F0C1437BD465DF8047B704700BF80B483B098
S31508003F1C00AF78607B68042B0BDC09497A6813467A
S31508003F2C9B001344DB000B441B68002B01D00123B8
S31508003F3C00E0002318460C37BD465DF8047B704735
S31508003F4C0001002080B483B000AF78607B681B68E2
S31508003F5C18460C37BD465DF8047B704790B58BB098
S31508003F6C00AFF860B9607A6000237B62F868FFF7E7
S31508003F7CCDFF0346002B01D1092346E02549FA68F3
S31508003F8C13469B001344DB000B4410335B683B62FF
S31508003F9C3B6A5B68012B08D13B6AFB61FB699B6A30
S31508003FACB8687968984778622EE03B6A5B68022B9A
S31508003FBC2AD13B6ABB61FA6813469B001344DB00A3
S31508003FCC144A13447B61BB69DC69B8697969BA68B8
S31508003FDC7B68A04778627B6A002B06DA01F04EF9FB
S31508003FEC02467B6A5B4213600EE07B69DA697B6882
S31508003FFC1A447B69DA617B695A6A7B69DB699A427E
S3150800400C38BF1A467B695A627B6A18462C37BD46F6
S3150800401C90BD00BF0001002080B584B000AF786069
S3150800402C39607B68DBB2FB723868FFF78BFFF86088
S3150800403C07F10B03F8681946012201F0A5FA7B680B
S3150800404C18461037BD4680BD80B582B000AF786083
S3150800405C396007E07B685A1C7A601B781846396801
S3150800406CFFF7DAFF7B681B78002BF3D10023184681
S3150800407C0837BD4680BD00BF0FB480B582B000AF0F
S3150800408C07F114033B60084B1B685B6818463969D3
S3150800409C3A6800F00BF878607B6818460837BD4616
S315080040ACBDE8804004B07047D401002080B588B0C4
S315080040BC02AFF860B9607A607B680093F8680021F3
S315080040CC4FF0FF32BB6800F0D5F878617B6918466B
S315080040DC1837BD4680BD00BF80B584B000AFF86008
S315080040ECB9603B601346FB713B681B68012B01D119
S315080040FC01231AE03B681B685A1E3B681A60BB68AA
S3150800410C002B08D1FA790B4B1B685B6810461946CD
S3150800411CFFF782FF08E0BB681B68FA791A70BB6860
S3150800412C1B685A1CBB681A60012318461037BD4613
S3150800413C80BD00BFD401002080B588B000AFF86000
S3150800414CB9607A603B607B68BB61BB6A03F00203AB
S3150800415C002B01D0302300E02023FB75BB6A03F04B
S3150800416C1003002B25D00023FB610CE0FB69BA6910
S3150800417C13441B78F868B9681A46FB6AFFF7ACFF54
S3150800418CFB690133FB61FB69BA6913441B78002B85
S3150800419CECD109E0FB7DF868B9681A46FB6AFFF7AB
S315080041AC9BFFFB690133FB61FA693B689A42F1DBB9
S315080041BC2FE0786801F014F903463B613A683B69CD
S315080041CC9A4212DD0023FB6109E0FB7DF868B968A9
S315080041DC1A46FB6AFFF780FFFB690133FB613A68F5
S315080041EC3B69D21AFB699A42EFDC0023FB610CE0AF
S315080041FCFB697A6813441B78F868B9681A46FB6A2F
S3150800420CFFF76AFFFB690133FB61FA693B699A425E
S3150800421CEEDB2037BD4680BD80B58AB002AFF860AC
S3150800422CB9607A603B6007F11003FB61FB6A03F027
S3150800423C2003002B09D07A687B68DB0FDBB21046AB
S3150800424CF9693A6800F064F906E07B681846F9697A
S3150800425C3A68002300F05CF9FB6A00933B6B019308
S3150800426CF868B968FA69BB6AFFF766FF2037BD4676
S3150800427C80BD00BF80B590B004AFF860B9607A60B5
S3150800428C3B607B687B6120E197F82F30252B40F04B
S3150800429C12813B685A1C3A601B7887F82F3097F8BE
S315080042AC2F30252B08D197F82F2007F11403F8681F
S315080042BCB968FFF711FF08E197F82F30302B02D1B8
S315080042CC0223BB6212E097F82F30202B02D1082369
S315080042DCBB620BE097F82F302D2B02D11023BB6253
S315080042EC04E00023BB623B68013B3B603B685A1CFD
S315080042FC3A601B7887F82F3097F82F302F2B33D945
S3150800430C97F82F30392B2FD80123FB6197F82F30CC
S3150800431C3B740BE0FB695A1CFA613A68511C39600C
S3150800432C127807F130010B4403F8202C3B681B78F4
S3150800433C2F2B03D93B681B78392BEBD907F11002C5
S3150800434CFB69134400221A7007F110031846002162
S3150800435C0A2201F00DF903463B623B685A1C3A6087
S3150800436C1B7887F82F3001E000233B6297F82F3033
S3150800437C682B07D097F82F306C2B03D097F82F3073
S3150800438C4C2B05D13B685A1C3A601B7887F82F30A2
S3150800439C97F82F30632B0BD1BB6B1A1DBA631B68AE
S315080043ACDAB207F11403F868B968FFF795FE8CE0E2
S315080043BC97F82F30642B14D1BB6A43F02003BB62E9
S315080043CCBB6B1A1DBA631A683B6A0093BB6A0193E6
S315080043DC07F114030293F868B9680A23FFF71CFF60
S315080043EC73E097F82F30752B14D1BB6A43F0400352
S315080043FCBB62BB6B1A1DBA631A683B6A0093BB6A2D
S3150800440C019307F114030293F868B9680A23FFF7B6
S3150800441C03FF5AE097F82F30782B14D1BB6A43F078
S3150800442C4003BB62BB6B1A1DBA631A683B6A0093DE
S3150800443CBB6A019307F114030293F868B968102351
S3150800444CFFF7EAFE41E097F82F30702B14D1BB6AC0
S3150800445C43F08003BB62BB6B1A1DBA631A683B6ACE
S3150800446C0093BB6A019307F114030293F868B968C1
S3150800447C1023FFF7D1FE28E097F82F30732B15D1B0
S3150800448CBB6B1A1DBA631B687B627B6A002B01D156
S3150800449C1E4B7B62BB6A009307F114030193F86801
S315080044ACB9687A6A3B6AFFF747FE0EE097F82F3031
S315080044BC2E2B0AD11AE70023BB6297F82F2007F197
S315080044CC1403F868B968FFF707FE3B685A1C3A608C
S315080044DC1B7887F82F3097F82F30002B7FF4D4AE43
S315080044EC7B691A467B689B1ABB61BB68002B08D094
S315080044FC00237B6107F11403F868B9680022FFF7FB
S3150800450CEBFDBB6918463037BD4680BDE869000827
S3150800451C80B489B000AFF860B9607A603B60BB685C
S3150800452CBB613B68002B02D0FB685B42FB607B6877
S3150800453C092B06DC7B68102B03DDBB6830221A704E
S3150800454C41E00023FB61FB695A1CFA611A46BB68F9
S3150800455C99187A68FB68B3FBF2F002FB00F29B1A17
S3150800456C1B4AD35C0B707B68FA68B2FBF3F3FB60EF
S3150800457CFB68002BE7D13B68002B07D0FB695A1C5C
S3150800458CFA611A46BB6813442D221A70FB69BA687D
S3150800459C134400221A70FB69013BBA681344BB60CA
S315080045AC0DE0BB681B78FB75BB685A1EBA60BA6906
S315080045BC12781A70BB695A1CBA61FA7D1A70BA68F5
S315080045CCBB699A42EDD82437BD465DF8047B704723
S315080045DCF069000880B489B000AF786039600023B0
S315080045ECFB6100233B610023BB610023FB600023B6
S315080045FC7B610023BB603B68DB7803F00F03FB6130
S3150800460C3B68DB7803F01003002B05D03B689B78DE
S3150800461C1A46FB691343FB613B681B88DBB2002B0C
S3150800462C44D07B681B687B610023BB6138E0BB699F
S3150800463C012202FA03F3FB603B681B881A46FB68E7
S3150800464C13403B613A69FB689A4226D1BB699B00C9
S3150800465CFB60FB680F2202FA03F3BB60BB68DB4303
S3150800466C7A6913407B61FB68FA6902FA03F37A6983
S3150800467C13437B613B68DB78282B05D1BB69012288
S3150800468C9A407B685A6108E03B68DB78482B04D172
S3150800469CBB6901229A407B681A61BB690133BB610D
S315080046ACBB69072BC3D97B687A691A603B681B8878
S315080046BCFF2B4AD97B685B687B610023BB613EE0B4
S315080046CCBB6908331A4601239340FB603B681B8879
S315080046DC1A46FB6813403B613A69FB689A422BD130
S315080046ECBB699B00FB60FB680F2202FA03F3BB60F5
S315080046FCBB68DB437A6913407B61FB68FA6902FA8B
S3150800470C03F37A6913437B613B68DB78282B07D163
S3150800471CBB6908331A46012303FA02F27B685A610D
S3150800472C3B68DB78482B07D1BB6908331A4601234B
S3150800473C03FA02F27B681A61BB690133BB61BB6978
S3150800474C072BBDD97B687A695A602437BD465DF854
S3150800475C047B704780B487B000AF78600B46FB705B
S3150800476C00233B610023FB6000237B610023BB60B5
S3150800477C7B68002B03DA2E4BDB697B6102E02C4B42
S3150800478C5B687B617B6803F470231B0CBB607B68DE
S3150800479C9BB23B617B6803F44013B3F5401F0AD107
S315080047AC7B6923F070637B61214A214B5B6823F09C
S315080047BC7063536021E07B6803F48013002B0ED0E2
S315080047CCBB68032202FA03F3FB60FB68DB437A69D6
S315080047DC13407B617B6943F070637B610DE07B68FA
S315080047EC5B0D1B011A463B699340DB437A69134000
S315080047FC7B617B6943F070637B61FB78002B08D087
S3150800480C7B685B0D1B011A463B6993407A69134317
S3150800481C7B617B68002B03DA054A7B69D36102E06E
S3150800482C034A7B6953601C37BD465DF8047B7047A9
S3150800483C0000014080B400AFBFF34F8F0549054B0C
S3150800484CDB6803F4E062044B1343CB60BFF34F8F72
S3150800485C00BFFDE700ED00E00400FA0580B485B062
S3150800486C00AF78600023FB6015E01049FA68134620
S3150800487C5B0013449B000B445A687B689A4207D129
S3150800488CFA6813465B0013449B00084A134406E077
S3150800489CFB680133FB60FB68012BE6D9002318463D
S315080048AC1437BD465DF8047B704700BF386A0008AC
S315080048BC80B582B000AF064B1B687B607868FFF743
S315080048CCCDFF3860002318460837BD4680BD00BFAB
S315080048DC00ED00E080B483B000AF0346FB71FB79B2
S315080048EC023B9B0418460C37BD465DF8047B7047A3
S315080048FC80B483B000AF0346FB71FB79023B1B0205
S3150800490C18460C37BD465DF8047B704780B584B0F5
S3150800491C00AF78600023FB600023BB604E4A4E4B09
S3150800492C1B6843F4803313604B4B1B6803F400334A
S3150800493CBB60FB680133FB60BB68002B03D1FB68CB
S3150800494CB3F5A06FF0D1444B1B6803F40033002B6E
S3150800495C02D00123BB6001E00023BB60BB68012BBE
S3150800496C75D13E4A3D4B1B6843F0100313603B4A16
S3150800497C3A4B1B6823F003031360384A374B1B6802
S3150800498C43F002031360344A334B5B685360324A74
S3150800499C314B5B685360304A2F4B5B6843F480633A
S315080049AC53602D492C4BDA6A2D4B1340CB627B682E
S315080049BC5B791846FFF79CFF034643F4803343F0B4
S315080049CC44032549244AD26A1343CB62224A224B12
S315080049DC1B6843F08063136000BF1F4B1B6803F012
S315080049EC0063002BF9D01C4A1B4B5B6823F47C1321
S315080049FC53607B681B791846FFF76CFF034643F434
S31508004A0C80331549144A526813434B60124A124BA9
S31508004A1C1B6843F08073136000BF0F4B1B6803F0D1
S31508004A2C0073002BF9D00C4A0B4B5B6823F003037D
S31508004A3C5360094A084B5B6843F00203536000BF96
S31508004A4C054B5B6803F00C03082BF9D101E0FFF763
S31508004A5CF1FE1037BD4680BD001002400020024012
S31508004A6C00F0FEFF80B400AF0C490C4B5A690C4B96
S31508004A7C1B6813434B610949084BDA69084B5B6899
S31508004A8C1343CB610549054B9A69054B9B68134340
S31508004A9C8B61BD465DF8047B704700BF0010024071
S31508004AACB45E000880B582B000AF7860194A194B1D
S31508004ABC1B6843F0010313601649164B5A68164BCC
S31508004ACC13404B60134A134B1B6823F0847323F46F
S31508004ADC803313600F4A0F4B1B6823F48023136033
S31508004AEC0C4A0C4B5B6823F4FE035360094A094BCA
S31508004AFC1B6823F0A0531360064B4FF47F029A6091
S31508004B0C044B0022DA627868FFF700FF0837BD46C7
S31508004B1C80BD00BF001002400000FFF080B582B0D7
S31508004B2C00AF78607B68002B06D165200021002237
S31508004B3C0A23FFF74DF90DE0FFF7BAFE07480021E7
S31508004B4C082200F0A1FB62B6054A7B685360044B49
S31508004B5C01221A700837BD4680BD00BFF00100203F
S31508004B6CE401002080B584B000AF0346FB71194BF5
S31508004B7C1B78012B07D06520002102220F23FFF793
S31508004B8C27F9012322E0134B5B689B78FA799A4242
S31508004B9C07D36520002102220B23FFF719F90123FD
S31508004BAC14E00C4AFB7913720A4B5B685A68094B7A
S31508004BBC1B7A19460B465B000B449B001344FB609F
S31508004BCCF868FFF76FFFFFF74DFF002318461037FD
S31508004BDCBD4680BDE401002080B500AF074B1B78AD
S31508004BEC012B07D06520002103220F23FFF7F0F8CD
S31508004BFC012300E00023184680BD00BFE401002015
S31508004C0C80B582B000AF0E4B1B78012B07D0652000
S31508004C1C002104220F23FFF7DBF802230BE0094BD4
S31508004C2C1B6803F00073002B02D00023FB7101E014
S31508004C3C0123FB71FB7918460837BD4680BD00BFBA
S31508004C4CE40100200010024080B582B000AF174B7B
S31508004C5C1B78012B07D06520002105220F23FFF7AF
S31508004C6CB7F803231DE0124B5B6A3B603B6803F005
S31508004C7C8053002B02D00223FB7111E03B6803F032
S31508004C8CC043002B02D00123FB7109E03B6803F0FB
S31508004C9C0063002B02D00023FB7101E00323FB7198
S31508004CACFB7918460837BD4680BD00BFE4010020D5
S31508004CBC0010024080B485B000AF1F4B5B685A6881
S31508004CCC1D4B1B7A19460B465B000B449B00134481
S31508004CDC1B68FB60184B5B685A68174B1B7A19469E
S31508004CEC0B465B000B449B0013441B79BB60124BB1
S31508004CFC5B685A68104B1B7A19460B465B000B44CB
S31508004D0C9B0013445B797B60FB680C4AA2FB03236C
S31508004D1C9B087A6802FB03F3084AA2FB03239B0849
S31508004D2CBA6802FB03F33B603B6818461437BD466A
S31508004D3C5DF8047B704700BFE4010020CDCCCCCCD9
S31508004D4C80B586B000AF78600023FB7426E0FB7C48
S31508004D5C254A52F82330FB607B685A68FB7CDB00DB
S31508004D6C13441A68FB681A60FB6804337A6851683E
S31508004D7CFA7CD20004320A4412681A60FB7C1B4A7D
S31508004D8C52F82330FB607B689A68FB7C5B00134403
S31508004D9CFA681B881380FB7C0133FB74FB7C9AB284
S31508004DAC7B681B889A42D2D300237B610CE07B6814
S31508004DBC1A697B699B0013441B6818460121FFF787
S31508004DCCC9FC7B6901337B617B689B891A467B69C5
S31508004DDC9A42ECD8064B01221A70064A7B68136075
S31508004DEC00BF1837BD4680BD506A00086C6A0008BB
S31508004DFC502E0020542E002080B586B000AF01201E
S31508004E0C0121FBF787FC4FF480400121FBF782FC5C
S31508004E1C04200121FFF79EFC4023BB801823FB715D
S31508004E2C0323BB713B1D22481946FFF7D3FB80238E
S31508004E3CBB800423FB713B1D1D481946FFF7CAFBB3
S31508004E4C4FF4E133BB600023BB810023FB810023B5
S31508004E5C3B820023BB820C237B8207F1080315488F
S31508004E6C194600F03BF8134840F22551012200F090
S31508004E7C0FF91048012100F0EBF84FF00060002103
S31508004E8C00F0D4F94FF4C06000F05CF925233B70B0
S31508004E9C01237B700023BB700123FB703B4618462D
S31508004EAC00F062F9034B34229A801837BD4680BD50
S31508004EBC000C01400038014080B582B000AF0346B3
S31508004ECCFB71FB799BB20448194600F029F9FB796A
S31508004EDC18460837BD4680BD0038014080B58CB0F1
S31508004EEC00AF786039600023FB620023BB620023A5
S31508004EFC7B6200233B620023FB617B68FB617B685A
S31508004F0C1B8A9BB2FB62FA6A4CF6FF731340FB6270
S31508004F1C3B68DB881A46FB6A1343FB62FB6A9AB248
S31508004F2C7B681A827B689B899BB2FB62FA6A4EF68F
S31508004F3CF3131340FB623B689A883B681B8913433F
S31508004F4C9AB23B685B8913439BB21A46FB6A1343B6
S31508004F5CFB62FB6A9AB27B689A817B689B8A9BB2D6
S31508004F6CFB62FA6A4FF6FF431340FB623B689B8968
S31508004F7C1A46FB6A1343FB62FB6A9AB27B689A82EF
S31508004F8C07F108031846FBF7E3FAFB692E4A934226
S31508004F9C02D17B69BB6201E03B69BB627B689B897A
S31508004FAC9BB29BB21BB2002B0CDABA6A13469B0057
S31508004FBC13449A001A443B681B685B00B2FBF3F374
S31508004FCC7B620BE0BA6A13469B0013449A001A4498
S31508004FDC3B681B689B00B2FBF3F37B627B6A1B4A3C
S31508004FECA2FB03235B091B01FB62FB6A1B096422F8
S31508004FFC02FB03F37A6AD31A3B627B689B899BB2E2
S3150800500C9BB21BB2002B0CDA3B6ADB0032330F4A1D
S3150800501CA2FB03235B0903F00703FA6A1343FB623B
S3150800502C0BE03B6A1B013233084AA2FB03235B09DC
S3150800503C03F00F03FA6A1343FB62FB6A9AB27B68A6
S3150800504C1A813037BD4680BD003801401F85EB51AB
S3150800505C80B483B000AF78600B46FB70FB78002BEE
S3150800506C08D07B689B899BB243F400539AB27B6841
S3150800507C9A8107E07B689B899BB223F400539AB20A
S3150800508C7B689A810C37BD465DF8047B704700BF78
S3150800509C80B487B000AF78600B467B8013467B7074
S315080050AC00233B610023FB600023BB6000237B616C
S315080050BC7B687B617B88DBB25B09DBB23B617B88F7
S315080050CC03F01F03FB60FB68012202FA03F3BB60C3
S315080050DC3B69012B03D17B690C337B6109E03B6986
S315080050EC022B03D17B6910337B6102E07B69143395
S315080050FC7B617B78002B06D07B697A691168BA6864
S3150800510C0A431A6006E07B697A691168BA68D24361
S3150800511C0A401A601C37BD465DF8047B704700BF11
S3150800512C80B483B000AF78600B467B807B88C3F372
S3150800513C08039AB27B689A800C37BD465DF8047BE7
S3150800514C704700BF80B483B000AF7860054A7B68AF
S3150800515C43F0BF6343F40033D3600C37BD465DF8A8
S3150800516C047B704700ED00E080B487B000AF786030
S3150800517C00237B6100233B610F23FB607B68DB7894
S3150800518C002B3AD0274BDB68DB4303F4E0631B0A9E
S3150800519C7B617B69C3F104033B617B69FA6822FA7C
S315080051AC03F3FB607B685B781A463B6902FA03F3E8
S315080051BC7B617B689B781A46FB6813407A691343B4
S315080051CC7B617B691B017B61174A7B681B78796954
S315080051DCC9B213440A4683F80023134A7B681B7822
S315080051EC5B09DBB218467B681B7803F01F030121A9
S315080051FC01FA03F342F820300FE00B497B681B7861
S3150800520C5B09DBB218467B681B7803F01F03012287
S3150800521C9A4000F1200341F823201C37BD465DF85F
S3150800522C047B704700ED00E000E100E080B483B039
S3150800523C00AF7860396007493B6823F0604323F078
S3150800524C7F037A6813438B600C37BD465DF8047B85
S3150800525C704700BF00ED00E080B483B000AF786003
S3150800526C054A7B681360044B01221A710C37BD463C
S3150800527C5DF8047B704700BF582E0020014B186858
S3150800528C704700BFF801002070B4840746D0541E3E
S3150800529C002A41D0CDB2034602E0621EE4B314469E
S315080052AC03F8015B9A07F8D1032C2ED9CDB245EA3F
S315080052BC05250F2C45EA054519D9264603F1100292
S315080052CC103E0F2E42F8105C42F80C5C42F8085C53
S315080052DC42F8045C02F11002F2D8A4F1100222F092
S315080052EC0F0204F00F041032032C13440DD91E467A
S315080052FC2246043A032A46F8045BFAD8221F22F0FF
S3150800530C03020432134404F003042CB1C9B21C443E
S3150800531C03F8011BA342FBD170BC70471446034625
S3150800532CC2E700BF80EA0102844612F0030F4FD190
S3150800533C11F0030F32D14DF8044D11F0040F51F84A
S3150800534C043B0BD0A3F101329A4312F0803F04BF01
S3150800535C4CF8043B51F8043B16D100BF51F8044BEA
S3150800536CA3F101329A4312F0803FA4F101320BD11A
S3150800537C4CF8043BA24312F0803F04BF51F8043B9F
S3150800538C4CF8044BEAD023460CF8013B13F0FF0FFC
S3150800539C4FEA3323F8D15DF8044B704711F0010F2F
S315080053AC06D011F8012B0CF8012B002A08BF704700
S315080053BC11F0020FBFD031F8022B12F0FF0F16BFF7
S315080053CC2CF8022B8CF8002012F47F4FB3D17047BF
S315080053DC11F8012B0CF8012B002AF9D1704700BFE4
S315080053EC20F0030110F00300C0F1000051F8043B53
S315080053FC00F1040C4FEACC0C6FF000021CBF22FA29
S3150800540C0CF213434FF0010C4CEA0C2C4CEA0C4CE6
S3150800541CA3EB0C0222EA030212EACC1204BF51F8DF
S3150800542C043B0430F4D0C2F1000102EA0102B2FADC
S3150800543C82F2C2F11F0200EBD20070472DE9F04F41
S3150800544C494C0F46D4F800E000E027463C4614F8D1
S3150800545C015B0EEB0506767806F0080606F0FF08E3
S3150800546C002EF2D12D2D51D02B2D04BF7D78BC1CCE
S3150800547C5BB1102B5BD04FF0FF39B9FBF3F903FB8B
S3150800548C09FB9A466FEA0B0B07E0302D43D00A232B
S3150800549C9A46DFF8D8904FF0050B0027BC460CE06F
S315080054AC303DAB4219DD7E1C05D0CC4524D821D025
S315080054BC0AFB0C5C012714F8015B0EEB05067678E3
S315080054CC16F0040FECD116F0030606D0012E0CBF0D
S315080054DC37265726AD1BAB42E5DC002F11DBC8F18E
S315080054EC00008CEA000040444AB107B1611E116005
S315080054FCBDE8F08F5D45DBDD4FF0FF37DBE7BDE838
