S011000048656C6C6F576F726C642E733139E7
S31508000000406C00209D220008014500088145000833
S3150800001099450008AD450008C145000800000000E4
S315080000200000000000000000000000001123000886
S315080000301123000800000000E97E00082D7F000853
S315080000402D7F00082D7F00082D7F00082D7F0008D2
S315080000502D7F00082D7F00082D7F00082D7F0008C2
S315080000602D7F00082D7F00082D7F00082D7F0008B2
S315080000702D7F00082D7F00082D7F00082D7F0008A2
S315080000802D7F00082D7F00082D7F00082D7F000892
S315080000902D7F00082D7F00082D7F00082D7F000882
S315080000A02D7F00082D7F00082D7F00082D7F000872
S315080000B02D7F00082D7F00082D7F00082D7F000862
S315080000C02D7F00082D7F00082D7F00082D7F000852
S315080000D02D7F00082D7F00082D7F00082D7F000842
S315080000E02D7F00082D7F00082D7F00082D7F000832
S315080000F02D7F00082D7F00082D7F00082D7F000822
S315080001002D7F00082D7F00082D7F00082D7F000811
S315080001102D7F00082D7F00082D7F00082D7F000801
S315080001202D7F00082D7F00082D7F00082D7F0008F1
S315080001302D7F00082D7F00082D7F00082D7F0008E1
S315080001402D7F00082D7F00082D7F00082D7F0008D1
S315080001502D7F00082D7F00082D7F00082D7F0008C1
S315080001602D7F00082D7F00082D7F00082D7F0008B1
S315080001702D7F00082D7F00082D7F00082D7F0008A1
S311080001802D7F00082D7F00082D7F000849
S3150800018C80B582B000AF4FF03F004FF0000107F08A
S3150800019C2BFA3B460220194607F06CFBD7E90023DD
S315080001AC4FF004004FF0000102EA000203EA0103D3
S315080001BC13431CD0904B1B78062B18D08E4B5A78B1
S315080001CC8D4B9A708C4B06225A708B4B9B78042B52
S315080001DC01D101F05DF9884B9B78042B01D101F014
S315080001EC11F9854B9B78042B01D101F081F9D7E9DC
S315080001FC00234FF008004FF0000102EA000203EA60
S3150800020C010313430AD07D4B1B78FF2B06D07B4B7F
S3150800021C5A787A4B9A70794BFF225A70D7E9002391
S3150800022C4FF020004FF0000102EA000203EA010336
S3150800023C13430AD0724B1B78032B06D0704B5A7893
S3150800024C6F4B9A706E4B03225A70D7E900234FF006
S3150800025C10004FF0000102EA000203EA01031343FF
S3150800026C07D04FF010004FF0000107F08FFB01F09C
S3150800027CFBF8D7E900234FF002004FF0000102EA21
S3150800028C000203EA0103134307D04FF002004FF0B4
S3150800029C000107F07BFB01F001F9D7E900234FF0C9
S315080002AC01004FF0000102EA000203EA01031343BE
S315080002BC07D04FF001004FF0000107F067FB01F083
S315080002CC23F9D7E900234FF004004FF0000102EAA6
S315080002DC000203EA010313430DD0474B5B78062B48
S315080002EC09D1454B1A78444B5A70434B06221A705F
S315080002FC414B0122DA70D7E900234FF008004FF082
S3150800030C000102EA000203EA0103134313D03B4B34
S3150800031C5B78FF2B0FD1394B1B78012B01D101F0E0
S3150800032CBDF8364B1A78354B5A70344BFF221A7077
S3150800033C324B0122DA70D7E900234FF020004FF038
S3150800034C000102EA000203EA0103134313D02C4B03
S3150800035C5B78032B0FD12A4B1B78002B01D101F0AC
S3150800036CC1F8274B1A78264B5A70254B03221A705C
S3150800037C234B0122DA70D7E900234FF004004FF023
S3150800038C000102EA000203EA0103134305D04FF009
S3150800039C04004FF0000107F0F9FAD7E900234FF0F3
S315080003AC08004FF0000102EA000203EA01031343B6
S315080003BC05D04FF008004FF0000107F0E7FAD7E92F
S315080003CC00234FF020004FF0000102EA000203EA76
S315080003DC0103134305D04FF020004FF0000107F03E
S315080003ECD5FA054B0022DA70044B0022DA70044B5E
S315080003FC0022DA70C7E600BF300900202409002065
S3150800040C2009002080B500AF00F080F800F084F8D1
S3150800041C00F0E8FE384B01225A70374B03221A704B
S3150800042C354B03229A70344B0022DA70334B052273
S3150800043C5A70324B07221A70304B07229A702F4B80
S3150800044C0022DA702D4B01225A712C4B02221A719A
S3150800045C2A4B02229A71294B0022DA71274B0A225F
S3150800046C5A72264B0C221A72244B0C229A72234B64
S3150800047C0022DA72214B01225A73204B02221A737C
S3150800048C1E4B02229A731D4B0022DA731B4B002259
S3150800049C5A741A4B01221A74184B01229A74174B68
S315080004AC0022DA74164B04225A70154B06221A705F
S315080004BC134B06229A70124B0022DA70114B032248
S315080004CC5A70104BFF221A700E4BFF229A700D4B66
S315080004DC0022DA700B4B03225A710A4BFF221A714F
S315080004EC084BFF229A71074B0022DA71064B012240
S315080004FC1A700023184680BD200900200C0900201C
S3150800050C30090020240900200009002080B400AF1F
S3150800051CBD465DF8047B704780B400AFBD465DF8F8
S3150800052C047B704780B400AF72B6064B1B78DBB2FF
S3150800053CDBB20133DBB2DAB2024B1A70BD465DF898
S3150800054C047B70475C2D002080B400AF0A4B1B78E7
S3150800055C002B0DD0084B1B78DBB2DBB2013BDBB2B0
S3150800056CDAB2054B1A70044B1B78002B00D162B615
S3150800057CBD465DF8047B70475C2D002080B584B0C1
S3150800058C00AF78600023FB73FFF7CCFF054B1A7896
S3150800059C7B681A70FFF7D8FFFB7B18461037BD46E9
S315080005AC80BD00BF2E09002080B584B000AF7860EE
S315080005BC0023FB73FFF7B6FF054B1A787B681A7096
S315080005CCFFF7C2FFFB7B18461037BD4680BD00BF40
S315080005DC0409002080B400AF72B6064B1B78DBB258
S315080005ECDBB20133DBB2DAB2024B1A70BD465DF8E8
S315080005FC047B70475C2D002080B400AF0A4B1B7837
S3150800060C002B0DD0084B1B78DBB2DBB2013BDBB2FF
S3150800061CDAB2054B1A70044B1B78002B00D162B664
S3150800062CBD465DF8047B70475C2D002080B582B012
S3150800063C00AF0346FB710C4B1B78032B0FD1FFF74E
S3150800064CC9FF094AFB791370FFF7D6FF02204FF052
S3150800065C20024FF0000307F057F8002300E082232E
S3150800066C18460837BD4680BD2009002080B400AF67
S3150800067C72B6064B1B78DBB2DBB20133DBB2DAB2ED
S3150800068C024B1A70BD465DF8047B70475C2D002042
S3150800069C80B400AF0A4B1B78002B0DD0084B1B7887
S315080006ACDBB2DBB2013BDBB2DAB2054B1A70044B98
S315080006BC1B78002B00D162B6BD465DF8047B7047EB
S315080006CC5C2D002080B483B000AF0346FB718623F3
S315080006DC18460C37BD465DF8047B704780B483B06A
S315080006EC00AF0346FB71862318460C37BD465DF8EA
S315080006FC047B704780B584B000AF78600023FB7329
S3150800070CFFF7B4FF054B1A887B681A80FFF7C0FF02
S3150800071CFB7B18461037BD4680BD00BF2C09002050
S3150800072C80B584B000AF78600023FB73FFF79EFF9B
S3150800073C054B1A887B681A80FFF7AAFFFB7B1846BD
S3150800074C1037BD4680BD00BF0609002080B485B0B1
S3150800075C00AF78600023FB738623FB73FB7B18467C
S3150800076C1437BD465DF8047B704700BF80B584B06E
S3150800077C00AF0346FB800023FB73FFF777FF054AA0
S3150800078CFB881380FFF784FFFB7B18461037BD46A2
S3150800079C80BD00BF2C09002080B584B000AF03468D
S315080007ACFB800023FB73FFF761FF054AFB88138068
S315080007BCFFF76EFFFB7B18461037BD4680BD00BFA2
S315080007CC0609002080B582B000AF0346FB710E4BBC
S315080007DC1B7A0C2B13D1FFF749FF0B4AFB791372C3
S315080007ECFFF756FFFFF742FF074B1A7A064B5A726A
S315080007FC054B0C221A72FFF74BFF002300E08223ED
S3150800080C18460837BD4680BD0C09002080B582B055
S3150800081C00AF0346FB710E4B1B7C012B13D1FFF764
S3150800082C25FF0B4AFB791374FFF732FFFFF71EFF00
S3150800083C074B1A7C064B5A74054B01221A74FFF7A0
S3150800084C27FF002300E0822318460837BD4680BDE3
S3150800085C0C09002080B582B000AF0346FB710E4B25
S3150800086C1B78072B13D1FFF701FF0B4AFB79137083
S3150800087CFFF70EFFFFF7FAFE074B1A78064B5A706E
S3150800088C054B07221A70FFF703FF002300E08223AB
S3150800089C18460837BD4680BD0C09002080B485B0C3
S315080008AC00AF0346B9607A60FB7386231846143783
S315080008BCBD465DF8047B704780B483B000AF7860A2
S315080008CC0B46FB70862318460C37BD465DF8047B31
S315080008DC704700BF80B483B000AF0346FB71862314
S315080008EC18460C37BD465DF8047B704780B582B058
S315080008FC00AF0346FB71FB790620194600F078FC1D
S3150800090C034618460837BD4680BD00BF80B582B081
S3150800091C00AF03460A46FB711346BB71FA79BB79DD
S3150800092C41F20100002100F079FC0346184608370D
S3150800093CBD4680BD80B584B000AFF860B96013467B
S3150800094CFB80FB884FF48050F968BA6800F082FC8B
S3150800095C034618461037BD4680BD00BF80B400AFAD
S3150800096C72B6064B1B78DBB2DBB20133DBB2DAB2FA
S3150800097C024B1A70BD465DF8047B70475C2D00204F
S3150800098C80B400AF0A4B1B78002B0DD0084B1B7894
S3150800099CDBB2DBB2013BDBB2DAB2054B1A70044BA5
S315080009AC1B78002B00D162B6BD465DF8047B7047F8
S315080009BC5C2D002080B500AF002000F05FFC0346DC
S315080009CC184680BD80B500AF002000F067FC0346D2
S315080009DC184680BD80B582B000AF0346FB710C4B40
S315080009EC1B78062B0FD1FFF7B9FF094AFB79137051
S315080009FCFFF7C6FF02204FF004024FF0000306F083
S31508000A0C83FE002300E0822318460837BD4680BDC6
S31508000A1C3009002080B582B000AF78600020796874
S31508000A2C00F04CFC034618460837BD4680BD00BF8F
S31508000A3C80B582B000AF78603960002079683A6872
S31508000A4C00F04EFC034618460837BD4680BD00BF6D
S31508000A5C80B582B000AF0346FB71FB7900201946BE
S31508000A6C00F050FC034618460837BD4680BD00BF4B
S31508000A7C80B582B000AF0346FB71FB79012019469D
S31508000A8C00F040FC034618460837BD4680BD00BF3B
S31508000A9C80B582B000AF78603960002079683A6812
S31508000AAC00F042FC034618460837BD4680BD00BF19
S31508000ABC80B400AF86231846BD465DF8047B7047A4
S31508000ACC80B400AF86231846BD465DF8047B704794
S31508000ADC80B582B000AF03460A46FB711346BB715C
S31508000AECFA79BB791046194600F064F8034618469D
S31508000AFC0837BD4680BD00BF80B582B000AF03463F
S31508000B0C0A46FB711346BB71FA79BB79104619462E
S31508000B1C00F064F8034618460837BD4680BD00BF8A
S31508000B2C80B582B000AF0346FB71FB7902201946EB
S31508000B3C00F01EFC034618460837BD4680BD00BFAC
S31508000B4C80B582B000AF78600320796800F0FEFBB0
S31508000B5C034618460837BD4680BD00BF80B582B02F
S31508000B6C00AF78600320796800F018FC0346184635
S31508000B7C0837BD4680BD00BF80B582B000AF78602F
S31508000B8C0020796800F01CFC034618460837BD4659
S31508000B9C80BD00BF80B582B000AF78603960002098
S31508000BAC79683A6800F01CFC034618460837BD46B7
S31508000BBC80BD00BF80B582B000AF03460A46FB7104
S31508000BCC1346BB71FA79BB791046194600F020FC1E
S31508000BDC034618460837BD4680BD00BF80B582B0AF
S31508000BEC00AF03460A46FB711346BB71FA79BB790B
S31508000BFC1046194600F022FC034618460837BD462F
S31508000C0C80BD00BF80B582B000AF0346FB71FB798F
S31508000C1C1846FFF785FF034618460837BD4680BDBC
S31508000C2C80B582B000AF78607868FFF789FF034615
S31508000C3C18460837BD4680BD80B582B000AF7860CF
S31508000C4C7868FFF78BFF034618460837BD4680BD04
S31508000C5C80B584B000AF78600023FB7303207968F5
S31508000C6C11F062F903461A46FB7B1343FB73FB7BB5
S31508000C7C18461037BD4680BD80B584B000AF786085
S31508000C8C0023FB730120796811F04EF903461A46C6
S31508000C9CFB7B1343FB73FB7B18461037BD4680BDA5
S31508000CAC80B584B000AF78600023FB7302207968A6
S31508000CBC11F03AF903461A46FB7B1343FB73FB7B8D
S31508000CCC18461037BD4680BD80B584B000AF0346C4
S31508000CDCFB710023FB73FB1D0620194611F07EF8E9
S31508000CEC03461A46FB7B1343FB73FB7B18461037EC
S31508000CFCBD4680BD80B584B000AF0346FB710023AA
S31508000D0CFB73FB1D0420194611F068F803461A46B6
S31508000D1CFB7B1343FB73FB7B18461037BD4680BD24
S31508000D2C80B584B000AF78600023FB733B1D0520AB
S31508000D3C194611F053F803461A46FB7B1343FB730B
S31508000D4CFB7B18461037BD4680BD00BF80B400AF8C
S31508000D5C72B6064B1B78DBB2DBB20133DBB2DAB206
S31508000D6C024B1A70BD465DF8047B70475C2D00205B
S31508000D7C80B400AF0A4B1B78002B0DD0084B1B78A0
S31508000D8CDBB2DBB2013BDBB2DAB2054B1A70044BB1
S31508000D9C1B78002B00D162B6BD465DF8047B704704
S31508000DAC5C2D002080B584B000AF78600023FB73FF
S31508000DBC3B1D0020194611F011F803461A46FB7B19
S31508000DCC1343FB73FB7B18461037BD4680BD00BF2B
S31508000DDC80B582B000AF7860396078683968FFF7FB
S31508000DEC27FE034618460837BD4680BD80B582B037
S31508000DFC00AF0346FB71FB791846FFF729FE03463D
S31508000E0C18460837BD4680BD80B582B000AF03468C
S31508000E1CFB71FB791846FFF769FD03461846083738
S31508000E2CBD4680BD80B582B000AF03460A46FB714D
S31508000E3C1346BB71FA79BB7910461946FFF766FD5E
S31508000E4C034618460837BD4680BD00BF80B584B03A
S31508000E5C00AFF860B9601346FB80FB88F868B96880
S31508000E6C1A46FFF767FD034618461037BD4680BD80
S31508000E7C80B582B000AF78607868FFF7CBFD034683
S31508000E8C18460837BD4680BD80B582B000AF78607D
S31508000E9C7868FFF771FE034618460837BD4680BDCD
S31508000EAC80B582B000AF7860396078683968FFF72A
S31508000EBC71FE034618460837BD4680BD80B582B01C
S31508000ECC00AF7860396078683968FFF7E1FD03464A
S31508000EDC18460837BD4680BD80B584B000AF78602B
S31508000EEC0023FB730820796811F01EF803461A468E
S31508000EFCFB7B1343FB73FB7B18461037BD4680BD43
S31508000F0C80B584B000AF78600023FB73072079683E
S31508000F1C11F00AF803461A46FB7B1343FB73FB7B5B
S31508000F2C18461037BD4680BD80B485B000AF7860D2
S31508000F3C0023FB73044A7B681360FB7B1846143743
S31508000F4CBD465DF8047B70473409002080B500AFB8
S31508000F5CFFF738FD0346184680BD00BF80B500AFC5
S31508000F6CFFF728FD0346184680BD00BF80B582B042
S31508000F7C00AF0346FB80FB88184600F019F90346B8
S31508000F8C18460837BD4680BD80B584B000AF034609
S31508000F9CFB710023FB73FFF7D9FE054AFB79137027
S31508000FACFFF7E6FEFB7B18461037BD4680BD00BF33
S31508000FBC0409002080B400AF72B6064B1B78DBB26E
S31508000FCCDBB20133DBB2DAB2024B1A70BD465DF8FE
S31508000FDC047B70475C2D002080B400AF0A4B1B784D
S31508000FEC002B0DD0084B1B78DBB2DBB2013BDBB216
S31508000FFCDAB2054B1A70044B1B78002B00D162B67B
S3150800100CBD465DF8047B70475C2D002080B582B028
S3150800101C00AF0346FB71FB791846FFF729FD03461B
S3150800102C18460837BD4680BD80B584B000AF034668
S3150800103CFB710023FB73FFF7BDFF054AFB791370A1
S3150800104CFFF7CAFFFB7B18461037BD4680BD00BFAD
S3150800105C2E09002080B584B000AF78600023FB739E
S3150800106C0720796810F060FF03461A46FB7B13438A
S3150800107CFB73FB7B18461037BD4680BD80B485B024
S3150800108C00AF78600023FB73054B1A687B681A60FF
S3150800109CFB7B18461437BD465DF8047B704700BFCA
S315080010AC3409002080B584B000AF78600023FB7348
S315080010BC3B1D0920194610F091FE03461A46FB7B88
S315080010CC1343FB73FB7B18461037BD4680BD00BF28
S315080010DC80B400AF72B6064B1B78DBB2DBB20133B9
S315080010ECDBB2DAB2024B1A70BD465DF8047B704768
S315080010FC5C2D002080B400AF0A4B1B78002B0DD05A
S3150800110C084B1B78DBB2DBB2013BDBB2DAB2054B20
S3150800111C1A70044B1B78002B00D162B6BD465DF8DD
S3150800112C047B70475C2D002080B582B000AF034667
S3150800113CFB710E4B1B79FF2B13D1FFF7C9FF0B4A1B
S3150800114CFB791371FFF7D6FFFFF7C2FF074B1A7926
S3150800115C064B5A71054BFF221A71FFF7CBFF00237A
S3150800116C00E0822318460837BD4680BD24090020B6
S3150800117C80B582B000AF0346FB710C4B1B78FF2B76
S3150800118C0FD1FFF7A5FF094AFB791370FFF7B2FFDA
S3150800119C02204FF008024FF0000306F0B5FA0023C0
S315080011AC00E0822318460837BD4680BD2409002076
S315080011BC80B582B000AF0346FB80FB880020194639
S315080011CC00F0B8F9034618460837BD4680BD00BF7F
S315080011DC80B500AF02204FF010024FF0000306F066
S315080011EC93FA80BD80B400AFBD465DF8047B7047AA
S315080011FC80B584B000AF03460A46FB8013467B7164
S3150800120CFA887B791046194618F0CAFC0346FB7314
S3150800121CFB7B18461037BD4680BD00BF90B585B020
S3150800122C00AF0446084611461A462346FB80034679
S3150800123C7B710B463B711346FB70F88879793A79C2
S3150800124CFB780DF08FFD0346FB73FB7B18461437B2
S3150800125CBD4690BD80B586B000AFF860B9607A60BF
S3150800126C7B807B88F868B9687A680DF0ADFF034611
S3150800127CFB75FB7D18461837BD4680BD80B584B016
S3150800128C00AF0346FB71FB79184601F0E5FA0346F5
S3150800129CFB73FB7B18461037BD4680BD80B584B002
S315080012AC00AF0346FB71FB79184601F0B9FA034601
S315080012BCFB73FB7B18461037BD4680BD80B584B0E2
S315080012CC00AF03463960FB80FB881846396821F065
S315080012DCF3FC0346FB73FB7B18461037BD4680BDF3
S315080012EC80B586B000AFF860B9607A60F868B968FE
S315080012FC7A6815F019FD0346FB75FB7D18461837F9
S3150800130CBD4680BD80B584B000AF78600B46FB70D7
S3150800131CFB787868194615F09FFB0346FB73FB7B35
S3150800132C18461037BD4680BD80B586B000AFF8604C
S3150800133CB9607A60F868B9687A6815F05DFE034694
S3150800134CFB75FB7D18461837BD4680BD80B584B045
S3150800135C00AF03463960FB80FB88184639680AF0EB
S3150800136C0DFA0346FB73FB7B18461037BD4680BD4A
S3150800137C80B584B000AF03460A46FB8013467B71E2
S3150800138CFA887B79104619460AF070F90346FB73FE
S3150800139CFB7B18461037BD4680BD00BF80B584B0B0
S315080013AC00AF03463960FB80FB88184639680AF09B
S315080013BC5FFA0346FB73FB7B18461037BD4680BDA8
S315080013CC80B584B000AF786039607868396808F001
S315080013DCC3FB0346FB73FB7B18461037BD4680BD23
S315080013EC80B586B000AFF860B9607A60F868B968FD
S315080013FC7A6808F0BFFB0346FB75FB7D1846183761
S3150800140CBD4680BD80B500AF00F0A6FB80BD00BF11
S3150800141C80B584B000AF03460A46FB711346BB7110
S3150800142CFA79BB791046194600F020FB0346FB7384
S3150800143CFB7B18461037BD4680BD00BF80B584B00F
S3150800144C00AF03460A46FB711346BB71FA79BB79A2
S3150800145C1046194600F01AFB0346FB73FB7B18462D
S3150800146C1037BD4680BD00BF80B500AF0548FFF7F5
S3150800147CEFFB0548FFF700FC0448FFF711FC00F0EA
S3150800148C77FB80BD38090020480900204009002058
S3150800149C80B500AF00F03AFE80BD00BF80B500AF46
S315080014AC0B48FFF719FD0B48FFF72AFD00F062FD04
S315080014BC094B1B681846FFF737FD084B1B6818467F
S315080014CCFFF770FC064B1B781846FFF75DFD80BDD1
S315080014DC50090020540900205C09002058090020F6
S315080014EC4C09002080B500AF00F098FE80BD00BF07
S315080014FC80B500AF00F098FE024B1B781846FFF734
S3150800150C93FD80BD6809002080B500AF0648FFF73B
S3150800151CA1FD0648FFF7B2FD00F04AFE044B1B6816
S3150800152C1846FFF7BFFD80BD64090020600900203E
S3150800153C6C09002080B584B000AF03460A46FB80D0
S3150800154C1346BB80FA88BB88104619460CF0CEFCAD
S3150800155C0346FB73FB7B18461037BD4680BD00BFA0
S3150800156C80B483B000AF03463960FB713B68002238
S3150800157C1A70002318460C37BD465DF8047B704775
S3150800158C80B485B000AF78600023FB7307E0FB7B63
S3150800159C7A681344FA7B1A70FB7B0133FB73FB7B6B
S315080015AC132BF4D9002318461437BD465DF8047B73
S315080015BC704700BF80B485B000AF78600023FB731A
S315080015CC07E0FB7B7A681344FA7B1A70FB7B0133C2
S315080015DCFB73FB7B012BF4D9002318461437BD4645
S315080015EC5DF8047B704700BF80B485B000AF7860A7
S315080015FC0023FB7307E0FB7B7A681344FA7B1A70AB
S3150800160CFB7B0133FB73FB7B012BF4D900231846B8
S3150800161C1437BD465DF8047B704700BF80B485B0AF
S3150800162C00AF78600023FB7309E0FB7B7A681344F0
S3150800163CFA7B0132D2B21A70FB7B0133FB73FB7B4C
S3150800164C032BF2D9002318461437BD465DF8047BE4
S3150800165C704700BF80B483B000AF7860002318468B
S3150800166C0C37BD465DF8047B704700BF80B400AFED
S3150800167C72B6064B1B78DBB2DBB20133DBB2DAB2DD
S3150800168C024B1A70BD465DF8047B70475C2D002032
S3150800169C80B400AF0A4B1B78002B0DD0084B1B7877
S315080016ACDBB2DBB2013BDBB2DAB2054B1A70044B88
S315080016BC1B78002B00D162B6BD465DF8047B7047DB
S315080016CC5C2D002080B500AF0020024929F008FAED
S315080016DC80BD00BF7009002080B500AF002029F03E
S315080016EC5FFB0020044929F0A9F9002029F0ACFA7F
S315080016FC024B01221A7080BD740900207209002061
S3150800170C80B582B000AF184B1B78012B28D100206E
S3150800171C29F072FB0346FB71FB79002B02D0FB798F
S3150800172C032B06D1002029F08FFA104B00221A70D1
S3150800173C16E00E4B1B780133DAB20C4B1A700B4BB6
S3150800174C1B78042B0CD9002029F0EEFA29F0AEF8F8
S3150800175C074829F0CBF8FFF7BFFF044B00221A7095
S3150800176C0837BD4680BD00BF7209002076090020E7
S3150800177C0CCE020880B584B000AF03463A60FB7104
S3150800178C0B46BB710023FB81BB790E2B07D1FFF7E8
S3150800179C6DFF084B1B88FB81FFF77AFF01E00023DE
S315080017ACFB813B6803221A70FB8918461037BD4625
S315080017BC80BD00BF7009002080B582B000AF8023C1
S315080017CCFB71FB1D184601F019F8FB79112B01D892
S315080017DC07F028FBFB79122B01D807F023FB24F022
S315080017EC5BFA07F01FFB0837BD4680BD80B582B093
S315080017FC00AF80237B717B1D184600F0FFFF7B79B9
S3150800180C112B01D807F00EFB0023FB717B79122BE9
S3150800181C02D80123FB710DE07B79402B08D07B792C
S3150800182C802B05D07B794E2B02D07B794D2B01D1A1
S3150800183C0A23FB710023BB7116E0434B1B78002B64
S3150800184C03D0414B1B78082B01D10AF0B7F83E4B55
S3150800185C1B78013BDAB23C4B1A700CF039F927F0BD
S3150800186C8BFDBB790133BB71BA79FB7901339A428B
S3150800187CE3D37B79122B01D807F0D4FA334B1B68C8
S3150800188C03F00103002B01D10FF054F82F4B1B6802
S3150800189C03F00103002B03D110F03EFF11F0B0F852
S315080018AC2A4B1B6803F00103002B01D101F0B6FC8F
S315080018BC264B1B6803F00103002B01D10FF00AFF1E
S315080018CC224B1B6803F00103002B01D128F048FEBC
S315080018DC05F0D8F91D4B1B6803F00103002B01D149
S315080018EC24F08AF9194B1B6803F00303002B01D16A
S315080018FC18F066FF154B1B6803F00103002B01D18A
S3150800190C21F0A6FA114B1B6803F00103002B01D139
S3150800191CFFF7F6FE0D4B1B6803F00103002B01D1F4
S3150800192C02F0FAFB094B1B6803F00103002B01D1EB
S3150800193C0CF09EFB054B1B680133044A136007F039
S3150800194C71FA0837BD4680BD0000002078090020D2
S3150800195C80B500AF002000F063FF00F009FF00F02F
S3150800196C15F807F05FFA80BD80B483B000AF034664
S3150800197C3960FB800C37BD465DF8047B704700BFA9
S3150800198C80B400AFBD465DF8047B704780B400AFE9
S3150800199CBD465DF8047B704780B400AF034B1B68EB
S315080019ACDB681846BD465DF8047B70471CBC02080C
S315080019BC80B400AF034B1B681B691846BD465DF81F
S315080019CC047B70471CBC020880B400AF044B1B6830
S315080019DC5B681B781846BD465DF8047B704700BFEC
S315080019EC1CBC020880B400AF044B1B681B681B7830
S315080019FC1846BD465DF8047B704700BF1CBC020840
S31508001A0C80B400AF044B1B689B681B681846BD4620
S31508001A1C5DF8047B704700BF1CBC020880B582B019
S31508001A2C00AF0346FB71FB791846FFF74DF90346E1
S31508001A3C18460837BD4680BD80B582B000AF034650
S31508001A4CFB71FB791846FFF755F903461846083714
S31508001A5CBD4680BD80B582B000AF78607868FFF768
S31508001A6C5FF9034618460837BD4680BD80B483B077
S31508001A7C00AF03460A46FB711346BB710023184692
S31508001A8C0C37BD465DF8047B704700BF80B586B041
S31508001A9C00AF03460A46FB711346BB714FF0FF3382
S31508001AACFB60FB79072B03D1294B1B78012B06D03E
S31508001ABCFB79062B46D1264B1B78022B42D1BB79D8
S31508001ACC002B1BD1FFF774FFB860BB681B683B6122
S31508001ADCFB79072B05D11F4B1B6A01331D4A136271
S31508001AEC04E01C4BDB6A01331A4AD362FB79072BD9
S31508001AFC01D1012300E00323FB7516E0FB683B616B
S31508001B0CFB79072B05D1134BDB690133114AD361DA
S31508001B1C04E0104B9B6A01330E4A9362FB79072B40
S31508001B2C01D1022300E00423FB750120FFF784FF93
S31508001B3C3869FFF78FFFFB7D1846FFF76FFF044BDD
S31508001B4C00221A70002318461837BD4680BD00BF00
S31508001B5CAC0900207C09002080B400AF034B00229E
S31508001B6C1A70BD465DF8047B704700BFAC090020AF
S31508001B7C80B584B000AFFFF727FF0346FB71FFF76C
S31508001B8C31FF0346BB71FFF73BFF3860FB79012B2E
S31508001B9C03D0FB79022B40F0C480BB79002B03D011
S31508001BACBB79012B40F0BD800023FB73BB79002B5E
S31508001BBC48D1FFF7F1FEB860FB79012B02D0022B56
S31508001BCC25D03EE03B68002B1ED03B68DA43BB6849
S31508001BDC1A60554B1B6A0133534A1362BA79524938
S31508001BEC13465B001344DB000B441B68591C4E4818
S31508001BFC13465B001344DB00034419600120FFF70E
S31508001C0C01F80123FB731CE00623FB7319E0BA7970
S31508001C1C454913465B001344DB000B4408335B68E9
S31508001C2C591C414813465B001344DB000344083334
S31508001C3C59603D4BDB6A01333B4AD3620323FB7382
S31508001C4C00BF5EE0BB79012B5BD1384B1B78002BB0
S31508001C5C55D1FFF7ADFEB860FB79012B02D0022BEC
S31508001C6C27D04BE03B68002B20D03B68DA43BB6897
S31508001C7C1A60B868FEF7E0FF0346002B13D1BA7951
S31508001C8C294913465B001344DB000B441B68591C9B
S31508001C9C254813465B001344DB0003441960234BA9
S31508001CAC01221A702AE00223FB7327E00623FB7332
S31508001CBC24E0B8680021042229F0FEFDB868FEF776
S31508001CCCAFFF0346002B16D1BA79B97916480B46DD
S31508001CDC5B000B44DB00034408335B68591C124851
S31508001CEC13465B001344DB000344083359600F4B5F
S31508001CFC02221A7001E00423FB7300BF01E00523DE
S31508001D0CFB73FB7B002B0CD0BB791846FFF794FEB4
S31508001D1CBB681B681846FFF79DFEFB7B1846FFF74A
S31508001D2C7DFE1037BD4680BD7C090020AC0900201D
S31508001D3C80B500AFFFF70AF90346184680BD00BF09
S31508001D4C80B400AF044B1B685B681B681846BD461D
S31508001D5C5DF8047B704700BF34BC020880B400AF42
S31508001D6C044B1B681B681B781846BD465DF8047B3C
S31508001D7C704700BF34BC020880B483B000AF7860EB
S31508001D8C044B1B68DB687A681A600C37BD465DF82D
S31508001D9C047B704734BC020880B483B000AF78600B
S31508001DAC044B1B689B687A681A600C37BD465DF84D
S31508001DBC047B704734BC020880B483B000AF03467A
S31508001DCCFB71054B1B681B69FA791A700C37BD46F3
S31508001DDC5DF8047B704700BF34BC020880B582B03E
S31508001DEC00AF78607868FFF74FF80346184608374F
S31508001DFCBD4680BD80B582B000AF78603960786822
S31508001E0C3968FFF74DF8034618460837BD4680BDB6
S31508001E1C80B582B000AF0346FB71FB791846FEF716
S31508001E2CE5FF034618460837BD4680BD80B582B027
S31508001E3C00AF7860396078683968FEF7C9FF0346E1
S31508001E4C18460837BD4680BD80B582B000AF03463C
S31508001E5C0A46FB711346BB71FA79BB7910461946CB
S31508001E6CFEF7E0FF034618460837BD4680BD00BF9F
S31508001E7C80B582B000AF7860396078683968FFF74A
S31508001E8C1DF8034618460837BD4680BD80B584B094
S31508001E9C00AFF860B9601346FB80FB88F868B96830
S31508001EAC1A46FEF7D3FF034618461037BD4680BDC3
S31508001EBC80B582B000AF0346FB71FB791846FEF776
S31508001ECCA3FF034618460837BD4680BD80B500AF4C
S31508001EDCFFF744F80346184680BD00BF80B582B0AC
S31508001EEC00AF78607868FEF7C3FF034618460837D4
S31508001EFCBD4680BD80B485B000AF78601A4B1B68B0
S31508001F0C7A689A4202DD184A7B681360174B1B687D
S31508001F1C7A689A4202DA154A7B681360124B1A6879
S31508001F2C124B1B68D31ABB604FF40043FB60BB68AB
S31508001F3C002B12D00D4B1B687A68D31A4FF47A72A1
S31508001F4C02FB03F2BB6892FBF3F3DB03084A82FB42
S31508001F5C03129211DB17D31AFB60FB681846143769
S31508001F6CBD465DF8047B7047B0090020B409002013
S31508001F7CD34D6210B0B590B000AF00237B625E4BB8
S31508001F8CFB6307F12403BB63F86BFFF727FFF86BBA
S31508001F9CB96BFFF72FFFFFF7D3FE0346002B0CBFD9
S31508001FAC01230023DBB21846FFF732FFFFF7C8FE02
S31508001FBC7863786BFFF7E0FE07F12C0207F12B0329
S31508001FCC10461946FFF732FFFB6A42F2107293422B
S31508001FDC03DD00200021FFF737FFFB6A1846FFF7E1
S31508001FECDBFEFB6A1846FFF785FF024607F12B0353
S31508001FFC10461946FFF73CFFFFF7B0FE034687F875
S3150800200C333097F83330002B2AD03C4B1B7897F893
S3150800201C33209A4224D0394A97F83330137097F8FC
S3150800202C3330012B01D1FFF751FF97F83330022BD0
S3150800203C05D10420FFF7C0FE314B01221A7097F820
S3150800204C3330032B05D10020FFF7B6FE2C4B0022AC
S3150800205C1A7097F83330042B02D1294B00221A70C8
S3150800206C274B1B78002B02D00020FEF77FFFFFF7CB
S3150800207C67FE0346B3F1DE3F03D102200321FFF7C7
S3150800208CE3FEFFF75DFE0346B3F1BA3F02D101202A
S3150800209CFFF70EFFFFF754FE0346B3F1AD3F23D10E
S315080020AC184B07F10C041D460FCD0FC495E8030019
S315080020BC20600434218002340B0C2370AD233B734F
S315080020CCAD237B73AD23BB73AD23FB730E4A3B4623
S315080020DC10685168926807C33A4607F10C03104614
S315080020EC19461622FFF7D2FE07F12A031846FFF700
S315080020FCF5FE4037BD46B0BDB8090020BC09002026
S3150800210CBD0900204CBC020864BC020880B500AFAF
S3150800211CFFF70EFE80BD00BF80B483B000AF034648
S3150800212CFB71054B1B689B68FA791A700C37BD4610
S3150800213C5DF8047B704700BF48BC020880B400AF4A
S3150800214C044B1B681B681B781846BD465DF8047B58
S3150800215C704700BF48BC020880B400AF044B1B682C
S3150800216C5B681B681846BD465DF8047B704700BF64
S3150800217C48BC020880B483B000AF7860044B1B6877
S3150800218CDB687A681A600C37BD465DF8047B7047C5
S3150800219C48BC020880B582B000AF0346FB71FB79D8
S315080021AC1846FEF733FF034618460837BD4680BD6A
S315080021BC80B582B000AFFFF7CFFF03461846FFF78E
S315080021CCD9FF144B1B781846FFF7E4FF114B1B7805
S315080021DC012B03D10F4B00221A7002E00D4B012282
S315080021EC1A70FFF7ABFF0346FB71FB79002B0DD07A
S315080021FC094B1B78FA799A4208D0074AFB7913706F
S3150800220CFB79012B02D10020FFF786FF0837BD4664
S3150800221C80BD00BFC0090020C109002080B400AFF2
S3150800222CBD465DF8047B704780B500AF0220FFF70A
S3150800223C73FF80BD80B483B000AF0123FB71FB79BB
S3150800224C012BFCD00C37BD465DF8047B704700BFEC
S3150800225C80B485B000AF0346FB710123FB73FB7B8F
S3150800226C012BFCD01437BD465DF8047B704700BFC4
S3150800227C80B400AFBD465DF8047B704780B483B06C
S3150800228C00AF0346FB710C37BD465DF8047B7047FF
S3150800229C134880F30988022080F31488BFF36F8FE4
S315080022AC104880F308881048104B114D002102E0A5
S315080022BC6C584450043142189A42F9D30D4A02E03C
S315080022CC002342F8043B0C4B9A42F9D30B4A054CB3
S315080022DC0B4B42F8043BA242FBD305F0F7FC7047C4
S315080022EC406C0020407C0020000000203C080020A8
S315080022FCECFC020800090020AC6A0020406C0020A7
S3150800230C42424242FEE7000080B48BB000AF7860D0
S3150800231C00237B6200233B620023FB610023BB6125
S3150800232C00237B6100233B61624B5B6803F00C0363
S3150800233CFB60FB68042B07D0082B09D0002B5ED159
S3150800234C7B685D4A1A605EE07B685C4A1A605AE0F4
S3150800235C584B5B6803F470137B62564B5B6803F44B
S3150800236C80333B627B6A9B0C7B627B6A0D2B03D0AA
S3150800237C7B6A02337B6201E006237B623B6A002B95
S3150800238C06D17B6A4E4A02FB03F27B681A6035E07B
S3150800239C484BDB6A03F48033FB61464BDB6A03F07C
S315080023AC0F030133BB61FB69002B09D1434ABB6997
S315080023BCB2FBF3F37A6A02FB03F27B681A601DE040
S315080023CC3C4BDB6A03F0F0031B0901337B61394B89
S315080023DCDB6A03F470631B0A02333B61374A7B6979
S315080023ECB2FBF3F33A6902FB03F2BB69B2FBF3F3F4
S315080023FC7A6A02FB03F27B681A6004E003E07B68E6
S3150800240C2D4A1A6000BF2B4B5B6803F0F003FB6088
S3150800241CFB681B09FB602B4AFB6813441B78DBB271
S3150800242CBB607B681A68BB68DA407B685A60214BCC
S3150800243C5B6803F4E063FB60FB681B0AFB60214ADC
S3150800244CFB6813441B78DBB2BB607B685A68BB68B5
S3150800245CDA407B689A60174B5B6803F46053FB6041
S3150800246CFB68DB0AFB60174AFB6813441B78DBB274
S3150800247CBB607B685A68BB68DA407B68DA600D4BD0
S3150800248C5B6803F44043FB60FB689B0BFB600E4ADE
S3150800249CFB6813441B78DBB2BB607B68DA68BB68E5
S315080024ACB2FBF3F27B681A612C37BD465DF8047BE8
S315080024BC704700BF0010024000127A0040787D0178
S315080024CC00093D00040000201400002080B483B0ED
S315080024DC00AF78600B46FB70FB78002B06D00949D9
S315080024EC084B9A697B6813438B6106E00549054BD3
S315080024FC9A697B68DB4313408B610C37BD465DF8E4
S3150800250C047B70470010024080B483B000AF78603B
S3150800251C0B46FB70FB78002B06D00949084BDA688A
S3150800252C7B681343CB6006E00549054BDA687B6884
S3150800253CDB431340CB600C37BD465DF8047B704714
S3150800254C0010024080B483B000AF78600B46FB7075
S3150800255CFB78002B06D00949084B1A697B6813438C
S3150800256C0B6106E00549054B1A697B68DB4313408A
S3150800257C0B610C37BD465DF8047B704700100240B2
S3150800258C80B584B000AFF860B9607A60252005F094
S3150800259CC1FB1037BD4680BD80B582B000AF0123A4
S315080025ACFB71112000F07AFB01F054F805F08CFA57
S315080025BC07F0DEFE01F03EF80246274B5A60FB791F
S315080025CC012B46D1244B5B68184601F04BF826F0D4
S315080025DC63FA0346BB71BB79032B17D801A252F8D1
S315080025EC23F000BF0126000811260008092600085A
S315080025FC09260008012000F085F80CE0022000F0FE
S3150800260C81F808E0082000F07DF804E0BB7918464C
S3150800261C01F066FA00BF104B01221A700E4B5B686C
S3150800262C1A7E0D4B5B685B7E1046194600F016F851
S3150800263C03467B717B79002B0BD1074B00225A6121
S3150800264C054B00229A61044B5B68DB69184605F05A
S3150800265C45FB0837BD4680BD2C2C002080B582B0C2
S3150800266C00AF03460A46FB711346BB71FB79184645
S3150800267C00F070F90246BB79074811461A4623F052
S3150800268C45FE064AFB791372044ABB7993770023F5
S3150800269C18460837BD4680BDB0BE02082C2C002053
S315080026AC80B483B000AF7860094B1A6A7B68DB4349
S315080026BC1340074A1362064B9A6A7B68DB4313403E
S315080026CC034A93620C37BD465DF8047B704700BF1E
S315080026DC2C2C002080B400AF034B1B6A1846BD4651
S315080026EC5DF8047B704700BF2C2C002080B400AF2B
S315080026FC034B9B6A1846BD465DF8047B704700BFC2
S3150800270C2C2C002080B584B000AF7860174B9A6AE1
S3150800271C7B681343154A93620023FB601BE0134B3B
S3150800272C5B68996BFA6813465B0013449B000B4471
S3150800273CBB60BB681A687B681340002B08D0BB6863
S3150800274C1B7AFF2B04D0BB681B7A18460EF0F8F8D8
S3150800275CFB680133FB60FB68002BE0D0786802212C
S3150800276C01F09AFE1037BD4680BD00BF2C2C002008
S3150800277C80B584B000AF1E4B1B7C112B02D11220E6
S3150800278C00F08CFA1A4B1B7C122B2CD1184B5B685D
S3150800279C184600F0BBFF07F0B1FBF860FDF732FEF8
S315080027AC0020144908F014FF0346FB7207F0A6FB39
S315080027BC0246FB68D31A4FF47A7202FB03F30E4AED
S315080027CCA2FB03239B097B600A4B1B78022B05D1C2
S315080027DC074B5B685A6A7B689A42E1D8044B5B687C
S315080027EC184601F007F800F079FB1037BD4680BD96
S315080027FC2C2C00205C2C0020D34D621080B483B0A6
S3150800280C00AF7860054B1A7C7B681A700023184653
S3150800281C0C37BD465DF8047B704700BF2C2C002096
S3150800282C80B483B000AF0346FB710A4B1B7F002BA9
S3150800283C08D1084B5A69FB79012101FA03F31343B2
S3150800284C044A5361002318460C37BD465DF8047BD1
S3150800285C704700BF2C2C002080B483B000AF034611
S3150800286CFB71084B5A69FB79012101FA03F3DB4327
S3150800287C1340044A5361002318460C37BD465DF8CD
S3150800288C047B70472C2C002080B400AF72B6064B24
S3150800289C1B78DBB2DBB20133DBB2DAB2024B1A704D
S315080028ACBD465DF8047B70475C2D002080B400AFF4
S315080028BC0A4B1B78002B0DD0084B1B78DBB2DBB20E
S315080028CC013BDBB2DAB2054B1A70044B1B78002BB2
S315080028DC00D162B6BD465DF8047B70475C2D0020BE
S315080028EC80B483B000AF0A4B5B697B60094B5B68AD
S315080028FC7A6813437B607B68002B14BF0123002383
S3150800290CDBB218460C37BD465DF8047B704700BF32
S3150800291C2C2C0020242C002080B400AF054B9B697E
S3150800292C002B14BF01230023DBB21846BD465DF805
S3150800293C047B70472C2C002080B582B000AF034670
S3150800294CFB71FB791846FEF745F803461846083717
S3150800295CBD4680BD80B584B000AF0346FB7100232D
S3150800296CFB60FB79103B802B00F2458101A252F8E3
S3150800297C23F000BFA92B0008D32B0008BB2B00089B
S3150800298C032C0008032C0008032C0008032C000851
S3150800299C032C0008032C0008032C0008032C000841
S315080029AC032C0008032C0008032C0008032C000831
S315080029BC032C0008912B00089D2B0008C72B000838
S315080029CCE52B0008D92B0008972B0008C12B00080B
S315080029DC032C0008032C0008032C0008032C000801
S315080029EC032C0008032C0008032C0008032C0008F1
S315080029FC032C0008B52B0008032C0008852B0008AF
S31508002A0CEB2B0008032C0008032C0008032C0008E9
S31508002A1C032C0008032C0008032C0008032C0008C0
S31508002A2C032C0008032C0008032C0008032C0008B0
S31508002A3C032C00088B2B0008032C0008032C000819
S31508002A4C032C0008AF2B0008032C0008032C0008E5
S31508002A5C032C0008032C0008CD2B0008032C0008B7
S31508002A6C032C0008032C0008FD2B0008F12B00088A
S31508002A7C032C0008DF2B0008032C0008032C000885
S31508002A8C032C0008032C0008032C0008032C000850
S31508002A9C032C0008032C0008032C0008032C000840
S31508002AAC032C0008032C0008032C0008032C000830
S31508002ABC032C0008032C0008032C0008032C000820
S31508002ACC032C0008032C0008032C0008032C000810
S31508002ADC032C0008032C0008032C0008032C000800
S31508002AEC032C0008032C0008032C0008032C0008F0
S31508002AFC032C0008032C0008032C0008032C0008E0
S31508002B0C032C0008032C0008032C0008032C0008CF
S31508002B1C032C0008032C0008032C0008032C0008BF
S31508002B2C032C0008032C0008032C0008032C0008AF
S31508002B3C032C0008A32B0008032C0008032C000800
S31508002B4C032C0008032C0008032C0008032C00088F
S31508002B5C032C0008032C0008032C0008032C00087F
S31508002B6C032C0008032C0008032C0008032C00086F
S31508002B7C032C0008F72B0008244BFB6040E0244B81
S31508002B8CFB603DE0234BFB603AE0234BFB6037E0F0
S31508002B9C224BFB6034E0224BFB6031E0214BFB609F
S31508002BAC2EE0214BFB602BE0204BFB6028E0204BF2
S31508002BBCFB6025E01F4BFB6022E01F4BFB601FE010
S31508002BCC1E4BFB601CE01E4BFB6019E01D4BFB60AB
S31508002BDC16E01D4BFB6013E01C4BFB6010E01C4B16
S31508002BECFB600DE01B4BFB600AE01B4BFB6007E030
S31508002BFC1A4BFB6004E01A481A49A422FFF7C0FCDA
S31508002C0CFB6818461037BD4680BD00BF18BF0208C2
S31508002C1C2CBF020840BF020854BF020870BF020846
S31508002C2C88BF020898BF0208ACBF0208C8BF0208D2
S31508002C3CD8BF0208F0BF020808C0020828C002085C
S31508002C4C3CC0020854C002086CC0020880C00208C6
S31508002C5C9CC00208B4C00208CCC00208E0C0020836
S31508002C6CF8C00208FCC0020890B486B000AF034650
S31508002C7CFB71094B07F108040FCB84E80F00FB79AD
S31508002C8C9B0007F11802134453F8103C18461837E2
S31508002C9CBD4690BC704700BFA0C1020880B584B081
S31508002CAC00AF0346FB71684AFB791374674B1B78B4
S31508002CBCFB73FB79123B3E2B00F2AE8001A252F855
S31508002CCC23F000BF1F2E0008252E0008252E00080D
S31508002CDC252E0008252E0008252E0008252E00086E
S31508002CEC252E0008252E0008252E0008252E00085E
S31508002CFC252E0008252E0008252E0008CD2D0008A7
S31508002D0CCD2D0008CD2D0008CD2D0008CD2D0008A1
S31508002D1C252E0008E92D0008252E0008252E00086A
S31508002D2C252E0008252E0008252E0008252E00081D
S31508002D3C252E0008252E0008252E0008252E00080D
S31508002D4C252E0008FF2D0008F92D0008252E000851
S31508002D5C252E0008252E0008252E0008252E0008ED
S31508002D6C252E0008252E0008252E0008252E0008DD
S31508002D7C252E0008252E0008252E0008CD2D000826
S31508002D8C252E0008252E0008252E0008F92D0008EA
S31508002D9C252E0008252E0008252E0008252E0008AD
S31508002DACD32D0008252E0008252E0008252E0008F0
S31508002DBCE32D0008E32D0008252E0008CD2D00086C
S31508002DCC0323FB7329E0204B1B7A502B02D10323D8
S31508002DDCFB7322E021E00223FB731EE01A4B1B7ADD
S31508002DEC502B02D10523FB7317E016E00023FB7367
S31508002DFC13E0FFF749FD0123FB73134B5B681B6A52
S31508002E0C134AA2FB0323DB08124A1360FFF74EFD95
S31508002E1C03E00423FB7300E000BF0C4B1B78FA7B22
S31508002E2C9A4207D0094AFB7B1370084B1B78184645
S31508002E3CFFF782FDFB79112B03D0FB79184601F0BD
S31508002E4C15FB1037BD4680BD2C2C002070010020C8
S31508002E5CCDCCCCCC202C002080B584B000AF03465A
S31508002E6C0A46FB711346BB710023FB732CE0194B06
S31508002E7C5B68DA6BFB7B5B001344BB60154B5B68CA
S31508002E8CDB6B002B1DD0FB79002B0DD0FB79012BAE
S31508002E9C03D1BB685B78032B06D1FB79022B10D1C7
S31508002EACBB685B78032B0CD1BB681B780A481946A0
S31508002EBC23F02CFABB681A78BB79104619460DF024
S31508002ECC0BFDFB7B0133FB73FB7B002BCFD0103741
S31508002EDCBD4680BD2C2C0020B0C1020880B500AFC1
S31508002EEC00F0B0FC00200121FFF7B6FF3220FFF7F7
S31508002EFCD5FE80BD80B500AF4920FFF7CFFE0A4B43
S31508002F0C1B685B680948194623F0E8F900F0B2FC1F
S31508002F1C08F036FB064B5B689B6A064AA2FB032342
S31508002F2CDB08054A136080BDC8030020DCC1020813
S31508002F3C2C2C0020CDCCCCCC642C002080B584B0B5
S31508002F4C00AF2C4B1B68002B12D02A4B1B68013B7D
S31508002F5C284A1360BB1D0020194608F039FB0346A6
S31508002F6C002B02D1BB79022B02D0224B00221A600D
S31508002F7C204B1B68002B2FD11F4B5B685A6B1E4BC3
S31508002F8C9B7F19460B465B000B449B001344BB60A6
S31508002F9CBB685B68FB6015E0FB68B3FA83F3DBB2CE
S31508002FACC3F11F03FB71FB79012202FA03F31846DE
S31508002FBC00F06CFCFB79012202FA03F3DB43FA6896
S31508002FCC1340FB60FB68002BE6D1002006F076F870
S31508002FDC5020FFF763FE09E0FFF77CFB0346002B46
S31508002FEC04D008F0EFFA2120FFF758FE1037BD463B
S31508002FFC80BD00BF642C00202C2C002080B582B02C
S3150800300C00AF184B5B685A6B164B9B7F19460B46E1
S3150800301C5B000B449B0013447B60134B1B685B687B
S3150800302C1248194623F05AF900F012FD7B681B7AF0
S3150800303C0F48194623F06AF97B681B7A184625F05F
S3150800304C61FD00F029FD0346002B05D1054B5B6895
S3150800305C1B8E184600F0D6FA2120FFF71FFE0837FC
S3150800306CBD4680BD2C2C0020C803002000C20208D7
S3150800307C28C2020880B500AF0DF00EFA01F040F830
S3150800308C08F07EFA044B5B689B6A044AA2FB03238E
S3150800309CDB08034A136080BD2C2C0020CDCCCCCC8D
S315080030AC602C002080B500AF4D20FFF7F7FD00F02F
S315080030BCE7FB02200021FFF7CFFEFFF7DBFF80BD01
S315080030CC80B500AF144B1B68002B0AD0124B1B683B
S315080030DC013B114A1360104B1B681048194623F024
S315080030EC15F9FFF7FDFB0346002B13D10A4B1B689A
S315080030FC002B0FD10A4B1B685B680A48194623F04C
S3150800310CEDF800F0A5FB01200021FFF7A5FE332002
S3150800311CFFF7C4FD80BD00BF202C002048C2020862
S3150800312CC803002060C2020880B500AFFFF7D8FBC1
S3150800313C0346012B09D10E4B1B685B680D481946D3
S3150800314C23F0CCF8FFF7CAFE10E0FFF7E5FB0346C1
S3150800315C002B0BD1064B1B685B680748194623F0F6
S3150800316CBDF800F07BFB4420FFF798FD80BD00BF3F
S3150800317CC803002084C20208ACC2020880B500AF9E
S3150800318C4FF0FF30FFF78CFA0D4B1B685B680D4848
S3150800319C194623F0A3F800F067FB16F0E3FC0A4B7C
S315080031AC1B7A802B04D0902B02D0502B03D005E031
S315080031BCFFF778FF02E0FFF79DFE00BF80BD00BF5A
S315080031CCC8030020D4C202082C2C002080B582B07B
S315080031DC00AF104B1B68002B04D00E4B1B68013B31
S315080031EC0C4A136000200C4908F0F2F90346FB71EF
S315080031FCFB79002B03D1084B1B78022B03D1054B0B
S3150800320C1B68002B02D1002004F084FD0837BD464C
S3150800321C80BD00BF602C0020742C002080B586B0C1
S3150800322C00AF0123FB750023FB60B84B1B78002B02
S3150800323C01D10023FB75FB7D012B40F0D681B34BE6
S3150800324C1A7CB34B1B789A420DD0B04B1B7C184694
S3150800325CFFF780FB0346AF48194623F057F8AB4BEC
S3150800326C1A7CAB4B1A70A94B1B7C213B2F2B00F2FB
S3150800327CBB8101A252F823F06F330008A53400086D
S3150800328C9B350008EB350008F5350008F5350008C0
S3150800329CF5350008F5350008F5350008F53500084C
S315080032ACF5350008F5350008F5350008F53500083C
S315080032BCF5350008F5350008F535000845330008DE
S315080032CC4B330008F5350008F5350008F5350008C8
S315080032DCF5350008F5350008F5350008F53500080C
S315080032ECF5350008F5350008F5350008F5350008FC
S315080032FCF5350008F5350008F5350008F5350008EC
S3150800330CF535000851330008F5350008F535000881
S3150800331CF5350008F53500085D330008F535000865
S3150800332CF5350008F535000857330008F53500085B
S3150800333CF53500086B330008FFF7C2FE55E1FFF7B9
S3150800334CF3FE52E1FFF71AFF4FE1FFF73FFF4CE19F
S3150800335CFFF7F4FD6D4B1B7C502B00D045E1FFF7B6
S3150800336C4DFE6A4B1B7C1846FFF7F4FA0346694870
S3150800337C194622F0CBFF654B5B6893F82C30184640
S3150800338C25F0C0FBFFF7A6F9F8606348F96822F048
S3150800339CBDFFF86800F084FA5C4B5B68184600F0D1
S315080033ACF5FA5A4B00221A77584B00225A77002006
S315080033BC05F00EFF594B00221A60594B00221A6071
S315080033CC2220FFF76BFC574B1B685B68564819465F
S315080033DC22F084FFFFF77EF90246544B1A60534BD2
S315080033EC1B685348194622F091FF504B1B68184628
S315080033FC00F060FA454B0022DA6200233B6147E095
S3150800340C424B5B68996B3A6913465B0013449B0005
S3150800341C0B44BB60BB681A68FB681340002B34D09E
S3150800342CBB685B68B3F1FF3F24D0BB681A68FB68BE
S3150800343C1340002B1ED0BB681A68384B1B68134305
S3150800344C364A1360BB685B683A4AA2FB0323DA0860
S3150800345C334B1B68934238BF1346314A1360304BC3
S3150800346C1B68002B02D02E4B1B6800E00123274A51
S3150800347CD3620AE0BB681B682F48194622F046FF40
S3150800348CBB681B681846FFF73DF93B6901333B617E
S3150800349C3B69002BB4D0A8E01C4BDB6A002B53D03D
S315080034ACFFF724F90246214B1B685340234819465B
S315080034BC22F02CFFFFF71AF902461C4B1B685340E7
S315080034CC184600F03FFAFFF711F90346002B0CD00B
S315080034DCFFF70CF90246154B1B6853401846FFF7C5
S315080034EC11F92320FFF7DAFB46E0104B1A680B4B51
S315080034FC1B68134811461A4622F008FF034BDB6A71
S3150800350C1048194622F002FF36E000BF2C2C00208A
S3150800351C71010020FCC2020808C30208682C0020AE
S3150800352C6C2C0020C803002038C30208702C00201D
S3150800353C68C30208CDCCCCCC94C30208D8C3020805
S3150800354C04C4020844C40208FFF7D0F80246284B04
S3150800355C1B6853407B607B68002B0AD0254879682A
S3150800356C22F0D4FE786800F0C9F97868032100F0D7
S3150800357C93FF2320FFF792FB1F4BDB6A002B05D02A
S3150800358C1D4BDB6A013B1C4AD3622EE02DE0FFF78C
S3150800359CADF8F8601948F96822F0B8FEFB68002BFC
S315080035AC01D1032300E00023FB70FB78184600F0DA
S315080035BC27FA0346FB70FB781846FFF755FB0346BC
S315080035CC0F48194622F0A2FEFB78002B03D12420C3
S315080035DCFFF764FB09E04920FFF760FB05E016F0EE
S315080035EC1FFAFFF77BFC00E000BF1837BD4680BD0D
S315080035FC702C002070C402082C2C00209CC40208D5
S3150800360CC8C4020880B582B000AF0346FB800448E4
S3150800361C044940F20112FEF7B3FF0837BD4680BDD8
S3150800362CC8C50208CCC5020880B400AFBD465DF813
S3150800363C047B704780B500AF044B1B78002B01D177
S3150800364CFFF7F2FF024B184680BD00BF752C002011
S3150800365C08C5020880B500AF0BF042FB0BF0E4FB83
S3150800366C80BD00BF80B582B000AF78607B681B6CEC
S3150800367C184625F07BF97B681B6CDB78184625F019
S3150800368C99F900BF25F0E4F90346002BFAD125F089
S3150800369CCBF91D4B1B78002B04D17B68DB6E1846C7
S315080036AC15F0E4FE7B685B6C184625F087FA7B6898
S315080036BC5B6C184625F082FA7B689B6C184627F0DB
S315080036CC85F87B68DB6D184627F0C0FB0E4B1B781C
S315080036DC002B04D17B685B6E18460AF0B5FA7B683A
S315080036EC5B6D184627F002F97B685B6F9B69184679
S315080036FC00F08AFC7B681B6D184627F0FDFC25F04C
S3150800370CC3FA0837BD4680BD752C002080B582B03B
S3150800371C00AF7860364B1B78002B04D17B689B6D09
S3150800372C184625F01BFD324B1B78002B01D10AF0ED
S3150800373C05F82F4B1B78002B01D107F0B5FE2C4B47
S3150800374C1B78002B01D107F0F9FE7B685B6FDB69F0
S3150800375C184626F02DFA264B1B78002B05D17B68CC
S3150800376C5B6F1B6A184600F06BFF214B1B78002B0E
S3150800377C05D17B685B6F5B6A184602F00FFE1C4B23
S3150800378C1B78002B04D17B68DB6C18460DF022FAEB
S3150800379C174B1B78002B05D17B685B6F1B6B184688
S315080037AC13F088F8124B1B78002B05D17B685B6FDE
S315080037BC9B6A18460FF030FA0D4B1B78002B04D178
S315080037CC7B689B6E184616F0C7FF094B1B78002BB7
S315080037DC01D1FDF781FF064B1B78002B04D17B68C2
S315080037EC1B6F18461FF09AFD0837BD4680BD00BFF3
S315080037FC752C002080B582B000AF78607B68DB6FD3
S3150800380C18461FF019FA0E4B1B78002B01D116F02F
S3150800381C07F90B4B1B78002B04D17B689B6F18465A
S3150800382C0BF056FB064B1B78002B05D17B685B6FA0
S3150800383CDB6A18460CF036FD0837BD4680BD00BF5E
S3150800384C752C002080B400AFBD465DF8047B70472C
S3150800385C80B400AFBD465DF8047B704780B400AFFA
S3150800386CBD465DF8047B704780B400AFBD465DF875
S3150800387C047B704780B400AFBD465DF8047B704787
S3150800388C80B400AFBD465DF8047B704780B483B046
S3150800389C00AF78600C37BD465DF8047B704700BFF7
S315080038AC80B483B000AF78600C37BD465DF8047BF6
S315080038BC704700BF80B584B000AF786007F10F037E
S315080038CC1846FEF79BFF0346002B05D00848094906
S315080038DC40F2C522FEF754FEFB7B222B05D0064888
S315080038EC044940F2C522FEF74BFE1037BD4680BD93
S315080038FCC8C50208CCC5020838C6020880B584B00B
S3150800390C00AF786007F10F031846FEF777FF0346FA
S3150800391C002B05D00848094940F2D122FEF730FEA3
S3150800392CFB7B222B05D00648044940F2D122FEF730
S3150800393C27FE1037BD4680BDC8C50208CCC502088F
S3150800394C38C6020880B584B000AF786007F10F035B
S3150800395C1846FEF753FF0346002B05D008480949BD
S3150800396C40F2DB22FEF70CFEFB7B222B05D0064829
S3150800397C044940F2DB22FEF703FE1037BD4680BD34
S3150800398CC8C50208CCC5020838C6020880B584B07A
S3150800399C00AF786007F10B031846FEF72FFF0346B6
S315080039AC002B05D01248134940F2F122FEF7E8FD28
S315080039BCFB7A212B05D010480E4940F2F122FEF76E
S315080039CCDFFDFFF737FEF860F868FFF74BFE25F0CA
S315080039DCAFF80246094B1B68B2FBF3F3184606F020
S315080039EC15FBF868FFF792FE1037BD4680BD00BF81
S315080039FCC8C50208CCC502084CC6020870BC020829
S31508003A0C80B584B000AF0346FB7107F10F03184667
S31508003A1CFEF7F4FE0346002B05D00A480A4940F285
S31508003A2C1932FEF7ADFDFB7B232B05D0074806495B
S31508003A3C40F21932FEF7A4FDFB7918461037BD463D
S31508003A4C80BD00BFC8C50208CCC5020860C60208FE
S31508003A5C80B582B000AFFB1D1846FEF7CFFE0346B5
S31508003A6C002B05D009480A4940F22A32FEF788FD90
S31508003A7CFB79502B05D00748054940F22A32FEF748
S31508003A8C7FFD26F013FF0837BD4680BDC8C5020862
S31508003A9CCCC5020874C6020880B582B000AFFB1DFF
S31508003AAC1846FEF7ABFE0346002B05D009480A4913
S31508003ABC40F24132FEF764FDFB79502B05D00748DE
S31508003ACC054940F24132FEF75BFD002318460837DC
S31508003ADCBD4680BDC8C50208CCC5020874C6020816
S31508003AEC80B582B000AF78600220FEF70BFE00BFEF
S31508003AFC0837BD4680BD00BF80B487B000AFF860FC
S31508003B0CB96011461A460B46FB8013467B71002397
S31508003B1CFB82FB68002B24D07B79012B01D0FB8818
S31508003B2C01E04FF6FF73FB8200233B6115E0FB8A2D
S31508003B3C1B029AB2FB8A1B0A9BB21946FB681B78B6
S31508003B4C4B40DBB20A4931F813305340FB82FB6811
S31508003B5C0133FB603B6901333B613A69BB689A42A6
S31508003B6CE5D3FB8A18461C37BD465DF8047B7047BF
S31508003B7C88C6020880B487B000AFF860B9607A606E
S31508003B8CFB7000237B61FB68002B25D0FB78012B8F
S31508003B9C02D07B68DB4301E04FF0FF337B610023E7
S31508003BAC3B6112E07B691A0AFB681B7819467B692C
S31508003BBC4B40DBB20C4951F8233053407B61FB6810
S31508003BCC0133FB603B6901333B613A69BB689A4236
S31508003BDCE8D37B69DB437B617B6918461C37BD469A
S31508003BEC5DF8047B704700BF88C8020880B400AF34
S31508003BFC72B6064B1B78DBB2DBB20133DBB2DAB238
S31508003C0C024B1A70BD465DF8047B70475C2D00208C
S31508003C1C80B400AF0A4B1B78002B0DD0084B1B78D1
S31508003C2CDBB2DBB2013BDBB2DAB2054B1A70044BE2
S31508003C3C1B78002B00D162B6BD465DF8047B704735
S31508003C4C5C2D002080B584B000AF7860094A7B688B
S31508003C5C52F82330BB60BB6898470346012B02D148
S31508003C6C0123FB7301E00023FB73FB7B184610371B
S31508003C7CBD4680BD9001002080B586B000AF0346D6
S31508003C8CFB802F4B1A68B7F906301B0113443B61AE
S31508003C9C2C4B1B685B68FB604FF0FF337B613B6901
S31508003CAC1B681846FFF7CEFF0346FB72FB7A012BFF
S31508003CBC1FD13B695B68002B15DB3B695B681A46B1
S31508003CCC13465B0013449B001A46FB6813441B7A85
S31508003CDC002B05D0B7F906301B4AD35C012B02D052
S31508003CEC3B695B687B61B7F90630174A0121D154E9
S31508003CFC21E0FB7A002B1ED13B699B68002B15DB58
S31508003D0C3B699B681A4613465B0013449B001A468C
S31508003D1CFB6813441B7A002B05D0B7F906300A4A00
S31508003D2CD35C002B02D03B699B687B61B7F90630E4
S31508003D3C054A0021D1547B6918461837BD4680BD03
S31508003D4C802C00207C2C00208C2C002080B584B084
S31508003D5C00AF78607B681B68054A52F82330FB6015
S31508003D6CFB6878689847034618461037BD4680BDE9
S31508003D7C7801002080B487B000AFF860B9607A602B
S31508003D8C0023FB75FB6893F83830052B1AD8FB68AB
S31508003D9C93F838301946FB687A6843F82120FB6893
S31508003DAC93F83830FA6806339B001344BA685A609D
S31508003DBCFB6893F838300133DAB2FB6883F838209D
S31508003DCC0123FB75FB7D18461C37BD465DF8047B45
S31508003DDC704700BF80B487B000AFF860B9607A60EE
S31508003DEC0023FB75FB6893F83830002B2DD0FB6845
S31508003DFC93F83830013BDAB2FB6883F83820FB6855
S31508003E0C93F838301A46FB6853F822207B681A60F8
S31508003E1CFB6893F83830FA6806339B0013445A68E3
S31508003E2CBB681A60FB6893F83830FA6806339B004F
S31508003E3C134400225A60FB6893F838301946FB681D
S31508003E4C002243F821200123FB75FB7D18461C37FD
S31508003E5CBD465DF8047B704780B598B000AF7860B6
S31508003E6C564B1B685B68BB650023BB647B687B642D
S31508003E7C002387F85F3007F108033C221846002117
S31508003E8C27F01AFD72E07B6C1A4613465B00134446
S31508003E9C9B001A46BB6D13441A68BB6C9B001344F3
S31508003EAC1B687B65BB6C0133BB647B6D9B7E012BEE
S31508003EBC2ED0022B3ED0002B57D1786DFFF746FF3C
S31508003ECC034687F853307B6DDB68002B12DB97F8BB
S31508003EDC5330012B07D17B6DDB689BB21846012149
S31508003EEC15F016FF06E07B6DDB689BB218460021C1
S31508003EFC15F00EFF7B6D5B7F012B05D197F85330C0
S31508003F0C012B01D1012300E0002387F85F302DE057
S31508003F1C7A6CBB6C07F10801084611461A46FFF77E
S31508003F2C29FF0346012B04D17B6D9B687B64002318
S31508003F3CBB641BE07B6D1B8B1BB21846FFF79CFE04
S31508003F4CF864FB6C002B0FDB7A6CBB6C07F1080171
S31508003F5C084611461A46FFF70DFF0346012B03D1F7
S31508003F6CFB6C7B640023BB6400E000BF97F85F30F2
S31508003F7C002B0DD17B6C1A4613465B0013449B0031
S31508003F8C1A46BB6D13445A68BB6C9A423FF67BAF14
S31508003F9C002387F85F3007F1080107F1440207F19F
S31508003FAC4803084611461A46FFF714FF0346012B29
S31508003FBC3FF468AF6037BD4680BD00BF7C2C00203F
S31508003FCC80B483B000AF0023FB71084B1B78002B21
S31508003FDC04D10123FB71054B01221A70FB79184693
S31508003FEC0C37BD465DF8047B704700BF842C002057
S31508003FFC80B400AF034B00221A70BD465DF8047BF3
S3150800400C704700BF842C002080B584B000AF786060
S3150800401C7B68002B06D12A200021002202230AF0F5
S3150800402CA1FE58E07B681B68002B06D12A200021CC
S3150800403C002206230AF096FE4DE07B681B68DB68B7
S3150800404C052B06D92A200021002206230AF08AFE0F
S3150800405C41E0224A7B6813607B681B68204A136020
S3150800406C7B681B689B681F4A13600023FB600DE086
S3150800407C1C4B1A68FB681B011344197B1A4AFB680C
S3150800408C13440A461A70FB680133FB60144B1B6811
S3150800409CDA68FB689A42EBD80023FB600CE07B6875
S315080040AC9A68FB689B0013441A681049FB6841F828
S315080040BC2320FB680133FB60FB68022BEFD90C4B02
S315080040CC00221A700B4B00221A700B4B00221A7026
S315080040DC0A4B00221A701037BD4680BD7C2C002076
S315080040EC782C0020802C00208C2C0020942C00206E
S315080040FC852C0020892C0020842C0020740100209B
S3150800410C80B400AF034B01221A70BD465DF8047BE0
S3150800411C704700BF7401002080B584B000AF2C4BEB
S3150800412C1B78002B06D02A200021032201230AF033
S3150800413C19FE4AE0274B1B78012B05D126480FF0B0
S3150800414C6FF8244B00221A70FFF750FDFFF738FF63
S3150800415C0346FB72FFF75CFD00F044F90023FB6095
S3150800416C1BE01E4B1B681A68FB685B0013441B8814
S3150800417C3B81B7F90830002B00DA14E0B7F90830A0
S3150800418C1846FFF779FD78607B68002B02DB7868A8
S3150800419CFFF762FEFB680133FB60104B1B68DA689D
S315080041ACFB689A42DDD80E4B1B78012B08D10D4BB8
S315080041BC1B78094819460EF0D1FE094B00221A70D5
S315080041CCFB7A012B01D1FFF713FF1037BD4680BDD3
S315080041DC7401002075010020882C0020782C002002
S315080041EC852C0020892C002080B584B000AF78601F
S315080041FC7B685B69FB60FB68002B11D00CE0FB68E5
S3150800420C1A1DFA601B689BB21548194601220FF055
S3150800421C21F8144B01221A70FB681B68002BEEDA86
S3150800422C7B681B69FB60FB68002B11D00CE0FB68F4
S3150800423C1A1DFA601B689BB20948194600220FF032
S3150800424C09F8084B01221A70FB681B68002BEEDA7A
S3150800425C7B689A7F044B1A701037BD4680BD00BF29
S3150800426C882C0020852C0020892C002080B582B053
S3150800427C00AF78607868FCF781F90346184608376A
S3150800428CBD4680BD80B582B000AF78607868FCF713
S3150800429C8BF9034618460837BD4680BD80B582B0F3
S315080042AC00AF78607868FFF79FFF00231846083739
S315080042BCBD4680BD80B582B000AF78600020022173
S315080042CC0CF0FEF8034618460837BD4680BD00BFFD
S315080042DC80B582B000AF7860002009F057FD002346
S315080042EC18460837BD4680BD80B582B000AF7860E9
S315080042FC012009F04BFD002318460837BD4680BD42
S3150800430C80B400AF064B1B68DBB2022B0CBF012333
S3150800431C0023DBB21846BD465DF8047B704700BF28
S3150800432C942C002080B400AF064B5B68DBB2002BE4
S3150800433C14BF01230023DBB21846BD465DF8047B87
S3150800434C704700BF942C002080B400AF064B1B6846
S3150800435CDBB2012B0CBF01230023DBB21846BD468A
S3150800436C5DF8047B704700BF942C002080B400AF26
S3150800437C064B1B68DBB2002B0CBF01230023DBB2F8
S3150800438C1846BD465DF8047B704700BF942C002088
S3150800439C80B400AF064B9B68DBB2042B0CBF012321
S315080043AC0023DBB21846BD465DF8047B704700BF98
S315080043BC942C002080B582B000AFFB1D1846FFF781
S315080043CC55FFFB7918460837BD4680BD80B582B0C7
S315080043DC00AFFB1D1846FFF755FFFB791846083743
S315080043ECBD4680BD80B500AFFFF7E4FF03461A460D
S315080043FC044B5A60FFF7EAFF03461A46014B9A60CC
S3150800440C80BD00BF942C002080B582B000AF034657
S3150800441C0A46FB711346BB71124B1B78002B06D050
S3150800442C2A2000210E2201230AF09CFC17E0BB79F6
S3150800443C022B0CD0BB79012B09D0BB79002B06D0EB
S3150800444C2A2000210E2205230AF08CFC07E0FB79B2
S3150800445C002B00D003E0BB79034A136000BF083772
S3150800446CBD4680BD74010020942C002080B582B016
S3150800447C00AF0346FB71074B1B78002B06D02A208E
S3150800448C00210F2201230AF06DFC00BF0837BD4638
S3150800449C80BD00BF7401002080B582B000AF786083
S315080044AC0B46FB70064B1B78002B06D02A200021E6
S315080044BC102201230AF056FC00BF0837BD4680BD02
S315080044CC7401002080B582B000AF03460A46FB7122
S315080044DC1346BB71064B1B78002B06D02A200021ED
S315080044EC052201230AF03EFC00BF0837BD4680BDF5
S315080044FC7401002080B500AF6FF00D00002106F0A6
S3150800450CC3F880BD80B48DB000AF78607B681B683B
S3150800451CFB627B685B68BB627B689B687B627B68BB
S3150800452CDB683B627B681B69FB617B685B69BB610B
S3150800453C7B689B697B617B68DB693B610C4B9B6A7F
S3150800454C03F48023002B00D0FEE7094B9B6A03F487
S3150800455C0033002B00D0FEE7054B9B6A03F400439F
S3150800456C002B03D0024B9B6BFB60FEE7FEE700BFFC
S3150800457C00ED00E072B61EF0040F0CBFEFF30880D6
S3150800458CEFF30980004908471145000880B500AFCC
S3150800459C6FF00B00014906F077F880BD00ED00E0DE
S315080045AC80B500AF6FF00A00014906F06DF880BDC2
S315080045BC00ED00E080B500AF6FF00900014906F088
S315080045CC63F880BD00ED00E080B483B000AF78607E
S315080045DCFF2318460C37BD465DF8047B704700BFB1
S315080045EC80B485B000AF03463960FB710123FB73B9
S315080045FC3B68002B1AD00023BB7314E00F4B1B68C7
S3150800460C9968BA7B13469B0013449B000B441B7C8E
S3150800461CFA799A4204D13B68BA7B1A700023FB7369
S3150800462CBB7B0133BB73BB7B002BE7D0FB7B1846EC
S3150800463C1437BD465DF8047B704700BFA02C0020DC
S3150800464C80B584B000AF78607B68002B06D13C201F
S3150800465C0021012214230AF085FB1AE00E4A7B6816
S3150800466C13600023FB730EE0FB7B0C4A5B001344C0
S3150800467C01225A70FB7B094A5B00134400229A708C
S3150800468CFB7B0133FB73FB7B002BEDD0034B012229
S3150800469C1A701037BD4680BDA02C0020A42C002013
S315080046AC80B584B000AF03460A46FB711346BB714E
S315080046BC204B1B78012B06D03C20002117221E23E9
S315080046CC0AF050FB33E0BB79022B0CD0BB79032BD9
S315080046DC09D0BB79012B06D03C20002117221523C3
S315080046EC0AF040FB23E00023FB73FA7907F10F036A
S315080046FC10461946FFF774FF0346002B06D03C20DC
S3150800470C002117220E230AF02DFB10E00A4BDB685A
S3150800471C002B06D0084BDB68F97BBA79084611469C
S3150800472C9847FB7B034A5B001344BA795A701037D7
S3150800473CBD4680BDA42C0020A4CD020880B584B04B
S3150800474C00AF03460A46FB711346BB71344B1B7804
S3150800475C012B07D03C20002103221E230AF002FB62
S3150800476C012358E0FB79002B07D03C2000210322BB
S3150800477C0F230AF0F7FA01234DE0BB79022B0DD073
S3150800478CBB79032B0AD0BB79012B07D03C2000211F
S3150800479C032215230AF0E6FA01233CE0214B1B6899
S315080047AC9968FA7913469B0013449B000B441B7CAF
S315080047BC7B73FB791A4A5B0013445B783B730023C3
S315080047CCFB730023BB73BB79022B0CD0032B0DD0C8
S315080047DC012B0ED13B7B032B02D10323FB730BE07E
S315080047EC0123FB7308E00023FB7305E00223FB732C
S315080047FC02E00123BB7300BFBB7B002B0AD17A7B7B
S3150800480CFB7B1046194625F049FC0346012B01D1C2
S3150800481C0123BB73BB7B18461037BD4680BD00BF52
S3150800482CA42C0020A02C002080B588B000AF03462D
S3150800483C3960FB800123BB770023FB777A4B1B7807
S3150800484C012B07D03C20002105221E230AF08AFAE8
S3150800485C0123E5E03B68002B07D13C20002105220B
S3150800486C14230AF07FFA0123DAE0FA886F4B1B68E7
S3150800487C1B689B689A4207D33C20002105223223E9
S3150800488C0AF070FA0123CBE0684B1B681B68196A9F
S3150800489CFA8813469B0013449B000B44BB61BB6907
S315080048AC1B681B685B78FB75FB7D5F4A5B001344D2
S315080048BC9B78002B06D0FB7D5B4A5B0013449B78E8
S315080048CC012B07D13C200021052246230AF04AFA7F
S315080048DC0123A5E0FB7D544A5B0013445B78012B4E
S315080048EC07D13C200021052246230AF03BFA012376
S315080048FC96E0FB7D4C4A5B0013445B78022B0DD18A
S3150800490CFB7D494A5B0013449B78012B06D0FB7D43
S3150800491C454A5B0013449B78002B01D10123FB7796
S3150800492CFB7F002B7BD1FB7F002B78D1FB7D3E4A8E
S3150800493C5B0013449B78042B06D0FB7D3A4A5B003C
S3150800494C13449B78052B16D1BB695B68B3F1FF3F03
S3150800495C0FD0BB695B68364A52F82330002B08D057
S3150800496CBB695B68324A52F82330BA699289104699
S3150800497C98470023BB77BB7F012B4ED1BB699B683D
S3150800498CFB60BB699B7B002B04D1FB6843F000439F
S3150800499CFB6010E0BB699B7B032B04D1FB6843F0DF
S315080049AC8043FB6007E0BB699B7B012B03D1FB684B
S315080049BC43F04043FB603B689A88BB691B7C9BB2FF
S315080049CC9A4204D23B689B88DBB2BB7202E0BB6995
S315080049DC1B7CBB723B681B683B61FB883B81BB69D4
S315080049EC1B681B689A7807F108031046194625F0C8
S315080049FC9BFC0346BB75BB7D022B02D10123FB77BF
S31508004A0C0DE0BB7D012B02D10123FB7707E0BB7DB3
S31508004A1C002B04D10023FB7701E0BB7FFB77FB7FE0
S31508004A2C18462037BD4680BDA42C0020A02C00209B
S31508004A3C8CCD020880B584B000AF0346FB802A4BA8
S31508004A4C1B78012B06D03C20002113221E230AF0CA
S31508004A5C89F946E0FA88254B1B681B689B689A42BD
S31508004A6C06D33C20002113220D230AF07BF938E0EB
S31508004A7C1E4B1B681B68196AFA8813469B0013445D
S31508004A8C9B000B44FB60FB681B681B685A7807F194
S31508004A9C0B031046194600F01FFA0346002B20D1CB
S31508004AACFB7A022B08D0FB7A032B05D0FB7A042B56
S31508004ABC02D0FB7A052B14D1FB685B68B3F1FF3F78
S31508004ACC0FD0FB685B680A4A52F82330002B08D0D3
S31508004ADCFB685B68064A52F82330FA6892891046D6
S31508004AEC98471037BD4680BDA42C0020A02C00206A
S31508004AFC8CCD020880B489B000AFF8607A603B6050
S31508004B0C0B467B810023FB777B68DB0FDBB2FB76DE
S31508004B1C7B6823F000437B610023BB8322E0BB8BBD
S31508004B2C1B01FA6813445A687B699A4217D3BB8BE4
S31508004B3C1B01FA6813441A687B699A420FD8BB8B17
S31508004B4C1B01FA681344DB7BFA7E9A4207D10123D0
S31508004B5CFB77BB8B1B01FA681A443B681A60BB8B44
S31508004B6C0133BB83BA8B7B899A4202D2FB7F002B1B
S31508004B7CD5D0FB7F18462437BD465DF8047B7047B5
S31508004B8C80B58AB000AFB9607B600346FB731346E9
S31508004B9CBB73002387F82730714B1B78012B06D083
S31508004BAC3C20002114221E230AF0DCF8D4E0FA7B00
S31508004BBC6C4B1B681B689B69DB689A4206D33C20C6
S31508004BCC002114220C230AF0CDF8C5E0654B1B68AE
S31508004BDC1B689B699A68FB7B5B0013441B884FF622
S31508004BECFF72934206D13C20002114220C230AF0B2
S31508004BFCB9F8B1E05B4B1B681B689B691A68594B83
S31508004C0C1B681B689B699968FB7B5B000B441B88BC
S31508004C1C1B0113443B62BB68002B05DABB6823F007
S31508004C2C4043B3F1005F08D2BB68002B07DBBB68B7
S31508004C3C23F04043B3F5006F01D3012300E00023B2
S31508004C4CFB77FB7F012B04D0BB6803F08043002B5A
S31508004C5C06D03C20002114220A230AF083F87BE0B4
S31508004C6CBB7B082B06D93C20002114220B230AF007
S31508004C7C79F871E07B68002B06D13C2000211422C0
S31508004C8C14230AF06FF867E03B6A9A7807F11E035B
S31508004C9C1046194600F020F90346002B08D1BB7FB5
S31508004CAC002B05D0BB7F022B02D0BB7F042B01D176
S31508004CBC012300E00023002B4ED13B6A9B683B6125
S31508004CCC3B6A9B89002B19D03B6A1B78012B03D0B6
S31508004CDC3B6A5B78002B03D1012387F827300DE05C
S31508004CEC3B6A99683B6A9A8907F11003084611468C
S31508004CFCBA68FFF7FFFE034687F8273097F8273080
S31508004D0C002B29D03B699B7BBA7B9A4206D23C2066
S31508004D1C002114220B230AF025F81DE03B699B6839
S31508004D2CB3F1FF3F18D03B699B680F4A52F8233002
S31508004D3C002B11D0BB7B9BB23B837B687B613B69A9
S31508004D4C9B68094A52F823303A69918907F114028B
S31508004D5C084611469847FFE72837BD4680BD00BF71
S31508004D6CA42C0020A02C002074CD020880B584B099
S31508004D7C00AF03460A46FB711346BB710023FB734F
S31508004D8C544B1B78012B07D03C20002109221E23EB
S31508004D9C09F0E8FF012399E0FB79002B07D03C20AA
S31508004DAC002109220F2309F0DDFF01238EE0FB7990
S31508004DBC484A5B0013449B787B737B7BBB73BB793C
S31508004DCC062B79D801A252F823F000BFF54D00083E
S31508004DDC014E0008274E00084D4E0008994E000853
S31508004DECFB4D0008734E00080023BB7367E00323D2
S31508004DFCBB7364E07B7B032B02D10223BB730BE0F2
S31508004E0C7B7B012B02D10023BB7305E07B7B052B37
S31508004E1C02D10423BB7352E051E07B7B022B02D1F7
S31508004E2C0323BB730BE07B7B002B02D10123BB73E3
S31508004E3C05E07B7B042B02D10523BB733FE03EE0E8
S31508004E4C7B7B032B02D07B7B052B02D10123BB7307
S31508004E5C08E07B7B022B02D07B7B042B02D1002340
S31508004E6CBB732CE02BE07B7B002B02D07B7B022BCD
S31508004E7C02D10423BB7308E07B7B032B02D07B7B1C
S31508004E8C012B02D10523BB7319E018E07B7B002BA1
S31508004E9C02D10223BB730EE07B7B012B02D07B7BFA
S31508004EAC052B02D10323BB7305E07B7B042B02D1B4
S31508004EBC0223BB7303E002E00123FB7300BFFB79FB
S31508004ECC044A5B001344BA7B9A70FB7B184610376E
S31508004EDCBD4680BDA42C002080B582B000AF034629
S31508004EEC3960FB71164B1B78012B07D03C2000212F
S31508004EFC0A221E2309F036FF01231DE0FB79002B3D
S31508004F0C07D03C2000210A220F2309F02BFF01238E
S31508004F1C12E03B68002B07D13C2000210A221423FF
S31508004F2C09F020FF012307E0FB79054A5B001344CF
S31508004F3C9A783B681A70002318460837BD4680BD18
S31508004F4CA42C002080B584B000AF0346FB71002367
S31508004F5CFB731A4B1B78012B06D03C20002116221A
S31508004F6C1E2309F0FFFE26E0FA7907F10F03104617
S31508004F7C1946FFF735FB0346002B06D03C200021CB
S31508004F8C16220E2309F0EEFE15E0FB7B0B4A5B009E
S31508004F9C13445B78002B05D0FB7B084A5B00134453
S31508004FAC01225A70064B1B68002B04D0044B1B6855
S31508004FBCFA7B104698471037BD4680BDA42C0020B6
S31508004FCCA4CD020880B483B000AF7860064B1B688A
S31508004FDC1B681B687A68B2FBF3F318460C37BD4698
S31508004FEC5DF8047B704700BF302D002080B485B077
S31508004FFC00AF786039600023FB730023BB73012371
S3150800500C7B737B681B78002B06D0012B09D13B6878
S3150800501C1B681B78BB7307E03B681B685B78BB7324
S3150800502C02E000237B7300BF7B7B002B1AD0BB7B73
S3150800503C03F03003102B0CD0102B02DC002B05D000
S3150800504C10E0202B08D0302B09D00BE00123FB7382
S3150800505C08E00223FB7305E00323FB7302E0042339
S3150800506CFB7300BFFB7B18461437BD465DF8047B03
S3150800507C704700BF80B487B000AFF8600B467A6003
S3150800508CFB720023FB8201237B7500233B75FB68AF
S3150800509C1B78002B04D0012B05D100233B7506E0A9
S315080050AC01233B7503E00023FB8200237B757B7D84
S315080050BC012B33D1FB7A012B02D0022B16D02AE016
S315080050CC7B689B88082B07D97B681A683B7D01335C
S315080050DC13441B78FB8221E07B681A683B7D1344DA
S315080050EC1B789BB203F00F03FB8217E07B681A68E8
S315080050FC3B7D013313441B789AB27B6819683B7D58
S3150800510C0B441B789BB203F00F039BB21B029BB29A
S3150800511C1344FB8202E00023FB8200BFFB8A18467D
S3150800512C1C37BD465DF8047B704700BF80B483B05E
S3150800513C00AF78607B6801221A747B680022DA72E9
S3150800514C7B6800225A807B6800221A807B680022C2
S3150800515C9A827B680022DA827B6800221A837B6833
S3150800516C0022DA847B68002283F824207B684FF6B9
S3150800517CFF721A850C37BD465DF8047B704700BF75
S3150800518C80B483B000AF78607B6801221A747B68A0
S3150800519C0022DA727B6800225A807B6800221A8009
S315080051AC7B6800229A827B680022DA827B6800225E
S315080051BC1A837B68022283F824207B684FF6FF72D9
S315080051CC1A850C37BD465DF8047B704780B586B0EA
S315080051DC00AFF860B9607A607B803B6A00221A805F
S315080051ECBB681B7C032B0DD0FB689988BB689A8A15
S315080051FCBB681833084611461A4611F063F903467C
S3150800520CFB7510E0204B00229A801F4B00221A6077
S3150800521CFB689A88BB68183310461B491A4611F066
S3150800522C2BF90346FB75FB7D002B27D1164A7B68A9
S3150800523C1360BB681B8B7A889A420ED8124A7B88F5
S3150800524C9380FB689A88BB68183310460E491A4631
S3150800525C11F012F90346FB7501E00223FB75FB7D81
S3150800526C002B0BD1084B9A883B6A1A80BB68DA8AE2
S3150800527C054B9B8813449AB2BB68DA82FB7D1846A9
S3150800528C1837BD4680BD00BF342D002080B487B0CA
S3150800529C00AFF860B9601346FB800023BB75FB684A
S315080052AC93F82A30012B02D14023FB7501E0082321
S315080052BCFB75FB7D9BB2FA889A4218D200233B6198
S315080052CC11E03B69BA6813441978FA683B691344C8
S315080052DC18330A469A70FB68FA885A840123BB75F8
S315080052EC3B6901333B61FA883B699A42E9DCBB7D31
S315080052FC18461C37BD465DF8047B704780B586B0EA
S3150800530C00AFF860B9607A60FB689B7C012B12D100
S3150800531C7B689B88FB750BE07B681A68FB7D1344DE
S3150800532C104A12681268127C1A70FB7D0133FB75E1
S3150800533CFB7D072BF0D97B6808229A80FB681B89B2
S3150800534C1A46BB68DA60BB680122DA72FB685B88AE
S3150800535C18467968FFF768FA034618461837BD46A3
S3150800536C80BD00BF302D002080B586B000AFF86038
S3150800537CB9607A60FB681B7D012B19D17B689B8809
S3150800538C7B610BE07B681A687B691344124A1268C6
S3150800539C1268127C1A707B6901337B61FB68DB88A7
S315080053AC1A467B699A42EDDCFB68DA887B689A8038
S315080053BCFB685B891A46BB68DA60BB680122DA723D
S315080053CCFB681B8818467968FFF72EFA03461846B9
S315080053DC1837BD4680BD00BF302D002080B58AB079
S315080053EC00AFF860B9601346FB71002387F82730C5
S315080053FC012387F823300023BB8407F11003BB6114
S3150800540CFB689B79002B0CD197F827305A1C87F828
S3150800541C27201946BB681A7A07F128030B4403F8A8
S3150800542C182CFB79032B00F2B28001A252F823F058
S3150800543C4D5400089B5500083B550008715500084B
S3150800544C97F827305A1C87F8272007F128021344A7
S3150800545C302203F8182CFB689B79002B18D1BB68F3
S3150800546C93F82A30012B09D1BB681B8B594AA2FB2E
S3150800547C03231B099BB20133BB8425E0BB681B8B3A
S3150800548C554AA2FB03239B089BB20133BB841BE042
S3150800549CBB6893F82A30012B0AD1BB681B8B5B08B7
S315080054AC4E4AA2FB03231B099BB20133BB840BE0B8
S315080054BCBB681A8B4A4BA3FB0213D21A5208134425
S315080054CC9B089BB20133BB84FB68DB799BB2BA8C15
S315080054DC9A4202D9FB68DB79BB84FB68DA79BB682C
S315080054EC9A7297F827305A1C87F827201946BB68F2
S315080054FC9A7A07F128030B4403F8182C97F82730E7
