S00D00004F73506572662E73313998
S3150800000020490020B5030008A91000082911000896
S315080000104111000855110008691100080000000088
S31508000020000000000000000000000000290400088D
S315080000302904000800000000F51A0008391B00080A
S31508000040391B0008391B0008391B0008391B000832
S31508000050391B0008391B0008391B0008391B000822
S31508000060391B0008391B0008391B0008391B000812
S31508000070391B0008391B0008391B0008391B000802
S31508000080391B0008391B0008391B0008391B0008F2
S31508000090391B0008391B0008391B0008391B0008E2
S315080000A0391B0008391B0008391B0008391B0008D2
S315080000B0391B0008391B0008391B0008391B0008C2
S315080000C0391B0008391B0008391B0008391B0008B2
S315080000D0391B0008391B0008391B0008391B0008A2
S315080000E0391B0008391B0008391B0008391B000892
S315080000F0391B0008391B0008391B0008391B000882
S31508000100391B0008391B0008391B0008391B000871
S31508000110391B0008391B0008391B0008391B000861
S31508000120391B0008391B0008391B0008391B000851
S31508000130391B0008391B0008391B0008391B000841
S31508000140391B0008391B0008391B0008391B000831
S31508000150391B0008391B0008391B0008391B000821
S31508000160391B0008391B0008391B0008391B000811
S31508000170391B0008391B0008391B0008391B000801
S31108000180391B0008391B0008391B000851
S3150800018C80B400AF034B1B781846BD465DF8047B5C
S3150800019C704700BFE827002080B500AF05F0ECF8E3
S315080001AC002002490D2205F083FD80BD0887000852
S315080001BC80B483B000AF0346FB71FEE780B586B00A
S315080001CC00AF0346FB7107F10A03184602F0EAFB77
S315080001DCFFF7D6FF0346FB75FB7D0D2B00D009E018
S315080001EC264B5B68BB82254B9B683B61234BDB68C4
S315080001FCFB6000BF224B1B781846204B5A682149D6
S3150800020C03010B441A601E4B1B7818461B4B9A6845
S3150800021C1C4903010B445A60194B1B781846174B9B
S3150800022CDA68184903010B4408331A60144B1B7817
S3150800023C144A1B0113440833FA7D9A71104B1B7828
S3150800024C7989104A1B01134408330A469A800C4BC9
S3150800025C1B780C4A1B0113440833FA79DA71084BDC
S3150800026C1B780133DAB2064B1A7000BF044B1B78A5
S3150800027C002BFBD11837BD4680BD00BFE8270020F0
S3150800028C3007002034070020B0B584B000AF786082
S3150800029C07F07EFBF860144B1B6818464FF00001FC
S315080002AC7B681A464FF0000302FB01F500FB03F4CA
S315080002BC2C44A0FB0223E1180B46104619460B4AA0
S315080002CC4FF0000307F070FB02460B461346BB6063
S315080002DC00BF07F05DFB0246FB68D21ABB689A4260
S315080002ECF7D31037BD46B0BD8847002040420F00F3
S315080002FC80B500AF032002F08BFB80BD80B584B0BF
S3150800030C00AF0023FB600023BB6000237B6000204A
S3150800031C0121012203F0D8F90346FB704FF00100C6
S3150800032C4FF0000100F0E8FF4FF001004FF000011C
S3150800033C01F028F9BB685A1CBA60642B18D105F071
S3150800034C8FF8FB680A33144AA2FB0312520964217C
S3150800035C01FB02F29B1AFB600023BB607B68DBB2D5
S3150800036C3720194607F018FA7B6883F001037B607F
S3150800037C002005F0F5FCFB6842F2107202FB03F351
S3150800038C054AA2FB03235B091846FFF77DFF0020ED
S3150800039C05F0F0FDC2E700BF1F85EB5180B500AF35
S315080003AC04F0F0FD80BD00BF134880F309880220D5
S315080003BC80F31488BFF36F8F104880F308881048B1
S315080003CC104B114D002102E06C5844500431421870
S315080003DC9A42F9D30D4A02E0002342F8043B0C4B2F
S315080003EC9A42F9D30B4A054C0B4B42F8043BA242F2
S315080003FCFBD301F067FA70472049002020590020EA
S3150800040C000000202C070020C09E000830070020A2
S3150800041C904700202049002042424242FEE7000055
S3150800042C80B48BB000AF786000237B6200233B62FC
S3150800043C0023FB610023BB6100237B6100233B6126
S3150800044C624B5B6803F00C03FB60FB68042B07D05C
S3150800045C082B09D0002B5ED17B685D4A1A605EE0DA
S3150800046C7B685C4A1A605AE0584B5B6803F4701355
S3150800047C7B62564B5B6803F480333B627B6A9B0C4E
S3150800048C7B627B6A0D2B03D07B6A02337B6201E0AD
S3150800049C06237B623B6A002B06D17B6A4E4A02FB1B
S315080004AC03F27B681A6035E0484BDB6A03F4803349
S315080004BCFB61464BDB6A03F00F030133BB61FB6937
S315080004CC002B09D1434ABB69B2FBF3F37A6A02FBE8
S315080004DC03F27B681A601DE03C4BDB6A03F0F00301
S315080004EC1B0901337B61394BDB6A03F470631B0A06
S315080004FC02333B61374A7B69B2FBF3F33A6902FB79
S3150800050C03F2BB69B2FBF3F37A6A02FB03F27B686C
S3150800051C1A6004E003E07B682D4A1A6000BF2B4B77
S3150800052C5B6803F0F003FB60FB681B09FB602B4A56
S3150800053CFB6813441B78DBB2BB607B681A68BB6824
S3150800054CDA407B685A60214B5B6803F4E063FB6016
S3150800055CFB681B0AFB60214AFB6813441B78DBB259
S3150800056CBB607B685A68BB68DA407B689A60174B35
S3150800057C5B6803F46053FB60FB68DB0AFB60174A95
S3150800058CFB6813441B78DBB2BB607B685A68BB6894
S3150800059CDA407B68DA600D4B5B6803F44043FB601A
S315080005ACFB689B0BFB600E4AFB6813441B78DBB29B
S315080005BCBB607B68DA68BB68B2FBF3F27B681A61CE
S315080005CC2C37BD465DF8047B704700BF001002400F
S315080005DC00127A0040787D0100093D0000000020D9
S315080005EC1000002080B483B000AF78600B46FB7017
S315080005FCFB78002B06D00949084B9A697B6813438C
S3150800060C8B6106E00549054B9A697B68DB43134009
S3150800061C8B610C37BD465DF8047B704700100240B1
S3150800062C80B584B000AFF860B9607A60252001F017
S3150800063C6DF91037BD4680BD80B582B000AF012379
S3150800064CFB71112000F052F900F0DEFB01F038F8CE
S3150800065C03F0FAFC00F0C8FB0246274B5A60FB79FC
S3150800066C012B46D1244B5B68184600F0D5FB06F0E7
S3150800067CF3FC0346BB71BB79032B17D801A252F8BE
S3150800068C23F000BFA1060008B1060008A906000859
S3150800069CA9060008012000F07BF80CE0022000F007
S315080006AC77F808E0082000F073F804E0BB791846E0
S315080006BC00F0EAFC00BF104B01221A700E4B5B6867
S315080006CC1A7E0D4B5B685B7E1046194600F016F8D1
S315080006DC03467B717B79002B0BD1074B00225A61A1
S315080006EC054B00229A61044B5B68DB69184601F0DE
S315080006FCF1F80837BD4680BDA827002080B483B022
S3150800070C00AF03460A46FB711346BB71064AFB79D2
S3150800071C1372054ABB799377002318460C37BD46E6
S3150800072C5DF8047B704700BFA827002080B483B00F
S3150800073C00AF7860094B1A6A7B68DB431340074A9B
S3150800074C1362064B9A6A7B68DB431340034A93622F
S3150800075C0C37BD465DF8047B704700BFA827002000
S3150800076C80B400AF034B1B6A1846BD465DF8047B84
S3150800077C704700BFA827002080B400AF034B9B6AC4
S3150800078C1846BD465DF8047B704700BFA8270020B5
S3150800079C80B483B000AF7860054B9A6A7B681343C4
S315080007AC034A93620C37BD465DF8047B704700BF5D
S315080007BCA827002080B500AF0C4B1B7C112B04D14D
S315080007CC122000F093F807F04FF8084B1B7C122BFD
S315080007DC09D1064B5B68184600F046FB034B5B6871
S315080007EC184600F04BFB00F0B1F880BDA827002096
S315080007FC80B483B000AF7860054B1A7C7B681A709E
S3150800080C002318460C37BD465DF8047B704700BFBD
S3150800081CA827002080B483B000AF0346FB710A4BAF
S3150800082C1B7F002B08D1084B5A69FB79012101FA69
S3150800083C03F31343044A5361002318460C37BD4689
S3150800084C5DF8047B704700BFA827002080B400AF72
S3150800085C72B6064B1B78DBB2DBB20133DBB2DAB20B
S3150800086C024B1A70BD465DF8047B7047F8270020CA
S3150800087C80B400AF0A4B1B78002B0DD0084B1B78A5
S3150800088CDBB2DBB2013BDBB2DAB2054B1A70044BB6
S3150800089C1B78002B00D162B6BD465DF8047B704709
S315080008ACF827002080B483B000AF074B5B697B60E8
S315080008BC7B68002B14BF01230023DBB218460C37C8
S315080008CCBD465DF8047B7047A827002080B400AFAE
S315080008DC054B9B69002B14BF01230023DBB218467A
S315080008ECBD465DF8047B7047A827002080B582B00A
S315080008FC00AF0346FB710B4AFB791374FB79322B59
S3150800090C0CD1FFF7A3FF074B5B681B6A064AA2FBD1
S3150800091C03239B09054A1360FFF7AAFF0837BD4650
S3150800092C80BD00BFA82700201F85EB51A0270020FB
S3150800093C80B483B000AF03460A46FB711346BB71FD
S3150800094C0C37BD465DF8047B704700BF80B500AF19
S3150800095CFFF7CEFC00200121FFF7EAFF3220FFF754
S3150800096CC5FF80BD80B500AF4920FFF7BFFF00F07B
S3150800097CA1FA80BD80B584B000AF214B1B68002B53
S3150800098C04D01F4B1B68013B1D4A13601C4B1B688C
S3150800099C002B2FD11B4B5B681A6B1A4B9B7F194686
S315080009AC0B465B000B449B001344BB60BB685B683F
S315080009BCFB6015E0FB68B3FA83F3DBB2C3F11F03E4
S315080009CCFB71FB79012202FA03F3184600F07EFA52
S315080009DCFB79012202FA03F3DB43FA681340FB6046
S315080009ECFB68002BE6D1012002F05AFA5020FFF7DB
S315080009FC7DFF01E0FFF7B4FE1037BD4680BD00BF92
S31508000A0CD8270020A827002080B582B000AF0D4B50
S31508000A1C5B681A6B0B4B9B7F19460B465B000B44AA
S31508000A2C9B0013447B6000F0FDFA7B681B7A184622
S31508000A3C06F048FB00F00EFB2120FFF757FF08379E
S31508000A4CBD4680BDA827002080B400AFBD465DF822
S31508000A5C047B704780B500AF4D20FFF747FF00F0C9
S31508000A6C2FFA02200021FFF763FFFFF7EDFF80BD89
S31508000A7C80B500AF0D4B1B68002B04D00B4B1B68C5
S31508000A8C013B0A4A1360FFF70DFF0346002B0CD1F6
S31508000A9C064B1B68002B08D100F0FAF9012000213F
S31508000AACFFF746FF3320FFF721FF80BDA027002064
S31508000ABC80B500AFFFF7F6FE0346012B02D1FFF710
S31508000ACC45FF09E0FFF702FF0346002B04D100F0AF
S31508000ADCE5F94420FFF70AFF80BD00BF80B500AFDB
S31508000AEC4FF0FF30FFF722FE00F0DEF9074B1B7ABA
S31508000AFC802B04D0902B02D0502B03D005E0FFF7A7
S31508000B0CA9FF02E0FFF72EFF00BF80BDA827002033
S31508000B1C80B500AF002000F0F9FE80BD80B586B028
S31508000B2C00AF0123FB750023FB60A84B1B78002B39
S31508000B3C01D10023FB75FB7D012B40F04481A34BAF
S31508000B4C1B7C213B2F2B00F23D8101A252F823F08E
S31508000B5C470C0008210D0008950D0008CB0D000860
S31508000B6CD10D0008D10D0008D10D0008D10D0008D3
S31508000B7CD10D0008D10D0008D10D0008D10D0008C3
S31508000B8CD10D0008D10D0008D10D0008D10D0008B3
S31508000B9CD10D00081D0C0008230C0008D10D000807
S31508000BACD10D0008D10D0008D10D0008D10D000893
S31508000BBCD10D0008D10D0008D10D0008D10D000883
S31508000BCCD10D0008D10D0008D10D0008D10D000873
S31508000BDCD10D0008D10D0008D10D0008290C00080C
S31508000BECD10D0008D10D0008D10D0008D10D000853
S31508000BFC350C0008D10D0008D10D0008D10D0008E0
S31508000C0C2F0C0008D10D0008D10D0008430C000864
S31508000C1CFFF72EFFD7E0FFF74BFFD4E0FFF75EFF99
S31508000C2CD1E0FFF775FFCEE0FFF7A4FE674B1B7C00
S31508000C3C502B00D0C7E0FFF7E7FE644B5B6893F8D0
S31508000C4C2C30184606F03EFAFFF78AFDF860F8686D
S31508000C5C00F046F95D4B5B68184600F099F95B4B5A
S31508000C6C00221A77594B00225A77012002F0A2F972
S31508000C7C574B00221A602220FFF738FEFFF770FD4B
S31508000C8C0246544B1A60534B1B68184600F032F94F
S31508000C9C4E4B0022DA6200233B6137E04B4B5B6814
S31508000CAC5A6B3B69DB001344BB60BB681A68FB686C
S31508000CBC1340002B27D0BB685B68B3F1FF3F1DD0F0
S31508000CCCBB681A68FB681340002B17D0BB685B68B7
S31508000CDC414AA2FB03239A093D4B1B68934238BF32
S31508000CEC13463B4A13603A4B1B68002B02D0384B11
S31508000CFC1B6800E00123354AD36204E0BB681B6815
S31508000D0C1846FFF745FD3B6901333B613B69002BF0
S31508000D1CC4D058E02D4BDB6A002B1AD0FFF72CFDFC
S31508000D2C02462C4B1B685340184600F017F9FFF780
S31508000D3C23FD0346002B1CD0FFF71EFD0246254B50
S31508000D4C1B6853401846FFF723FD2320FFF7CEFDFB
S31508000D5C0FE0FFF711FD02461E4B1B6853407B60E4
S31508000D6C7B68002B02D0786800F0DEF82320FFF7AA
S31508000D7CBDFD164BDB6A002B05D0144BDB6A013B19
S31508000D8C124AD3621FE01EE0FFF7F6FCF860FB6818
S31508000D9C002B01D1032300E00023FB70FB781846D7
S31508000DAC00F024F90346FB70FB78002B03D12420B2
S31508000DBCFFF79CFD07E04920FFF798FD03E0FFF7D6
S31508000DCCC5FD00E000BF1837BD4680BDA82700202A
S31508000DDCDC270020E02700201F85EB5180B400AFEC
S31508000DECBD465DF8047B704780B500AF044B1B7895
S31508000DFC002B01D1FFF7F2FF024B184680BD00BF4E
S31508000E0CE4270020C088000880B500AF03F070FC0A
S31508000E1C03F0C6FC80BD00BF80B582B000AF786019
S31508000E2C7B689B6B184606F081F87B689B6BDB78B6
S31508000E3C184606F09FF800BF06F0EAF80346002BA2
S31508000E4CFAD106F0D1F87B68DB6B184606F096F9F2
S31508000E5C7B681B6C184606F0EDFC03F0BDFD06F02E
S31508000E6CF3F90837BD4680BD80B483B000AF78600F
S31508000E7C0C37BD465DF8047B704700BF80B483B061
S31508000E8C00AF78600C37BD465DF8047B704700BF31
S31508000E9C80B400AFBD465DF8047B704780B400AFE4
S31508000EACBD465DF8047B704780B400AFBD465DF85F
S31508000EBC047B704780B400AFBD465DF8047B704771
S31508000ECC80B400AFBD465DF8047B704780B483B030
S31508000EDC00AF78600C37BD465DF8047B704700BFE1
S31508000EEC80B483B000AF78600C37BD465DF8047BE0
S31508000EFC704700BF80B584B000AF786007F10F0368
S31508000F0C1846FFF775FCFB7B222B05D004480549D0
S31508000F1C40F25222FFF784FB1037BD4680BD00BF56
S31508000F2C788900080C89000880B584B000AF786011
S31508000F3C07F10F031846FFF75BFCFB7B222B05D04A
S31508000F4C0448054940F25E22FFF76AFB1037BD4696
S31508000F5C80BD00BF788900080C89000880B584B06C
S31508000F6C00AF786007F10F031846FFF741FCFB7BCF
S31508000F7C222B05D0044805494FF41A72FFF750FB8B
S31508000F8C1037BD4680BD00BF788900080C8900085B
S31508000F9C80B584B000AF786007F10B031846FFF7ED
S31508000FAC27FCFB7A212B05D00D480E4940F27D22F1
S31508000FBCFFF736FBFFF718FFF860F868FFF72CFF0A
S31508000FCC06F096F80246084B1B68B2FBF3F3184674
S31508000FDC02F044FEF868FFF747FF1037BD4680BDA0
S31508000FEC8C8900080C8900081887000880B584B01D
S31508000FFC00AF0346FB7107F10F031846FFF7F8FB22
S3150800100CFB7B232B05D00548054940F2A322FFF7A5
S3150800101C07FBFB7918461037BD4680BDA08900082A
S3150800102C0C89000880B582B000AFFB1D1846FFF787
S3150800103CDFFBFB79502B05D0044805494FF42D727C
S3150800104CFFF7EEFA0837BD4680BD00BFB489000825
S3150800105C0C89000880B582B000AFFB1D1846FFF757
S3150800106CC7FBFB79502B05D00548064940F2CB2225
S3150800107CFFF7D6FA002318460837BD4680BD00BFD1
S3150800108CB48900080C89000880B483B000AF786076
S3150800109C0C37BD465DF8047B704700BF80B500AFC2
S315080010AC6FF00D00002103F0D1F980BD80B48DB02E
S315080010BC00AF78607B681B68FB627B685B68BB6209
S315080010CC7B689B687B627B68DB683B627B681B6919
S315080010DCFB617B685B69BB617B689B697B617B6831
S315080010ECDB693B610C4B9B6A03F48023002B00D015
S315080010FCFEE7094B9B6A03F40033002B00D0FEE78E
S3150800110C054B9B6A03F40043002B03D0024B9B6BE5
S3150800111CFB60FEE7FEE700BF00ED00E072B61EF0CE
S3150800112C040F0CBFEFF30880EFF30980004908475A
S3150800113CB910000880B500AF6FF00B00014903F039
S3150800114C85F980BD00ED00E080B500AF6FF00A00B0
S3150800115C014903F07BF980BD00ED00E080B500AFD6
S3150800116C6FF00900014903F071F980BD00ED00E04C
S3150800117C80B483B000AF7860FF2318460C37BD46A1
S3150800118C5DF8047B704700BF00F0C2FC0C480D49A3
S3150800119C016062B6BFF34F8FBFF36F8FFEE74FEA5E
S315080011AC000D4FEA010E70472DE9F04F4FEA0D047A
S315080011BC04600C684FEA040D034D2960BDE8F08FF6
S315080011CC04ED00E000000010FC27002080B483B07A
S315080011DC00AFEFF310833B603B687B6072B67B68AD
S315080011EC18460C37BD465DF8047B704780B485B04D
S315080011FC00AF78607B68FB60FB6883F31088143754
S3150800120CBD465DF8047B704780B400AF034B1B6882
S3150800121C1846BD465DF8047B704700BFFC270020C6
S3150800122C80B400AF084B1A78084B1B781343DBB213
S3150800123C5BB2002B14BF01230023DBB21846BD4654
S3150800124C5DF8047B704700BFF9270020F8270020BB
S3150800125C80B400AF074B5B6D9B8B4FF6FF729342C6
S3150800126C0CBF01230023DBB21846BD465DF8047B90
S3150800127C704700BFFC27002080B483B000AF03463C
S3150800128CFB80FA881346DB0013441B01034A1344FC
S3150800129C18460C37BD465DF8047B7047602800205D
S315080012AC80B483B000AF78607B689B6B002B14BF4F
S315080012BC01230023DBB218460C37BD465DF8047BC8
S315080012CC704700BF80B582B000AF0346FB71094B6F
S315080012DC5B6A002B0AD0074B5B6ADB68002B05D0D0
S315080012EC044B5B6ADB68FA79104698470837BD46A3
S315080012FC80BD00BFFC27002080B586B000AFC7E9CB
S3150800130C0001FFF781FF78610023FB74FFF788FF64
S3150800131C0346002B0DD00D23FB743B4B0A221A7087
S3150800132C3B68394A5360FB7C1846FFF7CBFFFB7CBE
S3150800133C66E0364B5B69002B0DD00223FB74324BEF
S3150800134C0A221A703B68304A5360FB7C1846FFF732
S3150800135CB9FFFB7C54E07B691B6C1B7B032B0DD004
S3150800136C0123FB74284B0A221A703B68264A5360E1
S3150800137CFB7C1846FFF7A6FFFB7C41E07869FFF774
S3150800138C8FFF0346002B0DD00623FB741E4B0A2237
S3150800139C1A703B681C4A5360FB7C1846FFF792FF91
S315080013ACFB7C2DE0FFF712FFF8607B69D3E9060199
S315080013BCD7E9002302EA000203EA010313431BD10F
S315080013CC7969D7E90023C1E90423FFF741FF0346EE
S315080013DC002B0ED0022001F081F87B699B8903F063
S315080013EC0803002B08D10A480A494922FFF718F9BD
S315080013FC02E0786900F01CFFF868FFF7F7FEFB7C43
S3150800140C18461837BD4680BDE8270020FC27002063
S3150800141C888A0008AC8A000880B588B000AF0146F7
S3150800142CC7E900230B46FB810023FB77FB89032BBB
S3150800143C10D90323FB774F4B07221A70FB894D4AA9
S3150800144C53603B684B4A9360FB7F1846FFF73AFF9D
S3150800145CFB7F8AE0FB891846FFF70EFFB861FFF79A
S3150800146CD3FE7861BB691B6C1B7B032B10D0012345
S3150800147CFB77404B07221A70FB893E4A53603B6840
S3150800148C3C4A9360FB7F1846FFF71CFFFB7F6CE01A
S3150800149CBB699B8903F00403002B10D00723FB7749
S315080014AC344B07221A70FB89324A53603B68314A1F
S315080014BC9360FB7F1846FFF705FFFB7F55E0FFF7A8
S315080014CC85FE3861BB69D3E90601D7E9002342EAF0
S315080014DC000243EA0103B969C1E90623BB69D3E9EA
S315080014EC0401D7E9002302EA000203EA01031343C5
S315080014FC37D0BB699B8903F00203002B26D0B86949
S3150800150C00F082FEFFF780FE78611B4B5B69002BAF
S3150800151C27D17B691B6C93F82830002B21D1BB692A
S3150800152CDA6A7B69DB6A9A421BD9FFF779FE0346AE
S3150800153C83F00103DBB2002B13D0FFF789FE0346B9
S3150800154C002B0ED0012000F0C9FF0AE0BB699B896D
S3150800155C03F06903002B04D108480949B722FFF7A1
S3150800156C5FF83869FFF742FEFB7F18462037BD4601
S3150800157C80BD00BFE8270020FC270020108B000840
S3150800158CAC8A000880B586B000AFC7E90001002315
S3150800159CFB75FFF739FE3861FFF742FE0346002B51
S315080015AC0DD00D23FB75264B08221A703B68244A6E
S315080015BC5360FB7D1846FFF785FEFB7D3BE0214B10
S315080015CC5B69002B0DD00223FB751D4B08221A7084
S315080015DC3B681B4A5360FB7D1846FFF773FEFB7D81
S315080015EC29E03B691B6C1B7B032B0DD00123FB7578
S315080015FC134B08221A703B68114A5360FB7D184638
S3150800160CFFF760FEFB7D16E0FFF7E0FDF8603B692F
S3150800161CD3E90601D7E900236FEA02026FEA03034E
S3150800162C02EA000203EA01033969C1E90623F868EC
S3150800163CFFF7DCFDFB7D18461837BD4680BD00BF9D
S3150800164CE8270020FC27002080B400AF044B0022BA
S3150800165C1A70044B00221A70BD465DF8047B70475D
S3150800166CF9270020F827002080B483B000AF034682
S3150800167CFB80FA881346DB0013441B01034A134408
S3150800168C18460C37BD465DF8047B70476028002069
S3150800169C90B482B000AF786039603B685A687B6852
S315080016ACDA627A683B681446103393E8070084E8D4
S315080016BC07007B683A681A640837BD4690BC7047C1
S315080016CC80B588B000AF314800215C2206F0C0FC1A
S315080016DC2E4B012283F85A202C4B2D4A5A652D4B3A
S315080016EC64221A702C4B64221A7000F03BFB274BB1
S315080016FC00229A64254B294ADA60244B0022DA64C4
S3150800170C224B274A1A653B1D184602F0FFFCBB689C
S3150800171C1A46FB681344103B1A461C4B1A62BB68E4
S3150800172CBB61BB6942221A70BA68FB6813447B61B9
S3150800173C7B69013B42221A7002F014FA0023FB6102
S3150800174C1BE0FB699BB21846FFF78EFF3861FB69F5
S3150800175C9B01144A134438691946FFF799FF3869EF
S3150800176C00F0FEFD3B6900229A633B6903F13802DF
S3150800177C3B69DA63FB690133FB61FB69032BE0D92F
S3150800178C01F002FD2037BD4680BD00BFFC270020B6
S3150800179CA02A0020F8270020F9270020602800201E
S315080017AC482800209087000880B586B000AF002333
S315080017BC3B6172B63B4B93F85A30002B04D13A482E
S315080017CC3A49BD22FEF72CFF364B394A5A62354B3D
S315080017DC5B6A5B68002B03D0324B5B6A5B68984785
S315080017EC02F0F6FD02F03EF802F030FA05F080FC45
S315080017FCB860304B1B68BA68B2FBF3F3184602F0B4
S3150800180C2DFA0023FB600023FB8219E0FB8A18469D
S3150800181CFFF72AFF78607B681B6C5B7B002B0CD070
S3150800182C3B69002B04D07B68DA6AFB689A4204D9B8
S3150800183C7B683B617B68DB6AFB60FB8A0133FB8256
S3150800184CFB8A032BE2D93B69002B05D11A481749A9
S3150800185C40F20712FEF7E4FE124A3B6913603B6935
S3150800186C1B6CDB690F4A1364FFF7EEFE3B6993F8B2
S3150800187C30203B691B6C93F83C309A4205D90F48CB
S3150800188C0A4940F21312FEF7CBFE0020396900F024
S3150800189CFFFF0B48054940F21712FEF7C1FE183731
S315080018ACBD4680BDFC270020148B0008388B000829
S315080018BC90880008188700089C8B0008B88B0008CD
S315080018CCF88B000880B500AFFEF7B6FE0123184664
S315080018DC80BD00BF80B582B000AF7860084B01228E
S315080018EC83F85920064A7B689363FFF75DFF054822
S315080018FC05494FF49D72FEF793FE0837BD4680BD29
S3150800190CFC270020F88B0008388B000880B582B0BD
S3150800191C00AF0346FB7172B6074B5B6A002B0AD005
S3150800192C054B5B6A9B68002B05D0034B5B6A9B686F
S3150800193CFA7910469847FEE7FC27002080B483B056
S3150800194C00AF7860034A7B6813600C37BD465DF8B8
S3150800195C047B7047FC27002080B400AF084B1A782C
S3150800196C084B1B781343DBB25BB2002B14BF012365
S3150800197C0023DBB21846BD465DF8047B704700BFF2
S3150800198CF9270020F827002080B483B000AF03465F
S3150800199CFB7197F90730002B0ADA0D4AFB7903F02D
S315080019AC0F03043B13441B7EDBB21B09DBB208E0B6
S315080019BC084A97F90730134493F80033DBB21B092E
S315080019CCDBB218460C37BD465DF8047B704700BF82
S315080019DC00ED00E000E100E080B400AF074B5B6D62
S315080019EC9B8B4FF6FF7293420CBF01230023DBB28D
S315080019FC1846BD465DF8047B704700BFFC270020DF
S31508001A0C80B483B000AF78607B6808229A810C3763
S31508001A1CBD465DF8047B704780B485B000AF78602E
S31508001A2C0023FB737B685B68BB60BB681B78422B27
S31508001A3C0CBF01230023DBB2FB73FB7B1846143760
S31508001A4CBD465DF8047B704780B485B000AF7860FE
S31508001A5C0023FB737B685A687B689B681344BB60DE
S31508001A6CBB68013B1B78422B0CBF01230023DBB25E
S31508001A7CFB73FB7B18461437BD465DF8047B704731
S31508001A8C80B582B000AF78607868FFF7C5FF03466B
S31508001A9C002B05D07868FFF7D7FF0346002B02D139
S31508001AAC0E20FFF733FF0837BD4680BD80B500AF63
S31508001ABC62B6034B1B681B6C9B68984780BD00BFBE
S31508001ACCFC27002090B400AFEFF309831C4623468D
S31508001ADC1846BD4690BC704780B400AF30231846F4
S31508001AECBD465DF8047B704790B482B000AFEFF347
S31508001AFC09831C4623467B607B6820337B607B68A6
S31508001B0C3B603B6883F309880837BD4690BC704731
S31508001B1C80B500AF044B5A68034B1B681046194630
S31508001B2CFFF742FB80BD00BFFC27002090B587B0AD
S31508001B3C00AF6F4B5B68C3F308037B617B69DBB251
S31508001B4C103BDBB2DBB25BB21846FFF71DFF034650
S31508001B5C042B10D8674A7B6952F82330002B04D122
S31508001B6C654866497A22FEF75BFD624A7B6952F83C
S31508001B7C23309847B8E0EFF309831C4623463B61AC
S31508001B8C72B6FFF7E9FE0346002B04D05C485B49A6
S31508001B9C8522FEF745FD7B699BB23869194602F02A
S31508001BACE9FA584B1B78422B02D00E20FFF7AEFEF3
S31508001BBC4F4B5B6803F40063002B00F09180524B8B
S31508001BCC00221A60EFF309831C462346FB60FB6868
S31508001BDC203BFB60FB684FF08072DA61FB687B6028
S31508001BEC7B6883F3098800F0DFFBB860B868FFF7F9
S31508001BFC47FF464B1A68BB689A420ED0434B1B6884
S31508001C0C1B6C93F82830012B07D0FFF7E5FE03462B
S31508001C1C83F00103DBB2002B2AD03C4B1B6808224D
S31508001C2C9A813A4B1B689B8903F00803002B04D155
S31508001C3C37483249B522FEF7F3FC344B1B689B6ACE
S31508001C4C002B04D033482D49B522FEF7E9FC2F4B5F
S31508001C5C1B6801229A622D4B5B6A1B69002B03D009
S31508001C6C2A4B5B6A1B6998472B4AFB689A613BE0CF
S31508001C7C264B1B68254A5360B868FFF75FFEBB689E
S31508001C8C1B6CDB69214A136401F056FAB868FFF736
S31508001C9CB7FE1E4B1B689B8903F00803002B04D167
S31508001CAC1B481649C522FEF7BBFC184B1B689B6ADA
S31508001CBC002B04D017481149C522FEF7B1FC134B6B
S31508001CCC1B6801229A62114B5B6A1B69002B03D0B5
S31508001CDC0E4B5B6A1B699847104AFB689A6103E0CE
S31508001CEC094B01221A6062B61C37BD4690BD00BF6F
S31508001CFC00ED00E0FC330020FC8B0008248C000867
S31508001D0C948C0008204900205C280020FC27002021
S31508001D1CB48C0008E88C0008981100089411000887
S31508001D2C80B485B000AF78607B681B68FB607B6805
S31508001D3C1B6C1B7B032B03D1084AFB681A6207E052
S31508001D4C7B681B6C1B7B012B02D1054AFB681A624C
S31508001D5C1437BD465DF8047B704700BFBD220008EA
S31508001D6C0123000880B400AFBD465DF8047B7047BC
S31508001D7C80B483B000AFEFF310833B603B687B60A5
S31508001D8C72B67B6818460C37BD465DF8047B7047FF
S31508001D9C80B485B000AF78607B68FB60FB6883F322
S31508001DAC10881437BD465DF8047B704780B483B041
S31508001DBC00AF7860034A7B6813600C37BD465DF844
S31508001DCC047B7047FC27002080B400AF034B1B68CC
S31508001DDC1846BD465DF8047B704700BFFC270020FB
S31508001DEC80B400AF084B1A78084B1B781343DBB248
S31508001DFC5BB2002B14BF01230023DBB21846BD4689
S31508001E0C5DF8047B704700BFF9270020F8270020EF
S31508001E1C80B400AF044B00221A70044B00221A70CF
S31508001E2CBD465DF8047B7047F9270020F82700208B
S31508001E3C80B400AF074B5B6D9B8B4FF6FF729342DA
S31508001E4C0CBF01230023DBB21846BD465DF8047BA4
S31508001E5C704700BFFC27002080B483B000AF7860C1
S31508001E6C7B6808229A810C37BD465DF8047B70475F
S31508001E7C80B483B000AF0346FB80FA881346DB00B8
S31508001E8C13441B01034A134418460C37BD465DF828
S31508001E9C047B70476028002080B582B000AF78605C
S31508001EAC39607B689A8B3B681B6C1B889A4205D0F9
S31508001EBC1F48204940F20312FEF7B2FB7B684FF627
S31508001ECCFF729A837B689A693B68DA627B689B7FA8
S31508001EDC022B29D03B689B6B002B05D1164815495C
S31508001EEC40F20912FEF79CFB3B68DB6B5B681A68D1
S31508001EFC7B689A4205D011480E494FF48672FEF754
S31508001F0C8FFB7B689B6A002B05D07B689B6A7A687B
S31508001F1CD26ADA6203E07B68DA6A3B68DA637B6862
S31508001F2CDB6A7A68926A1A600837BD4680BD00BFBC
S31508001F3C108D0008388D00089C8D0008D48D00087B
S31508001F4C80B584B000AF78607B689B6BFB6006E05D
S31508001F5CF8687968FFF7A0FFFB689B6AFB60FB686B
S31508001F6C002BF5D11037BD4680BD00BF80B485B0B7
S31508001F7C00AF78607B681B68BB607B685B68FB603E
S31508001F8C02E0FB680133FB60FB681B78422B03D12C
S31508001F9CFA68BB689A42F4D3FB6818461437BD46F0
S31508001FAC5DF8047B704700BF80B485B000AF7860DD
S31508001FBC7B685A687B689B681344FB60FB68013B2B
S31508001FCC42221A701437BD465DF8047B704700BF71
S31508001FDC80B485B000AF78607B685B68FB60FB6893
S31508001FEC42221A701437BD465DF8047B704700BF51
S31508001FFC80B485B000AF78600023FB737B685B68A0
S3150800200CBB60BB681B78422B0CBF01230023DBB2D9
S3150800201CFB73FB7B18461437BD465DF8047B70478B
S3150800202C80B485B000AF78600023FB737B685A6870
S3150800203C7B689B681344BB60BB68013B1B78422BCF
S3150800204C0CBF01230023DBB2FB73FB7B184614374A
S3150800205CBD465DF8047B704780B582B000AF7860EA
S3150800206C7868FFF7C5FF0346002B05D07868FFF79D
S3150800207CD7FF0346002B02D10E20FFF747FC083783
S3150800208CBD4680BD80B483B000AF78607B689B6B1F
S3150800209C002B14BF01230023DBB218460C37BD46B0
S315080020AC5DF8047B704700BF80B582B000AF03466D
S315080020BCFB71094B5B6A002B0AD0074B5B6ADB6822
S315080020CC002B05D0044B5B6ADB68FA7910469847F7
S315080020DC0837BD4680BD00BFFC27002080B582B0FE
S315080020EC00AF78607B689B89082B04D005480649A5
S315080020FC2522FEF795FA7B6801229A810837BD4698
S3150800210C80BD00BF208E0008488E000880B483B0BE
S3150800211C00AF78607B68D3F88430002B08D07B68D6
S3150800212CD3F884307A68D2F88820C3F8882004E07B
S3150800213C7B68D3F88830074A13657B68D3F88830F0
S3150800214C7A68D2F884201A600C37BD465DF8047B91
S3150800215C704700BFFC27002080B483B000AF7860BE
S3150800216C7B680022C3F88420084B1A6D7B68C3F879
S3150800217C8820064B1B6D7A681A607B688433034A81
S3150800218C13650C37BD465DF8047B7047FC270020A9
S3150800219C80B582B000AF78607B689B8903F0090331
S315080021AC002B04D1064807496322FEF739FA7B68E7
S315080021BC04229A817868FFF7A9FF0837BD4680BDC7
S315080021CCAC8E0008488E000880B582B000AF7860E7
S315080021DC7B681B6C1B7B032B0DD179684FF00002B7
S315080021EC4FF00003C1E9062379684FF000024FF05F
S315080021FC0003C1E90423786800F082F87868FFF7D1
S3150800220C8FFD0837BD4680BD80B582B000AF7860BB
S3150800221C7B689B8903F00903002B05D17B68012297
S3150800222C9A817868FFF798FF0837BD4680BD00BFCE
S3150800223C80B582B000AF78607B689B8903F0090390
S3150800224C002B04D1064807499622FEF7E9F97B6864
S3150800225C02229A817868FFF759FF0837BD4680BD78
S3150800226CAC8E0008488E000880B584B000AF786044
S3150800227C7B681B68FB607B681A687B685B689A429C
S3150800228C04D809480949A622FEF7CAF97B68596891
S3150800229CFB687A6852689B1A084642211A4605F06A
S315080022ACD7FE1037BD4680BDD88E0008488E00086C
S315080022BC80B582B000AFFFF787FD7860FFF7F6FBB5
S315080022CC72B6FFF78DFD0346002B01D0FFF7A0FD74
S315080022DC7868FFF7D7FE0346002B02D07868FFF71D
S315080022EC2FFE0C20FFF7E0FE00F032FC0837BD4647
S315080022FC80BD00BF80B500AFFFF7DAFF80BD00BF19
S3150800230C80B584B000AF78607B685A687B689B6838
S3150800231C1344FB60FB6803F00703002B05D00E483B
S3150800232C0E494FF49372FEF77BF97B68FA681A60CC
S3150800233C7868FFF739FEFB68103BFB60FFF7CCFBB0
S3150800234C03465B42FA681A447B681A607868FFF79A
S3150800235C3FFE1037BD4680BD008F0008488E00082A
S3150800236C80B582B000AF78607B681B6C5B7B012BF9
S3150800237C0BD17B6893F830300133DAB27B6883F87B
S3150800238C30207868FFF740FF02E07B6804229A81C8
S3150800239C7868FFF7B5FF7868FFF766FF7868FFF788
S315080023ACBFFC0837BD4680BD80B584B000AF00239E
S315080023BCBB6000237B600023FB701D4BDB6CFB6052
S315080023CC25E0FB689B8903F00903002B15D0FB78E5
S315080023DC012B0AD1FB68DA6A7B689A4213D9FB6827
S315080023ECDB6A7B60FB68BB600DE00123FB70FB6856
S315080023FCDB6A7B60FB68BB6005E00E480E494FF450
S3150800240CB372FEF70DF9FB68D3F88430FB60FB68F2
S3150800241C002BD6D1BB68002B05D10848064940F2DB
S3150800242C6B12FEF7FDF8BB6818461037BD4680BD23
S3150800243CFC270020208F0008488E0008248F0008EF
S3150800244C80B582B000AF78607868FFF759FF786876
S3150800245CFFF702FD7868FFF7A9FC1A4B1B689B89E6
S3150800246C03F00803002B05D1174818494FF41672C8
S3150800247CFEF7D6F8134B1B689B6A002B05D014483D
S3150800248C12494FF41672FEF7CBF80E4B1B68012255
S3150800249C9A620C4B5B6A1B69002B03D0094B5B6A6F
S315080024AC1B6998477B681B6818460A49FEF777FE2E
S315080024BC0948064940F25D22FEF7B2F80837BD46D0
S315080024CC80BD00BFFC270020408F0008488E0008FE
S315080024DC748F000801230008208F000880B584B08B
S315080024EC00AF0346FB80FFF76FFCF860B84B5B69DF
S315080024FC002B05D0B748B84940F27122FEF790F880
S3150800250CFFF796FC034683F00103DBB2002B05D0DC
S3150800251CB248B14940F27222FEF782F8FB689B89F1
S3150800252C03F00803002B05D1AD48AB4940F27522E0
S3150800253CFEF776F8A64B1B689B8903F00803002B5D
S3150800254C05D1A848A44940F27622FEF769F8A04BB3
S3150800255C1B689B6A012B05D0A3489F4940F276223B
S3150800256CFEF75EF89A4B1B6800229A62984B5B6AD8
S3150800257C5B69002B03D0964B5B6A5B699847FB88B3
S3150800258C013B3F2B00F2E18001A252F823F000BF79
S3150800259C9D260008A526000857270008AD26000822
S315080025AC5727000857270008572700081D27000833
S315080025BC57270008572700085727000857270008E9
S315080025CC5727000857270008572700089D26000894
S315080025DC57270008572700085727000857270008C9
S315080025EC57270008572700085727000857270008B9
S315080025FC57270008572700085727000857270008A9
S3150800260C572700085727000857270008B52600083B
S3150800261C5727000857270008572700085727000888
S3150800262C5727000857270008572700085727000878
S3150800263C5727000857270008572700085727000868
S3150800264C5727000857270008572700085727000858
S3150800265C5727000857270008572700085727000848
S3150800266C5727000857270008572700085727000838
S3150800267C5727000857270008572700085727000828
S3150800268C5727000857270008572700089D260008D3
S3150800269CF868FFF723FD5FE0F868FFF7C9FD5BE014
S315080026ACF868FFF7B1FD57E0494B1B69002B05D1BC
S315080026BC4E48494940F29122FDF7B2FF444B1A693C
S315080026CCFB689A4223D0FB6893F83030002B05D16F
S315080026DC474841494FF42872FDF7A2FFFB6893F867
S315080026EC3030013BDAB2FB6883F83020FB6893F88C
S315080026FC3030002B03D1F868FFF74AFD07E0F8687D
S3150800270CFFF7ECFCFB68012283F8312024E023E078
S3150800271CFB6893F83030002B05D135482E4940F22A
S3150800272CB522FDF77DFFFB6893F83030013BDAB232
S3150800273CFB6883F83020FB6893F83030002B03D104
S3150800274CF868FFF725FD07E006E02A48224940F21B
S3150800275CBD22FDF765FF00BFFFF726FEB860BA6815
S3150800276CFB689A422DD0FB88202B0AD1184B1A6984
S3150800277CFB689A4205D1164B00221A61F868FFF7D6
S3150800278CADFCBB68002B05D11B48134940F2CD2282
S3150800279CFDF746FF00F0E4FCF868FFF75DFCBB6844
S315080027AC93F83130012B07D1BB68002283F831200E
S315080027BCB868FFF745FE07E0F868B96800F01EF838
S315080027CC02E0B868FFF73CFE1037BD4680BD00BF77
S315080027DCFC2700209C8F0008488E0008BC8F000838
S315080027ECDC8F0008408F0008049000082C90000825
S315080027FC58900008208F00087490000880B582B0A5
S3150800280C00AF786039603B68002B35D03868FFF725
S3150800281CCDFA3B681B6CDB69194A136400F08CFC17
S3150800282C3868FFF719FB164B1B689B8903F00803DE
S3150800283C002B05D11348144940F20B32FDF7F0FE74
S3150800284C0F4B1B689B6A002B05D010480E4940F2AB
S3150800285C0B32FDF7E5FE0A4B1B6801229A62084B00
S3150800286C5B6A1B69002B03D0054B5B6A1B6998478F
S3150800287C78683968FEF798FC0837BD4680BD00BFF6
S3150800288CFC270020408F0008488E0008748F00082B
S3150800289C80B582B000AF786039603868FFF786FA81
S315080028AC3B681B6CDB691C4A136400F045FC3868F2
S315080028BCFFF7D2FA184B1B689B8903F00803002B09
S315080028CC05D11648164940F21F32FDF7A9FE124BE0
S315080028DC1B689B6A002B05D01248114940F21F321F
S315080028ECFDF79EFE0C4B1B6801229A620A4B5B6A2B
S315080028FC1B69002B03D0084B5B6A1B6998477868E1
S3150800290C3968FEF756FC084805494FF44972FDF735
S3150800291C87FE0837BD4680BDFC270020408F00087F
S3150800292C488E0008748F0008208F000880B584B084
S3150800293C00AF03463960FB80FB881846FFF798FA08
S3150800294CF8603B68002B29D0FFF7BCF802463B68B9
S3150800295CDA60FB685A683B685A60FB681A683B6819
S3150800296C1A60FB689A683B689A60F868FFF7FEFA83
S3150800297C02463B681A613B689A683B685B6819466D
S3150800298C3B681B69CB1A1344642202FB03F23B68AF
S3150800299C9B68B2FBF3F3DAB23B681A751037BD467F
S315080029AC80BD00BF80B584B000AF78600023FB7390
S315080029BC7B68002B0DD11823FB73134B04221A705A
S315080029CC7B68114A5360FB7B1846FFF76DFBFB7B54
S315080029DC15E07B684DF6AD621A800C4B5B69002BD3
S315080029EC0CD10A4B1B689B8903F00803002B05D0F6
S315080029FC064B1B681B6C1A887B681A80FB7B18466F
S31508002A0C1037BD4680BD00BFE8270020FC270020F4
S31508002A1C90B587B000AF0346FB80FFF7D5F9786110
S31508002A2C0023FB74FB88032B0DD90323FB74444B3F
S31508002A3C00221A70FB88424A5360FB7C1846FFF743
S31508002A4C33FBFB7C77E0FB881846FFF711FAF86036
S31508002A5CFFF7C6F90346002B0DD00D23FB74384B34
S31508002A6C00221A70FB88364A5360FB7C1846FFF71F
S31508002A7C1BFBFB7C5FE0FFF77BF9B860FB6893F800
S31508002A8C30300133DAB2FB6883F83020FB689B8957
S31508002A9C042B21D0FB6893F83020FB681B6C93F849
S31508002AAC3C309A4229D90423FB74B868FFF770F9AD
S31508002ABCFB6893F83030013BDAB2FB6883F83020B8
S31508002ACC1F4B00221A70FB881D4A5360FB7C184664
S31508002ADCFFF7EAFAFB7C2EE0FB6893F83030012B03
S31508002AEC05D01848184940F2FE32FDF799FDF868EA
S31508002AFCFFF76AFBF868FFF787FB144B5B69002B3B
S31508002B0C15D17B691B6C93F82830002B0FD1FB6809
S31508002B1CDC6AFFF759F90346DB6A9C4207D9FFF7CB
S31508002B2C87F90346002B02D00420FFF7D7FCB868B8
S31508002B3CFFF72EF9FB7C18461C37BD4690BD00BF27
S31508002B4CE827002088900008488E0008FC270020FB
S31508002B5C80B582B000AF0023FB71FFF735F93860FA
S31508002B6CFFF73EF90346002B0AD00D23FB711C4BCD
S31508002B7C01221A70FB791846FFF796FAFB792AE0B8
S31508002B8C184B5B69002B0AD00223FB71144B0122EC
S31508002B9C1A70FB791846FFF787FAFB791BE0386839
S31508002BACFFF770FA0346002B0AD00623FB710C4B71
S31508002BBC01221A70FB791846FFF776FAFB790AE0B8
S31508002BCC72B60820FFF78AFC0748084940F24142CA
S31508002BDCFDF726FDFB7918460837BD4680BD00BFB4
S31508002BECE8270020FC270020208F0008488E0008C4
S31508002BFC80B586B000AFF8600B467A607B817B891E
S31508002C0C1846FFF735F97861FB68002B05D116488D
S31508002C1C164940F2C642FDF703FD7B6803F0010333
S31508002C2C002B12D0FA687B691B6C5B6A1046194636
S31508002C3C102205F00FFC7B691B6C1B7B032B01D147
S31508002C4C012200E00022FB681A617B6803F002038C
S31508002C5C002B06D0FB6814337A8910461946FFF701
S31508002C6C65FE1837BD4680BD74900008488E00086E
S31508002C7C80B483B000AFEFF310833B603B687B6096
S31508002C8C72B67B6818460C37BD465DF8047B7047F0
S31508002C9C80B485B000AF78607B68FB60FB6883F313
S31508002CAC10881437BD465DF8047B704780B400AFB6
S31508002CBC034B1B681846BD465DF8047B704700BF7E
S31508002CCCFC27002080B400AF084B1A78084B1B78F9
S31508002CDC1343DBB25BB2002B14BF01230023DBB218
S31508002CEC1846BD465DF8047B704700BFF9270020DF
S31508002CFCF827002080B483B000AF0346FB71FA793D
S31508002D0C13465B0013441B01034A134418460C373D
S31508002D1CBD465DF8047B7047E000002080B400AF28
S31508002D2C074B5B6D9B8B4FF6FF7293420CBF0123CF
S31508002D3C0023DBB21846BD465DF8047B704700BF1E
S31508002D4CFC27002080B483B000AF0346FB80FA88CA
S31508002D5C1346DB0013441B01034A134418460C376D
S31508002D6CBD465DF8047B70476028002080B483B0AC
S31508002D7C00AF786039603B681B6C1A887B689A834D
S31508002D8C3B68DA6A7B689A617B685A693B68DA62DF
S31508002D9C7B689B7F022B0FD07B6800229A623B686C
S31508002DACDA6B7B68DA623B68DB6B7A681A607B687D
S31508002DBC03F128023B68DA630C37BD465DF8047BE1
S31508002DCC704700BF80B582B000AF786039607B6809
S31508002DDC9A8B3B681B6C1B889A4205D01F48204966
S31508002DEC40F20312FDF71CFC7B684FF6FF729A83C0
S31508002DFC7B689A693B68DA627B689B7F022B29D0D1
S31508002E0C3B689B6B002B05D11648154940F20912F5
S31508002E1CFDF706FC3B68DB6B5B681A687B689A42B5
S31508002E2C05D011480E494FF48672FDF7F9FB7B68FD
S31508002E3C9B6A002B05D07B689B6A7A68D26ADA6231
S31508002E4C03E07B68DA6A3B68DA637B68DB6A7A6874
S31508002E5C926A1A600837BD4680BD00BFF890000814
S31508002E6C2091000884910008BC91000880B582B0B6
S31508002E7C00AF0346FB71094B5B6A002B0AD0074B64
S31508002E8C5B6ADB68002B05D0044B5B6ADB68FA7956
S31508002E9C104698470837BD4680BD00BFFC27002062
S31508002EAC80B586B000AF0346FB710023FB74FFF7B1
S31508002EBC09FF0346002B0DD00D23FB743B4B052253
S31508002ECC1A70FB79394A5360FB7C1846FFF7CEFF1C
S31508002EDCFB7C66E0FB79012B0DD90323FB74334B82
S31508002EEC05221A70FB79314A5360FB7C1846FFF7AA
S31508002EFCBDFFFB7C55E0FFF7BBFEF8602C4B5B690E
S31508002F0C002B10D02623FB74F868FFF7C1FE274B5D
S31508002F1C05221A70FB79254A5360FB7C1846FFF785
S31508002F2CA5FFFB7C3DE0FFF7C1FEB860FB79012BE2
S31508002F3C03D11F4B5B6D7B612BE0FB791846FFF7C2
S31508002F4CD9FE7861BB681B6CDA6AFB7922FA03F343
S31508002F5C03F00103002B0BD07B699B8B4FF6FF729A
S31508002F6C934205D1BB68DA6A7B695B699A4210D9C8
S31508002F7C0123FB74F868FFF78BFE0C4B05221A70BD
S31508002F8CFB790A4A5360FB7C1846FFF76FFFFB7CFC
S31508002F9C07E07869B968FFF7E9FEF868FFF778FE85
S31508002FACFB7C18461837BD4680BD00BFE8270020B5
S31508002FBCFC27002090B589B000AF0346FB710023AF
S31508002FCCFB76FFF773FE7861FFF77CFE0346002B52
S31508002FDC0DD00D23FB76564B06221A70FB79544AF4
S31508002FEC5360FB7E1846FFF741FFFB7E9BE0FB799F
S31508002FFC012B0DD90323FB764D4B06221A70FB7950
S3150800300C4B4A5360FB7E1846FFF730FFFB7E8AE07F
S3150800301CFFF72EFE3861474B5B69002B10D0262331
S3150800302CFB763869FFF734FE414B06221A70FB799A
S3150800303C3F4A5360FB7E1846FFF718FFFB7E72E08B
S3150800304CFB79012B03D13B4B5B6DFB611CE07B6968
S3150800305C1B6CDA6AFB7922FA03F303F00103002BE3
S3150800306C0DD10323FB76324B06221A70FB79304AB4
S3150800307C5360FB7E1846FFF7F9FEFB7E53E0FB799F
S3150800308C1846FFF737FEF861FB699B8B4FF6FF7204
S3150800309C934210D10523FB763869FFF7F9FD244BCB
S315080030AC06221A70FB79224A5360FB7E1846FFF7F4
S315080030BCDDFEFB7E37E07B69DA6AFB695B699A425F
S315080030CC10D20123FB763869FFF7E2FD184B06226E
S315080030DC1A70FB79164A5360FB7E1846FFF7C6FE34
S315080030ECFB7E20E0F8697969FFF76CFE7B691B6C3F
S315080030FC93F82830002B12D1FFF710FE0346002B4D
S3150800310C0DD0FFF751F9F860FB68DC6AFFF7CEFDC6
S3150800311C0346DB6A9C4202D94020FFF7DFF938697F
S3150800312CFFF7B6FDFB7E18462437BD4690BD00BF9B
S3150800313CE8270020FC27002080B582B000AFFFF7F7
S3150800314CB5FD78607B681B6C9B6B3B603B68002B02
S3150800315C03D038687968FFF709FE0837BD4680BD85
S3150800316C80B582B000AFFFF7A1FD78607B681B6C59
S3150800317C9B6B3B603B68002B03D038687968FFF77C
S3150800318C21FE0837BD4680BD80B586B000AF254BFD
S3150800319C5B6D4FF0FF325A61224B5B6D1846224924
S315080031AC05F082F81F4B5B6D01221A611D4B5B6D96
S315080031BC4FF6FF729A8300233B612DE03B69DBB225
S315080031CC1846FFF797FDB86000237B610023FB8147
S315080031DC19E0FB891846FFF7B5FD78607B681B6C10
S315080031ECDA6A3B6922FA03F303F00103002B07D0D2
S315080031FC7B681B6C5B687A69934238BF13467B61A4
S3150800320CFB890133FB81FB89032BE2D9BB687A69FD
S3150800321C5A613B6901333B613B69002BCED01837A9
S3150800322CBD4680BDFC2700200892000880B483B0F8
S3150800323C00AFEFF310833B603B687B6072B67B682C
S3150800324C18460C37BD465DF8047B704780B485B0CC
S3150800325C00AF78607B68FB60FB6883F310881437D3
S3150800326CBD465DF8047B704780B400AF084B1A78EE
S3150800327C084B1B781343DBB25BB2002B14BF01233C
S3150800328C0023DBB21846BD465DF8047B704700BFC9
S3150800329CF9270020F827002080B483B000AF7860A7
S315080032AC7B681B6A18460C37BD465DF8047B70476D
S315080032BC80B483B000AF78607B685B6918460C37BE
S315080032CCBD465DF8047B704780B487B000AFF860E4
S315080032DCB9607A60BA68FB68D31A3B617A683B694D
S315080032EC9A4204D8FA687B6813447B6106E0FA684C
S315080032FCBB68D21A7B681344013B7B617B69184611
S3150800330C1C37BD465DF8047B704700BF80B483B09C
S3150800331C00AF0346FB80FA881346DB001344DB0038
S3150800332C034A134418460C37BD465DF8047B7047B0
S3150800333C5000002080B582B000AF0346FB71094BE4
S3150800334C5B6A002B0AD0074B5B6ADB68002B05D03F
S3150800335C044B5B6ADB68FA79104698470837BD4612
S3150800336C80BD00BFFC27002080B485B000AF786014
S3150800337C39600023FB737B68002B0DD03B685B68B8
S3150800338C9A6A7B689A4205D83B685B681A6A7B68B6
S3150800339C9A4201D20823FB73FB7B18461437BD46A9
S315080033AC5DF8047B704700BF90B583B000AF7860BA
S315080033BC7B689B69002B04D17B68002283F8242048
S315080033CC15E07B685B681846FFF772FF04467B6856
S315080033DC5B681846FFF760FF02467B689B692046C8
S315080033EC11461A46FFF770FF02467B681A620C37BD
S315080033FCBD4690BD80B588B000AFB9607A601A46F4
S3150800340C0346FB8113467B730023FB777B7B002BE0
S3150800341C18D1FFF729FF0346002B13D00D23FB7792
S3150800342C524B0D221A70FB89504A53604F4ABB689F
S3150800343C93604E4A7B68D360FB7F1846FFF77AFF8A
S3150800344CFB7F8EE0FB89012B13D90323FB77474BB4
S3150800345C0D221A70FB89454A5360444ABB6893602F
S3150800346C424A7B68D360FB7F1846FFF763FFFB7FF6
S3150800347C77E0FB891846FFF749FFB861BB68002B54
S3150800348C05D0BB695B681A6ABB689A4213D20823D3
S3150800349CFB77364B0D221A70FB89344A5360334A34
S315080034ACBB689360314A7B68D360FB7F1846FFF78D
S315080034BC41FFFB7F55E07868B969FFF755FF03466E
S315080034CC082B13D10823FB77284B0D221A70FB897E
S315080034DC264A5360254ABB689360244A7B68D360A6
S315080034ECFB7F1846FFF726FFFB7F3AE0FFF79EFEA9
S315080034FC7861BB6993F82430002B16D07869FFF7EE
S3150800350CA5FE0723FB77194B0D221A70FB89174A60
S3150800351C5360164ABB689360144A7B68D360FB7F7A
S3150800352C1846FFF707FFFB7F1BE0BB69012283F8F0
S3150800353C2420BB695B681846FFF7BAFE0246BB69CE
S3150800354C5B681B6A10461946BA68FFF7BDFE024649
S3150800355CBB691A62BB697A689A617869FFF776FE65
S3150800356CFB7F18462037BD4680BD00BFE8270020E4
S3150800357C80B588B000AFB9607A601A460346FB81FD
S3150800358C13467B730023FB777B7B002B18D1FFF745
S3150800359C6BFE0346002B13D00D23FB77494B0E22EB
S315080035AC1A70FB89474A5360464ABB689360454A7A
S315080035BC7B68D360FB7F1846FFF7BCFEFB7F7DE07C
S315080035CCFB89012B13D90323FB773E4B0E221A706A
S315080035DCFB893C4A53603B4ABB689360394A7B6813
S315080035ECD360FB7F1846FFF7A5FEFB7F66E0FB89D9
S315080035FC1846FFF78BFEB861BB695B681A6ABB682D
S3150800360C9A4213D20823FB772E4B0E221A70FB898B
S3150800361C2C4A53602B4ABB6893602A4A7B68D36052
S3150800362CFB7F1846FFF786FEFB7F47E07868B9698B
S3150800363CFFF79AFE0346082B13D10823FB77214B79
S3150800364C0E221A70FB891F4A53601E4ABB68936088
S3150800365C1C4A7B68D360FB7F1846FFF76BFEFB7F23
S3150800366C2CE0FFF7E3FD7861BB6993F82430002B57
S3150800367C16D00723FB777869FFF7E8FD114B0E2266
S3150800368C1A70FB890F4A53600E4ABB6893600D4A41
S3150800369C7B68D360FB7F1846FFF74CFEFB7F0DE07B
S315080036ACBB69012283F82420BB69BA681A62BB6914
S315080036BC7A689A617869FFF7C9FDFB7F1846203747
S315080036CCBD4680BDE827002080B584B000AF034610
S315080036DCB9607A60FB81FB891846B9687A68002359
S315080036ECFFF788FE034618461037BD4680BD00BF57
S315080036FC80B586B000AF0346FB800023FB75FFF749
S3150800370CB3FD0346002B0DD00D23FB75244B0F225E
S3150800371C1A70FB88224A5360FB7D1846FFF70AFE8F
S3150800372CFB7D39E0FB88012B0DD90323FB751C4B5C
S3150800373C0F221A70FB881A4A5360FB7D1846FFF74E
S3150800374CF9FDFB7D28E0FB881846FFF7DFFD38619D
S3150800375CFFF76CFDF8603B6993F8243083F001039E
S3150800376CDBB2002B10D00523FB75F868FFF76EFD4E
S3150800377C0B4B0F221A70FB88094A5360FB7D1846BF
S3150800378CFFF7D8FDFB7D07E03B69002283F8242070
S3150800379CF868FFF75BFDFB7D18461837BD4680BDFC
S315080037ACE827002080B584B000AF78607B681B6B77
S315080037BCFB604DE0FB6893F82430002B45D07B6802
S315080037CC5A69FB681B6A9A423FD1FB6893F8283002
S315080037DC032B32D801A252F823F000BFF9370008A0
S315080037EC0B3800085538000835380008FB685B8D1F
S315080037FC1846FFF70DF9F868FFF7D6FD25E0FB68C4
S3150800380C598DFB68D3E90C230846FDF705FE0346DC
S3150800381CFB72FB7A002B03D0FB7A1846FFF78AFD5E
S3150800382CF868FFF7C1FD10E0FB689B6B184600F0C3
S3150800383C0FF9F868FFF7B8FD07E0084808494FF490
S3150800384C0072FCF7EDFE00E000BFFB685B6CFB60EA
S3150800385CFB68002BAED11037BD4680BD1892000808
S3150800386C1C92000880B584B000AF0023FB8130E0C1
S3150800387CFB891846FFF74AFDB860BB681B6C002B22
S3150800388C24D0BB681B6C7B60154B9A6B7B68DB681A
S3150800389C1340002B1AD07B681B79002B0BD17B6845
S315080038AC1A687B689B68F989084611461A460123EB
S315080038BCFFF75EFE0AE07B681A687B689B68F989E5
S315080038CC084611461A460123FFF794FDFB89013376
S315080038DCFB81FB89012BCBD91037BD4680BD00BFB8
S315080038ECFC27002080B483B000AFEFF310833B6055
S315080038FC3B687B6072B67B6818460C37BD465DF82C
S3150800390C047B704780B485B000AF78607B68FB6039
S3150800391CFB6883F310881437BD465DF8047B704743
S3150800392C80B400AF084B1A78084B1B781343DBB2EC
S3150800393C5BB2002B14BF01230023DBB21846BD462D
S3150800394C5DF8047B704700BFF9270020F827002094
S3150800395C80B483B000AF78607B681B6A18460C3756
S3150800396CBD465DF8047B704780B483B000AF7860C1
S3150800397C7A681346DB009B1ADB00044A1344184684
S3150800398C0C37BD465DF8047B704700BF1800002055
S3150800399C80B487B000AFF860B9607A60BA68FB6823
S315080039ACD31A3B617A683B699A4204D8FA687B68F1
S315080039BC13447B6106E0FA68BB68D21A7B68134429
S315080039CC013B7B617B6918461C37BD465DF8047B59
S315080039DC704700BF80B483B000AF0346FB80FA88FB
S315080039EC1346DB001344DB00034A134418460C3712
S315080039FCBD465DF8047B70475000002080B582B048
S31508003A0C00AF0346FB71094B5B6A002B0AD0074BC8
S31508003A1C5B6ADB68002B05D0044B5B6ADB68FA79BA
S31508003A2C104698470837BD4680BD00BFFC270020C6
S31508003A3C80B483B000AF78607B68002B0CBF012381
S31508003A4C0023DBB218460C37BD465DF8047B70477D
S31508003A5C90B587B000AF78600023FB75FFF760FF61
S31508003A6C0346002B0DD00D23FB752A4B27221A7003
S31508003A7C284A7B685360FB7D1846FFF7BFFFFB7D22
S31508003A8C44E07868FFF7D4FF0346002B0DD10323D7
S31508003A9CFB75204B27221A701E4A7B685360FB7DE8
S31508003AAC1846FFF7ABFFFB7D30E07868FFF75CFF45
S31508003ABC38613B691B7C83F00103DBB2002B0DD00C
S31508003ACC0323FB75134B27221A70124A7B68536023
S31508003ADCFB7D1846FFF792FFFB7D17E0FFF702FF09
S31508003AECF8603B695C693869FFF732FF0346204684
S31508003AFC19460122FFF74CFF02463B695A613869A1
S31508003B0CFFF750FEF868FFF7FDFEFB7D18461C37DD
S31508003B1CBD4690BDE827002090B583B000AF0F4B8B
S31508003B2C1B681846FFF720FF78600D4B9B6901331D
S31508003B3C0B4A93617B685C697868FFF709FF034653
S31508003B4C204619460122FFF723FF02467B685A6175
S31508003B5C7868FFF727FE0C37BD4690BD480700204E
S31508003B6CFC27002080B584B000AF0020FFF732FF99
S31508003B7CB860BB685B687B607B6800221A630023AD
S31508003B8CFB8111E0FB891846FFF724FFB860BB6878
S31508003B9C5B687B607B681A6BBB685A647B68BA681F
S31508003BAC1A63FB890133FB81FB89012BEAD9103790
S31508003BBCBD4680BD80B483B000AF03463960FB7147
S31508003BCC97F90730002B0BDA0D49FB7903F00F0335
S31508003BDC043B3A68D2B21201D2B20B441A7609E007
S31508003BEC084997F907303A68D2B21201D2B20B4497
S31508003BFC83F800230C37BD465DF8047B704700BF7D
S31508003C0C00ED00E000E100E080B582B000AF78601E
S31508003C1C7B68013BB3F1807F01D301230FE00A4A8D
S31508003C2C7B68013B53604FF0FF300F21FFF7C2FF53
S31508003C3C054B00229A60044B07221A60002318468B
S31508003C4C0837BD4680BD00BF10E000E080B500AF68
S31508003C5C014800F00BFA80BD8892000880B582B046
S31508003C6C00AF78607868FFF7CFFF0837BD4680BD90
S31508003C7C80B400AF034B1B681846BD465DF8047B41
S31508003C8C704700BFFC27002080B400AF084B1A7899
S31508003C9C084B1B781343DBB25BB2002B14BF012312
S31508003CAC0023DBB21846BD465DF8047B704700BF9F
S31508003CBCF9270020F827002080B400AF044B002217
S31508003CCC1A70044B00221A70BD465DF8047B7047C7
S31508003CDCF9270020F827002080B483B000AF78605D
S31508003CEC07497A6813465B0013449B000B44083358
S31508003CFC5B7818460C37BD465DF8047B704700BFE9
S31508003D0C2C87000880B485B000AF78600023FB735D
S31508003D1C7B685B68BB60BB681B78422B0CBF0123B6
S31508003D2C0023DBB2FB73FB7B18461437BD465DF8E4
S31508003D3C047B704780B485B000AF78600023FB73B2
S31508003D4C7B685A687B689B681344BB60BB68013BFD
S31508003D5C1B78422B0CBF01230023DBB2FB73FB7BC6
S31508003D6C18461437BD465DF8047B704780B582B09B
S31508003D7C00AF78607868FFF7C5FF0346002B05D0BF
S31508003D8C7868FFF7D7FF0346002B02D10E20FDF704
S31508003D9CBDFD0837BD4680BD80B582B000AF034671
S31508003DACFB71094B5B6A002B0AD0074B5B6ADB6815
S31508003DBC002B05D0044B5B6ADB68FA7910469847EA
S31508003DCC0837BD4680BD00BFFC27002080B582B0F1
S31508003DDC00AF78607B681B881BB2184601F0BAFDE9
S31508003DEC0837BD4680BD00BF80B582B000AF78608D
S31508003DFC7B681B881BB2184601F0ACFD0837BD461C
S31508003E0C80BD00BF80B582B000AF78607B681B8828
S31508003E1C1BB2184601F0DEFD0837BD4680BD00BF53
S31508003E2C80B582B000AF78607B681B881BB21846D9
S31508003E3C01F0D0FD0837BD4680BD00BF80B584B003
S31508003E4C00AF78607B68DB68FB6006E0F868796829
S31508003E5C00F05AF8FB689B6AFB60FB68002BF5D1EF
S31508003E6C1037BD4680BD00BF80B483B000AF786004
S31508003E7C7B68DB68002B14BF01230023DBB21846D2
S31508003E8C0C37BD465DF8047B704700BF80B485B01F
S31508003E9C00AF78607B68DB881BB21033054AD35CAD
S31508003EACFB81FB891BB218461437BD465DF8047BAB
S31508003EBC704700BF4C07002080B485B000AF03469E
S31508003ECC3960FB800023FB60FB880D4AD35C7B8141
S31508003EDC3B68FA881A807B89FF2B0AD07B89092BC9
S31508003EEC07D87A8913469B0013449B00054A13444A
S31508003EFCFB60FB6818461437BD465DF8047B7047B3
S31508003F0C4C070020E02A002080B582B000AF78600C
S31508003F1C39607B689B8B1A463B681B881BB29A4296
S31508003F2C04D01C481C49B222FCF77AFB7B684FF676
S31508003F3CFF729A837B689B7F022B27D03B68DB68D2
S31508003F4C002B04D115481449B722FCF769FB3B68CA
S31508003F5C1B695B681A687B689A4204D010480E493C
S31508003F6CBC22FCF75DFB7B689B6A002B05D07B6843
S31508003F7C9B6A7A68D26ADA6203E07B68DA6A3B681B
S31508003F8C1A617B68DB6A7A68926A1A600837BD46DA
S31508003F9C80BD00BFA0920008BC92000820930008C0
S31508003FAC589300082DE9F04184B002AF78600B46AF
S31508003FBC7B80B7F90220224913469B0013449B00C9
S31508003FCC0B4408337A681A60B7F902201C49134661
S31508003FDC9B0013449B000B447A881A80B7F902207D
S31508003FEC174913469B0013449B000B444FF6FF726C
S31508003FFC5A807B68DB881BB210337A88D1B2114A97
S3150800400CD1547B68DE687B68B3F806807B681B89AD
S3150800401C9DB27B685C797B681B691846FFF75CFE6A
S3150800402C03461A460FFA88F30092304619462A4672
S3150800403C234600F0E5FA0837BD46BDE8F08100BF17
S3150800404CE02A00204C07002080B500AF00F0B6FA35
S3150800405C044B00221A800448FF21542203F0F8FF6F
S3150800406C80BD00BFD02A00204C07002080B584B044
S3150800407C00AF78607B68002B04D11F481F49F922D2
S3150800408CFCF7CEFA7B68DB881BB21033532B04D9AA
S3150800409C1B481A49FA22FCF7C3FA7868FFF7F6FEAA
S315080040AC0346BB81B7F90C30FF2B02D0BB89FB81C9
S315080040BC1BE0144B1B88FB81124B1B889BB29BB2D3
S315080040CC01339BB29AB20F4B1A80B7F90E30092BF3
S315080040DC05DD0D4809494FF48772FCF7A1FAB7F9C3
S315080040EC0E3078681946FFF75DFFFB891BB2184638
S315080040FC1037BD4680BD00BFA4930008BC920008CB
S3150800410CBC930008D02A0020F493000880B483B02E
S3150800411C00AF78607B68054A5A607B684FF400628A
S3150800412C9A600C37BD465DF8047B7047B02B0020AF
S3150800413C80B485B000AF0346FB800023FB600B4BB5
S3150800414C1B88B7F906201BB29A4208DAB7F906207B
S3150800415C13469B0013449B00054A1344FB60FB68FB
S3150800416C18461437BD465DF8047B7047D02A0020E4
S3150800417CE02A002080B586B000AF78600B467B80BD
S3150800418C00237B6100233B610023FB6000237B81BA
S3150800419C7A8807F10A0310461946FFF78DFE7861EF
S315080041AC7B69002B05D16C486C4940F29F12FCF7D1
S315080041BC37FA7B699B681B89002B20D1684B9B6857
S315080041CCFB60674A7B699360654B5B690133644A9C
S315080041DC536162B67B699B68DB68984772B6604B1D
S315080041EC5B69013B5E4A53615D4AFB6893607B8958
S315080041FC9BB21BB2184600F0F9F97B68A8E07B69FC
S3150800420C9B681B891BB2012B05D05648534940F2B3
S3150800421CAF12FCF705FA524B5A69534B1B681344F9
S3150800422C002B2ED14E4B1B689B8903F00803002BE1
S3150800423C05D14E48494940F2B912FCF7F1F9484BF9
S3150800424C1B689B6A012B05D04948444940F2B912B0
S3150800425CFCF7E6F9424B1B6800229A62404B5B6AF4
S3150800426C5B69002B03D03E4B5B6A5B699847FFF78B
S3150800427CFFFC38613B6901229A813869FFF776FDA4
S3150800428C0DE0394B1B68012B09D0354B9B68FB603D
S3150800429CFB681A887B695A80F868FFF7B3FD304BC0
S315080042AC5B6901332E4A53617B6901225A602C4A99
S315080042BC7B6993607869FFF789FD62B67B699B68B1
S315080042CCDB68984772B67869FFF7AAFD7B695B8845
S315080042DC1BB2B3F1FF3F13D07B695B881AB2134646
S315080042EC9B0013449B00234A13441D4A93601C4BA2
S315080042FC9B681846FFF778FD7B694FF6FF725A8064
S3150800430CFFF7C2FC0346002B04D0FFF7D5FC0D20A3
S3150800431CFFF742FD7869FFF7A7FD0346012B05D188
S3150800432C7869FFF78BFD0620FFF736FD7B690222BD
S3150800433C5A600B4A7B6993607B899BB21BB2184601
S3150800434C00F054F9064B5B69013B054A536100239F
S3150800435C18461837BD4680BDA4930008BC920008C1
S3150800436CFC270020049400085C28002020940008F0
S3150800437C54940008E02A002090B585B000AF786008
S3150800438C0B467B80B7F902301846FFF7D1FEF8606A
S3150800439CFB68002B0DD07C68B7F902301846FFF77E
S315080043ACC7FE03469B681B6820461946102204F074
S315080043BC51F81437BD4690BD80B400AF034B1B882B
S315080043CC1BB21846BD465DF8047B7047D02A002000
S315080043DC80B483B000AF0023FB802BE0FB88194A1E
S315080043EC4C2101FB03F31344083300221A70F98895
S315080043FCFA88154813465B0013449B00034408339C
S3150800440C1878104A4C2303FB01F3134402461A701E
S3150800441CF988FA880C4813465B0013449B0003443E
S3150800442C1A6808484C2303FB01F303445A60FB88BB
S3150800443C0133FB80FB88002BD0D00C37BD465DF8CA
S3150800444C047B7047B03300202C87000880B584B0F5
S3150800445C00AF786039600423FB73114B5B6A002B41
S3150800446C15D00F4B5B6A1B68002B10D07868FCF7CD
S3150800447C7FFE0346BB73BB7BFF2B08D0084B5B6ADE
S3150800448C1B68BA7B104698470346FB73FFE7FB7B12
S3150800449C002B02D01F20FDF739FA1037BD4680BD18
S315080044ACFC27002080B485B000AF78607B6803F0E9
S315080044BC0703FB600C4BDB68BB60BA684FF6FF035F
S315080044CC1340BB60FB681A02BB68134343F0BF6317
S315080044DC43F40033BB60044ABB68D3601437BD464B
S315080044EC5DF8047B704700BF00ED00E080B483B034
S315080044FC00AF03463960FB7197F90730002B0BDACE
S3150800450C0D49FB7903F00F03043B3A68D2B212014A
S3150800451CD2B20B441A7609E0084997F907303A687B
S3150800452CD2B21201D2B20B4483F800230C37BD4623
S3150800453C5DF8047B704700BF00ED00E000E100E089
S3150800454C80B582B000AF0346FB71FB791F2B04D9EB
S3150800455C074808492922FCF763F8FB795B08DBB2A4
S3150800456CC3F10F03DBB218460837BD4680BD00BF42
S3150800457C7C9400088494000880B582B000AF03468A
S3150800458C3960FB7197F9073018463968FFF7AEFFA3
S3150800459C97F90730002B0CDB074AFB795B09DBB272
S315080045AC1846FB7903F01F03012101FA03F342F8BD
S315080045BC20300837BD4680BD00E100E080B500AF6D
S315080045CC0020FFF76FFF1420FFF7BAFF03466FF0C2
S315080045DC01001946FFF78AFF034A034B5B6863F031
S315080045ECFF03536080BD00BF002004E080B483B095
S315080045FC00AF0346FB800C37BD465DF8047B70475D
S3150800460C90B585B000AFF860084611461A460346C1
S3150800461C7B810B463B811346FB71B7F90A30532B4A
S3150800462C28DC3B89002B0FD1FB79152B04D81548B0
S3150800463C15497C22FBF7F4FFB7F90A3010331349F6
S3150800464CFA6841F8232007E0FB79132B04D91048A4
S3150800465C0D497F22FBF7E4FF7B89DCB2FB79184610
S3150800466CFFF76EFF03461A4663B218461146FFF764
S3150800467C83FF04E0074804498622FBF7D1FF143769
S3150800468CBD4690BDF494000884940008FC330020C1
S3150800469C089500081895000880B400AF72B6064B4A
S315080046AC1B78DBB2DBB20133DBB2DAB2024B1A701F
S315080046BCBD465DF8047B7047F827002080B400AF30
S315080046CC0A4B1B78002B0DD0084B1B78DBB2DBB2E0
S315080046DC013BDBB2DAB2054B1A70044B1B78002B84
S315080046EC00D162B6BD465DF8047B7047F8270020FA
S315080046FC80B483B000AF00237B6007E0094A7B686F
S3150800470C002142F823107B6801337B607B68042BFD
S3150800471CF4D9054B01221A700C37BD465DF8047B9B
S3150800472C704700BF503500204C35002090B585B039
S3150800473C00AF0446084611461A462346FB80034634
S3150800474C7B710B463B711346FB700023FB72124BB5
S3150800475C1B78022B1BD1FFF79FFF0023FB6011E090
S3150800476C0E4AFB6852F82330002B08D00B4AFB681C
S3150800477C52F82340F88879793A79FB78A047FB6890
S3150800478C0133FB60FB68042BEAD9FFF797FFFB7A2A
S3150800479C18461437BD4690BD4C35002050350020C0
S315080047AC80B400AF034B02221A70BD465DF8047B39
S315080047BC704700BF4C35002080B582B000AF034669
S315080047CCFB71FB79184602F09FFD0837BD4680BD84
S315080047DC80B584B000AF786039600023FB6009E0CF
S315080047EC7B685A1C7A601B781846FFF7E5FFFB684E
S315080047FC0133FB60FA683B689A42F1D33B6818466A
S3150800480C1037BD4680BD00BF80B485B000AFF860D8
S3150800481CB9607A60002318461437BD465DF8047BE8
S3150800482C704700BF80B485B000AF786039607B688C
S3150800483C002B03D13B68013BFB6002E07B68013B24
S3150800484CFB60FB6818461437BD465DF8047B704759
S3150800485C80B483B000AF786039607B6801333A68FE
S3150800486C93FBF2F2396801FB02F29B1A18460C37D5
S3150800487CBD465DF8047B704780B586B000AFF8601E
S3150800488CB9607A60F868B9687A6803F049FE7861A5
S3150800489C7B6918461837BD4680BD00BF80B584B005
S315080048AC00AF786039600023BB607B68012B16D19A
S315080048BC1B4801F0CDFD1B4B5B68FB600BE0FB68EE
S315080048CCDA68FB681B69184811461A4601F0C0FDE0
S315080048DCFB689B69FB60FB68002BF0D11BE03B680F
S315080048EC5B68BB600F4B5B68FB6011E0FB68DB68C1
S315080048FCB868194603F0FAFB0346002B05D1FB688A
S3150800490C5B690A48194601F0A3FDFB689B69FB60C5
S3150800491CFB68002BEAD1002318461037BD4680BD2C
S3150800492C0C960008C0350020209600082C96000826
S3150800493C80B586B000AF786039607B68012B3FD1B3
S3150800494C224801F085FD224B9B680A2B1FD1204B70
S3150800495C1B687B6100233B6115E07A6913469B0053
S3150800496C1344DB0008331A4A1344043319483969CB
S3150800497C1A4601F06DFD78690A21FFF769FF78611F
S3150800498C3B6901333B613B69092BE6DD18E00023E3
S3150800499CFB6010E0FA6813469B001344DB000833EF
S315080049AC0B4A134404330B48F9681A4601F050FDB8
S315080049BCFB680133FB60064B9A68FB689A42E9DC94
S315080049CC002318461837BD4680BD00BF3096000830
S315080049DCCC3500203C96000880B500AF0D4B012263
S315080049EC1A600C4B00225A600A4B0B4A9A600B4809
S315080049FC00F01EF80A4800F01BF80A4B1B685B68A7
S31508004A0C0948194601F0F8FC084800F0BFF80023DD
S31508004A1C184680BDC0350020C4350020440100204E
S31508004A2C64010020CC020020449600086496000815
S31508004A3C80B582B000AF78600C4B1B68012B01D097
S31508004A4CFFF7CAFF7B6800229A61084B9A687B6855
S31508004A5CDA61064B9B687A681A607B681833034AD6
S31508004A6C9360002318460837BD4680BDC035002024
S31508004A7C80B594B000AF786039603E4B3B64002338
S31508004A8CBB6400237B643B6801221A607B68002B9D
S31508004A9C01D102236AE0786803F064FC034601330B
S31508004AACFB63FB6B282B01D901235FE0324879683D
S31508004ABCFA6B03F057FA07F130032F48396C1A468C
S31508004ACCFFF7DAFEB863BB6B002B01D102234DE06E
S31508004ADC2A4B5B68FB640EE0FB6CDB68B86B19460B
S31508004AEC03F004FB0346002B02D1FB6CBB6405E008
S31508004AFCFB6C9B69FB64FB6C002BEDD1BB6C002B30
S31508004B0C2FD0BB6BBB607B6C01337B6412E07B6C78
S31508004B1C092B05DD1A481B4940F22912FBF780FDC3
S31508004B2C7B6C5A1C7A649B0007F1500213447A6B0F
S31508004B3C43F8482C07F130030020396C1A46FFF766
S31508004B4C9BFE78637B6B002BE1D1BB6C1B6807F172
S31508004B5C0802786C1146984702463B681A6000238F
S31508004B6C04E00948B96B01F073FC03231846503767
S31508004B7CBD4680BD6896000864350020C035002007
S31508004B8C6C96000874960008C896000880B582B022
S31508004B9C00AF78600348796801F05AFC0837BD46BF
S31508004BAC80BD00BFE496000880B584B000AFA44B66
S31508004BBC1B681B68184601F037FC0346FB70A14BB3
S31508004BCC1B68272B02DD9F4B00221A609E4B1B6825
S31508004BDC002B00F0B7809C4B1B68012B0AD1FB7885
S31508004BEC5B2B03D1984B02221A60A9E0964B002244
S31508004BFC1A60A5E0944B1B68022B40F0A180FB7849
S31508004C0C412B4BD18F4B1B68002B05D08D4B1B684A
S31508004C1C8E48194601F01CFC8D4B9B68002B00F046
S31508004C2C8C808B4B5B6818460A21FFF7FBFD024606
S31508004C3C874B5A60864B5A6813469B001344DB0015
S31508004C4C0833834A13441A1D7D4B1B685B68104650
S31508004C5C194601F0D1FB7E4B5A6813469B00134448
S31508004C6CDB0008337A4A13440433184603F07AFBFC
S31508004C7C03461A46734B1A60754B5A6813469B00C3
S31508004C8C1344DB000833724A13441A1D6D4B1B6818
S31508004C9C704811461A4603F065F94EE0FB78422B2C
S31508004CAC4BD16B4B5A686A4B1B689A4245D0654B7D
S31508004CBC1B68002B05D0634B1B686448194601F02A
S31508004CCCC7FB634B5B6818460A21FFF7C1FD024612
S31508004CDC5F4B5A605E4B5A6813469B001344DB00C5
S31508004CEC08335B4A13441A1D554B1B685B68104600
S31508004CFC194601F081FB564B5A6813469B00134420
S31508004D0CDB000833524A13440433184603F02AFBD3
S31508004D1C03461A464B4B1A604D4B5A6813469B0072
S31508004D2C1344DB0008334A4A13441A1D454B1B68C7
S31508004D3C484811461A4603F015F9434B00221A60E7
S31508004D4C00230EE1FB781B2B03D13F4B01221A6083
S31508004D5C06E1FB78082B11D13A4B1B68002B00F0A7
S31508004D6CFF80384B1B68013B364A1360344B1B6873
S31508004D7C5B683948194601F03FFBF1E0FB780A2BD2
S31508004D8C02D0FB780D2B6FD12D4B1B685B68334813
S31508004D9C194601F031FB2B4B1B685A1C29490A6032
S31508004DAC2C4A0A21D154274B1B682A4A0021D15474
S31508004DBC244B1B68012B3CDD254B1A6813469B00BC
S31508004DCC1344DB000833224A13441A1D1D4B1B6877
S31508004DDC104620491A4603F0C5F81D4B1A68194B9C
S31508004DEC1B68591E1A4813469B001344DB000344E0
S31508004DFC0B44083300221A71154B1B6818460A21F6
S31508004E0CFFF726FD0246124B1A60114B9B680133BD
S31508004E1C0F4A93600E4B9B680A2BA8BF0A230C4AB1
S31508004E2C93600B4B1B680A4A53600A480C49FFF7F8
S31508004E3C1FFE044B00221A600A48FFF7A7FE8FE0F4
S31508004E4CCC0200208C35002090350020F496000802
S31508004E5CCC350020943500200097000808970008E8
S31508004E6CBC35002064960008FB78092B65D13F4BAE
S31508004E7C1B68002B60DD0023BB600023FB8000232E
S31508004E8CBB803B4B5B68FB6028E0FB68DA68374BFA
S31508004E9C1B68104637491A4603F092FA0346002B4C
S31508004EAC19D1BB68002B02D1FB68BB6010E0BB882C
S31508004EBC002B07D1BB68DB682F48194601F0C8FAE6
S31508004ECC0123BB80FB68DB682C48194601F0C0FA45
S31508004EDCFB880133FB80FB689B69FB60FB68002B36
S31508004EECD3D1FB88002B27D0FB88012B1BD1BB68A1
S31508004EFCDB681E4A12681A44214B1B685B6810460D
S31508004F0C194601F079FABB68DB68184603F02AFAE9
S31508004F1C03461A46154B1A60BB68DB6815481946D2
S31508004F2C03F0C2F908E0114B1B68124A0021D15450
S31508004F3C1048FFF72BFE13E012E0FB78002B0FD07E
S31508004F4C0A4B1B685A1C09490A600A49FA78CA545A
S31508004F5CFA780B4B1B685B681046194601F034FA55
S31508004F6C002318461037BD4680BD00BF8C3500207F
S31508004F7CC0350020943500200C97000814970008BB
S31508004F8CCC02002080B500AFFFF70EFEFCE700BF91
S31508004F9C80B400AF72B6064B1B78DBB2DBB20133BA
S31508004FACDBB2DAB2024B1A70BD465DF8047B704769
S31508004FBCF827002080B400AF0A4B1B78002B0DD0C5
S31508004FCC084B1B78DBB2DBB2013BDBB2DAB2054B22
S31508004FDC1A70044B1B78002B00D162B6BD465DF8DF
S31508004FEC047B7047F8270020F0B593B002AF7860C1
S31508004FFC39600023FB637B68012B40F0E780764B16
S3150800500C1B685B687548194601F0F6F9724B1B6804
S3150800501C5B687348194601F0EFF96F4B1B685B68C0
S3150800502C7048194601F0E8F90023BB6344E0BB6BF2
S3150800503C9BB207F10802104619460222FDF7D8FD65
S3150800504C6949BA6B13465B0113449B000B441B78E6
S3150800505C1A46FB6B1344FB63BA6B13465B0113448A
S3150800506C9B001033604A13441D1D5F49BA6B1346E7
S3150800507C5B0113449B000B441B781E465A49BA6BBA
S3150800508C13465B0113449B000B445C685649BA6B88
S3150800509C13465B0113449B000B4408331B6897F8B3
S315080050AC302000930192514829463246234601F096
S315080050BCCFF9BB6B0133BB63BB6B032BB7D9464B21
S315080050CC1B685B684A48194601F096F9424B1B68FF
S315080050DC5B684848194601F08FF93F4B1B685B68BB
S315080050EC4548194601F088F93B4B1B685B683D48F7
S315080050FC194601F081F900237B635CE03F497A6B22
S3150800510C13465B0113449B000B4410331B79002B8D
S3150800511C18D17B6B9BB207F108021BB210461946D5
S3150800512CFFF72AF97A6B13465B0113449B0010337D
S3150800513C324A13441A1D07F1080310461946202251
S3150800514C02F010FF2D497A6B13465B0113449B0042
S3150800515C0B441B781A46FB6B1344FB637A6B13469A
S3150800516C5B0113449B001033244A13441D1D234929
S3150800517C7A6B13465B0113449B000B441B781E4643
S3150800518C1E497A6B13465B0113449B000B445C68FF
S3150800519C1A497A6B13465B0113449B000B4408337C
S315080051AC1B680093164829463246234601F050F9E7
S315080051BC7B6B01337B63FFF7FFF803461A467B6B61
S315080051CC9A429BDC0F48F96B01F042F9002318460A
S315080051DC4437BD46F0BD00BFCC0200206C9A0008CF
S315080051EC9C9A0008CC9A000808450020009B0008E9
S315080051FC1C9B0008209B00084C9B0008A03700202D
S3150800520C789B0008909B00082DE9F04F8DB008AFED
S3150800521C786039607B68012B40F09A804F4B1B688D
S3150800522C5B684F48194601F0E7F84C4B1B685B68FE
S3150800523C4C48194601F0E0F8484B1B685B684A482D
S3150800524C194601F0D9F80023FB607AE0FA68134690
S3150800525C5B0113449B001033444A134403F1040BBB
S3150800526C4249FA6813465B0113449B000B445033BE
S3150800527CD3F804A03D49FA6813465B0113449B0016
S3150800528C0B445833D3F804903849FA6813465B0133
S3150800529C13449B000B445833D3F808C03349FA68B7
S315080052AC13465B0113449B000B446033D3F804E0AC
S315080052BC2E49FA6813465B0113449B000B4468336A
S315080052CC5E682A49FA6813465B0113449B000B4433
S315080052DC68339D682549FA6813465B0113449B009D
S315080052EC0B4470335C682149FA6813465B01134416
S315080052FC9B000B44783358681C49FA6813465B01C3
S3150800530C13449B000B4478339968DFF86080FA687D
S3150800531C13465B0113449B0043441B78CDF800C02D
S3150800532CCDF804E00296039504940590069107932C
S3150800533C0F48594652464B4601F08AF8FB6801332A
S3150800534CFB600C4B1B781A46FB689A423FF77EAFFC
S3150800535C002318461437BD46BDE8F08FCC02002052
S3150800536CAC9B0008049C00085C9C0008C83C002008
S3150800537CB49C00086837002080B58EB000AF324B5D
S3150800538C1B78002B5CD13148FFF752FB3048FFF7EE
S3150800539C4FFB02F0D5FA2C4B01221A7000237B63C3
S315080053AC27E07B6B9BB23A1D104619464FF0FF322D
S315080053BCFDF71EFC7A6B13465B0113449B001033F6
S315080053CC244A13441A1D3B1D10461946102202F096
S315080053DCC9FD20497A6B13465B0113449B000B44A9
S315080053EC4033FF221A701C4B00221A707B6B013358
S315080053FC7B637B6B032BD4D900233B6319E03B6B94
S3150800540C9BB23A1D1BB210461946FEF7B5FF3A6B0E
S3150800541C13465B0113449B001033104A13441A1DA0
S3150800542C3B1D10461946102202F09CFD3B6B0133BE
S3150800543C3B63FEF7C1FF03461A463B6B9A42DEDC1A
S3150800544C3837BD4680BD00BF70370020A401002048
S3150800545C840100200845002068370020A03700206A
S3150800546C90B591B000AF6D4B1B68002B38D102F08C
S3150800547C8FFA0246694B1A600023FB6327E0FB6B25
S3150800548C9BB23A461BB210461946FEF775FF64499D
S3150800549CFA6B13465B0113449B000B4410331B79C0
S315080054AC002B11D13B78002B0ED0FA6B13465B01FF
S315080054BC13449B0010335A4A13441A1D3B46104694
S315080054CC1946102202F04EFDFB6B0133FB63FEF707
S315080054DC73FF03461A46FB6B9A42D0DC00BF2FE2D9
S315080054ECFFF756FD02F054FA02464C4B1B68D21ACB
S315080054FC4C4B1B684C49A1FB03139B0CB2FBF3F3F7
